:100000000C94A5020C94C2020C94C2020C94C2027D
:100010000C94C2020C94C2020C94C2020C94C20250
:100020000C94C2020C94C2020C949F220C94732371
:100030000C94DF1C0C94C2020C94C2020C94C202F9
:100040000C94C2020C94C2020C94C2020C94C20220
:100050000C94C2020C94661D0C94C2020C94C20251
:100060000C94C2020C94DC180C94C2020C94C202D0
:100070000C94C2020C94C2020C94C2020C94C202F0
:100080000C94C2020C94C2020C94C2020C94C202E0
:100090000C94C2020C94C2020C94C2020C94C202D0
:1000A0000C94C2020C94C2020C94C202D100D30080
:1000B000D400D20044454255473A206469736162D6
:1000C0006C65642E0A0044454255473A20656E61CE
:1000D000626C65642E0A000A0025303258006C6597
:1000E000645F7461736B3A20004F6E6573686F7460
:1000F0003A206163746976653A2025640A000A0033
:1001000025303862003A200025303258000A722F1C
:10011000632030313233343536370A00290A00255E
:1001200075002F002575005D28002564002000253E
:100130006400200025640020002564007C00253038
:100140003258006D6F7573656B6579205B62746EF4
:100150007C782079207620685D287265702F616335
:100160006C293A205B0020636F6D6D616E643A20EC
:1001700025582C20726573756C743A2025582C20F4
:100180006572726F723A202558200A00707332200F
:100190006D6F757365207365742073747265616D1E
:1001A000206D6F64650020636F6D6D616E643A2031
:1001B00025582C20726573756C743A2025582C20B4
:1001C0006572726F723A202558200A0070733220CF
:1001D0006D6F75736520656E61626C652064617416
:1001E00061207265706F7274696E670020636F6D55
:1001F0006D616E643A2025582C20726573756C749D
:100200003A2025582C206572726F723A20255820AA
:100210000A00707332206D6F7573652064697361B5
:10022000626C652064617461207265706F727469BC
:100230006E67007073325F6D6F7573653A2066612B
:10024000696C20746F20676574206D6F757365200D
:100250007061636B65740A0020726573756C743A23
:100260002025582C206572726F723A202558200A7A
:10027000007073325F6D6F7573655F696E69743A94
:10028000207265616420446576494400207265737C
:10029000756C743A2025582C206572726F723A2062
:1002A0002558200A007073325F6D6F7573655F6942
:1002B0006E69743A20726561642042415400206383
:1002C0006F6D6D616E643A2025582C2072657375D0
:1002D0006C743A2025582C206572726F723A202572
:1002E00058200A007073325F6D6F7573655F696EB9
:1002F00069743A2073656E64696E67207265736510
:100300007400706275663A2066756C6C0A00505312
:1003100032205553415254206572726F723A202533
:1003200030325820646174613A20253032580A0016
:100330000A002530325820006B6579626F61726463
:100340005F7265706F72743A200064656C5F6B65F4
:10035000795F6269743A2063616E27742064656C0A
:100360003A20253032580A006164645F6B65795F1A
:100370006269743A2063616E2774206164643A2074
:10038000253032580A005B735D005B575D005B539C
:100390005D005B525D005B445D005B435D001403E8
:1003A00073006100750063006500620061006C000D
:1003B0006C0000000A037800690061003000000052
:1003C0000403090409025B00030100A0FA09040008
:1003D0000001030101000921110100012240000771
:1003E0000581030800010904010001030000000960
:1003F000211101000122B600070582032000010936
:100400000402000203000000092111010001222260
:1004100000070583032000010705030320000112E4
:1004200001000200000008001A7B5A0001010200CE
:10043000010631FF0974A1010975150026FF009519
:1004400020750881020976150026FF0095207508A1
:100450009102C005010902A10185020901A100055F
:100460000919012908150025019508750181020562
:1004700001093009311581257F950275088106092A
:10048000381581257F950175088106050C0A38020B
:100490001581257F950175088106C0C00501098079
:1004A000A101850319012AB700150126B70095019E
:1004B00075108100C0050C0901A101850419012AEC
:1004C000A002150126A002950175108100C005014A
:1004D0000906A1018506050719E029E71500250190
:1004E0009508750181020507190029EF15002501FE
:1004F00095F0750181020508190129059505750119
:100500009102950175039101C005010906A101053C
:100510000719E029E7150025019508750181029565
:1005200001750881010507190029FF150026FF0044
:1005300095067508810005081901290595057501BD
:100540009102950175039101C00011241FBECFEFE8
:10055000DAE0DEBFCDBF11E0A0E0B1E0E6E4FCE40C
:1005600002C005900D92A839B107D9F722E0A8E999
:10057000B1E001C01D92A63BB207E1F70E94BF1295
:100580000C94E2250C940000FF93EF93E091980106
:10059000F0919901309709F00995EF91FF91089535
:1005A000FC018591803011F0EFDFFBCF0895FF272C
:1005B000E0E230E247FF0CC0419597FF09C0EDE251
:1005C0006095709580959095611D711D811D911D9F
:1005D00027FF02C0219530E350E2AA27660F771F5C
:1005E000881F991FAA1FA41710F0A41B63955A9582
:1005F000A9F7AA3008F0A95FA05DAF93F395611544
:1006000071058105910541F7ED3211F4EF93F395F2
:10061000F21718F43F93F395FBCF8F91B5DFFA955E
:10062000E1F70895E991F9918591803021F08532C3
:1006300019F0AADFF9CF089520E0E89455915532DA
:10064000C1F3503311F4689455915A3348F4505320
:1006500090F3220F022E220F220F200D250FF4CF30
:100660000EF4219589919991533619F3533729F155
:10067000533559F1BC0188279927E8945C3621F459
:100680008991999168945591543639F446EF7EF0EA
:1006900077FF0DC08FEF9FEF0AC055374AE039F062
:1006A000583540E121F0523642E009F00895FF93B9
:1006B000EF937DDFEF91FF91B7CFFF93EF93FC01B5
:1006C00081918030B9F360DFFBCFFF93EF9368DF58
:1006D000F1CFDF93CF93CDB7DEB72596A3DFCF91D0
:1006E000DF910895862B59F4443048F4E42FF0E06C
:1006F000EE0FFF1FE455FF4F85919491089581E01F
:1007000090E008950E947203089581E0089581E0C9
:1007100008950E948703089508950E948C03089508
:10072000A5E0B0E0E6E9F3E00C944E2549835A8356
:1007300030919F0189819A81311119C0662399F006
:10074000222389F00E94A309182F682F89819A819A
:100750000E94880969817A81812F0E946E102596F6
:10076000E3E00C946A250E949509182FF3CF0E94AC
:10077000A30969817A81F1CFFC01262F4081518143
:100780006281738184810E949003089581E00895BD
:10079000CF93DF93EC0160E00E94BC03BE010E9496
:1007A0008D03DF91CF91089508950E9457080E940C
:1007B000D4032FEF84E39CE0215080409040E1F788
:1007C00000C0000008950E94D5030E948A1D08956C
:1007D0000E94D5030E94BC1D08950F931F93CF93D1
:1007E000DF938C0161E00E94BC03EC01B8010E9420
:1007F0008903811106C080E0DF91CF911F910F9195
:100800000895B801CE010E94AB1A8823A1F3B80164
:10081000CE010E94D215882371F3B801CE010E9447
:100820001D1A882341F3F8018281882369F0C330BF
:10083000FCE7DF0781F160F4C130ECE7DE0769F126
:10084000C0F4C115DC4791F0C8010E948503D4CFE4
:10085000CB35ECE7DE0739F1CC35FCE7DF0701F1FA
:10086000CA35DC4789F70E94E70DEECF0E94E3030B
:10087000C2CF90912F02892F8E7F90FF816080934D
:100880002F0280FF05C086EC90E00E94D002B3CF1B
:1008900084EB90E0FACF0E94EF0D0E94E803ABCF0B
:1008A0000E94DD0DD1CF0E94EB0DCECF0E94C11C66
:1008B0000E94950408950E9499040E94C61C089500
:1008C000829590E09C01220F331F220F331F2C7C56
:1008D00095958795959587958373282B30E0C90169
:1008E000880F991F8A7A359527952575822B08954B
:1008F000089581E008950895CF93DF93D82F0E9443
:100900007904C82F882319F08D2F0E947B048C2F27
:10091000DF91CF9108950895CF93C82F0E94780456
:100920008C2F0E947C04CF91089580E00E948C045B
:1009300008950E94F91A0E948C040895CF930E9492
:10094000F91AC82F80919A018C1789F1C0939A01E6
:100950000E944B1D60939B0170939C0180939D01AD
:1009600090939E0180912F0282FF1EC080FF1CC0C9
:100970008EED90E00E94D00280912F0280FF14C083
:100980001F92CF9389ED90E09F938F930E9469030C
:1009900080912F020F900F900F900F9080FF04C056
:1009A00087ED90E00E94D0028C2F0E948C04CF91A2
:1009B0000895ABE0B0E0EFEDF4E00C944F254F83E9
:1009C000588769877A878B8761110E94150D1E826F
:1009D0001D8285E0FE013796DE01119601900D9291
:1009E0008A95E1F78C819D81892B61F449815A8137
:1009F0006B817C818D819E810E943D0C2B96E2E073
:100A00000C946B2589819A8189238F3F79F3CE01DC
:100A100001960E94C6038111E9CFF0CFFC018081CD
:100A200091810E94D50908950F931F93CF93DF936F
:100A3000C82FD62F662341F10E9443130C2F10E0DC
:100A4000C801815D9109089710F00E941614C15DDC
:100A5000C330A8F4015D110981E090E002C0880F65
:100A6000991F0A95E2F720919F023091A002DD23A1
:100A700071F0822B932B9093A00280939F02DF91C1
:100A8000CF911F910F9108950E949D13D7CF80950C
:100A9000909582239323EFCFCF93C82F8823B9F06B
:100AA0008CEF8C0F813AA8F46C2F8091000190910B
:100AB00001010E94C51B882329F08C2F0E94D50CB0
:100AC0000E94360D8C2F0E94CD0C0E94360DCF91C6
:100AD000089580E28C0F883048F4C77081E001C02F
:100AE000880FCA95EAF70E94F80CEFCFEBE5EC0F00
:100AF000E33040F4F0E0E75BFE4F808190E00E943D
:100B0000671BE5CFE8E5EC0FEB3150F4F0E0EE0FBA
:100B1000FF1FED5EFE4F808191810E948C1BD7CF1D
:100B200083E38C0F833198F661E08C2F0E941405CB
:100B3000CECF882381F19CEF980F913A28F40E9440
:100B4000D50C0E94360D089590E2980F983050F41D
:100B5000877091E001C0990F8A95EAF7892F0E946A
:100B6000FE0CEFCF9BE5980F933028F490E080E0E7
:100B70000E94671B089598E5980F9B3128F490E038
:100B800080E00E948C1B089593E3980F933118F432
:100B900060E00E94140508951F93CF93DF93182FF0
:100BA000EB010E944C05209739F4812F0E94990592
:100BB000DF91CF911F9108958FE99FE00197F1F7A1
:100BC00000C000002197EFCF70E060E0893311F49E
:100BD00060E570E00E94CC050895882321F00E9412
:100BE000F80C0E94360D0895882321F00E94FE0C17
:100BF0000E94360D0895B0E0A0E0E1E0F6E00C942C
:100C000048256C01D62FC72FFC0112810581029562
:100C10000F700E94EE0CE82E8823E9F0E12E1123DC
:100C2000D1F08C2F807F803451F080E28D0F88309E
:100C3000F8F0011104C08C2F807E8032C9F08091C1
:100C4000A20282FF15C082E00E94990D0E94EE0C64
:100C500091E0E82EE926BC2EB2949FE0B922FBE099
:100C6000FB15B8F1EB2DF0E0EC51FA4D0C94392561
:100C7000E12CF1CF0C2F0F70C07F11F00295007F97
:100C8000112399F0002359F080E28D0F883010F085
:100C9000D11107C0802F0E94F80C0E94360D8D2FB5
:100CA00063C0802F0E94080DF8CF8D2F0E949905F8
:100CB000002379F080E28D0F883010F0D11104C04C
:100CC000802F0E94FE0C03C0802F0E940E0D0E94F8
:100CD000360D2B2D2850330B2430310520F40E9483
:100CE000F91A0E948C04EE2089F00E94EA0C80FD23
:100CF0000DC0F60112820E94E40C0E94E608C601B3
:100D00000E9417080E94E40C0E94F608CDB7DEB7D7
:100D1000E9E00C9464252C2F2F70F22EC07FC03296
:100D200019F0F29480EFF822DD2381F0D13009F43C
:100D300049C0112309F451C0002309F448C0F60149
:100D4000858180FFACCF8F70858341C08091A202E6
:100D500082FD15C0112359F0FF2029F08F2D0E942C
:100D6000F80C0E94360D80E00E944C05B2CF80E066
:100D70000E949905FF2009F4ACCF8F2DA2CF11233B
:100D800081F0011106C00E94180D8F290E94ED0507
:100D9000A0CF0130C1F70E94180D8F290E941F0DAE
:100DA00098CF011106C00E942C0D8F2D0E94F405D2
:100DB00090CF013009F48DCF8F2D0E94F4050E9451
:100DC0002C0D87CF112329F0063008F082CF8F2D0C
:100DD000DDCF053008F07DCFE8CF002331F3D933E4
:100DE00049F4FFEF27EE33E0F15020403040E1F7C7
:100DF00000C000008D2F0E9499056BCF8C2F869527
:100E00008695837069F0813009F063CF8D2F9C2F18
:100E10009370111102C080E090E00E948C1B59CFAA
:100E20008D2F9C2F9370111102C080E090E00E94E2
:100E3000671B4FCF612F8D2F0E9414054ACF8C2F37
:100E40008370A1F5111145CF4D2F429546954770FE
:100E5000440F440F2D2F2F7030E0042E02C0220FBC
:100E6000331F0A94E2F790E080E0D4FF09C08FE0DE
:100E700090E002C0880F991F4A95E2F780959095FF
:100E8000C695C695C370822B932BC23049F058F497
:100E9000C13019F00E94B6081CCF0E94AD0819CFCE
:100EA0000E94BF0816CF0E94AA0813CF869511236F
:100EB00011F08C2F8170882309F40BCF4D2F4295B0
:100EC00046954770440F440F2D2F2F7030E0042EAD
:100ED00002C0220F331F0A94E2F790E080E0D4FFB3
:100EE00009C08FE090E002C0880F991F4A95E2F791
:100EF00080959095C695C695C370822B932BC23072
:100F000049F058F4C13019F00E942109E2CE0E9444
:100F10001809DFCE0E942A09DCCE0E94CE08D9CE65
:100F2000CF70112329F08C2F0E94E6088D2F2ECF31
:100F30008D2F0E94F4058C2F0E94F608CACED23F56
:100F400041F160F4D03FB9F0D13F81F0112309F4B1
:100F500046C00111A4CE8C2F8F711FC0D33F01F169
:100F6000D43FA1F78091A20282FD24C08C2F8F7103
:100F7000112311F312C0112341F0053008F0A9CE5E
:100F80008C2F8F710E940809A4CE063008F0A1CEE4
:100F9000F7CF8C2F8F711111CFCF0E94E60899CE19
:100FA000112329F08C2F8F710E94DA0892CE0E94B3
:100FB000D5088FCE112349F0CF718C2F0E94E608FF
:100FC00063E08C2F0E947B0D84CE81E00E94990DFE
:100FD000023008F47ECE82E00E94990D7ACE002382
:100FE00059F0D93309F006CF8FEF97EEE3E0815047
:100FF0009040E040E1F7FCCE8C2F8F719DCF0F9396
:101000001F93CF93DF93EC01688179818A810E94DD
:10101000E0098C010E9433090E94A908B801CE01A1
:101020000E94FB05DF91CF911F910F910895CF93FF
:10103000DF93EC018B819C81892B29F08881998138
:1010400089238F3F51F4DF91CF910895CE010E9403
:10105000FF07CE010E94C803F6CFCE010E94ED0328
:101060008111F4CF0E94EE0C882369F38A818823D2
:1010700051F38091A20282FFE6CF82E00E94990D97
:10108000E2CF90E080E00E94671B90E080E00E9449
:101090008C1B0E94150D0E94360D0E94B4140E94F4
:1010A000161408950E94DD0C0E94410808950E94C4
:1010B000050D0E945208089592959F70963091F008
:1010C00058F4925F9F70923058F4803F19F030F4DA
:1010D000883E30F481E008959A5FF4CF843FD1F3E5
:1010E00080E00895883EB0F3813FD1F7F3CFFC0153
:1010F00083819481892B29F08081918189238F3F7D
:1011000011F480E00895808191810E94D5090E94A8
:101110005C080895A5E0B0E0E0E9F8E00C944F2504
:101120002596E2E00C946B25A6E0B0E0EAE9F8E051
:101130000C944F252696E2E00C946B2508950E94AE
:101140009E0808950E949F089093A7018093A6018E
:10115000089508950E94A20808952091A601309153
:10116000A701822B932B0E94A20808952091A6012B
:101170003091A701822393230E94A2080895209111
:10118000A6013091A701822793270E94A208089503
:101190000E949E0808950E94C80808950E94CB08E6
:1011A0009093A5018093A401089590E080E00E94AF
:1011B000CE08089521E030E0A90102C0440F551F78
:1011C0008A95E2F7CA010E94CE08089521E030E036
:1011D00002C0220F331F8A95E2F78091A4019091FB
:1011E000A501822B932B0E94CE08089521E030E0C8
:1011F00002C0220F331F8A95E2F720953095809127
:10120000A4019091A501822393230E94CE08089502
:1012100021E030E002C0220F331F8A95E2F780916F
:10122000A4019091A501822793270E94CE080895DA
:101230002091A4013091A501822B932B0E94CE080E
:1012400008952091A4013091A501822393230E9447
:10125000CE0808952091A4013091A50182279327FB
:101260000E94CE0808950895262F277091E001C0AE
:10127000990F2A95EAF723E0769567952A95E1F785
:10128000660F771F660F771FFA01E60FF71F50E012
:1012900040E0682F70E08191DF0111979B01042EDF
:1012A00002C0369527950A94E2F7217021952827E8
:1012B000292328272C934F5F5F4F4430510559F75E
:1012C0000895A82FA77023E0969587952A95E1F7B2
:1012D000880F991F880F991FFB01E80FF91F50E035
:1012E00040E080E0219130E00A2E02C0369527953B
:1012F0000A94E2F721703327042E01C0220F0A94CA
:10130000EAF7822B4F5F5F4F4430510559F708953C
:10131000262F911109C0843038F4682F70E040EA1C
:1013200051E0822F0E943409089591110AC084303F
:1013300030F460EA71E090E00E946109982F892FF3
:10134000089590E0FCCFB0E0A0E0E9EAF9E00C9469
:1013500048257C010091A4011091A5018091A6016E
:101360009091A701082B192BCFE0D0E0CC24C39497
:10137000D12CBC2EC6010C2E02C0880F991F0A94D6
:10138000E2F780239123892B49F4219790F7B12C20
:101390008B2DCDB7DEB7E9E00C946425B7018C2F17
:1013A0000E947A10019789F3F3CFCF93DF93EC017A
:1013B0000E94A309BE010E947A10DF91CF91089587
:1013C0001F93CF93DF93EB0190919F01992339F005
:1013D000CB010E94D509DF91CF911F9108958823F9
:1013E00069F0CB010E94A309182F682FCE010E943B
:1013F0008809BE01812F0E947A10EDCFCB010E9497
:101400009509182FF6CF1F93CF93DF93C091A801B2
:1014100016E08091A9018C1304C0DF91CF911F9138
:101420000895D0E01C9FF0011D9FF00D1124E6559A
:10143000FE4F4081518162817381848195810E9438
:1014400094082196C770E5CF4091DA015091DB01F5
:101450006091DC017091DD018091DE019091DF01EE
:101460000E94940808952091A8019091A90156E046
:10147000291302C080E0089530E0529FF001539F8D
:10148000F00D1124E655FE4F7181761306C0708170
:10149000781303C07281741304C02F5F3F4F27700D
:1014A000E7CF81E008951F93CF93DF938091DF0111
:1014B000807F09F04BC08091DC01882309F446C08D
:1014C0008091A801C091A9014091DA015091DB01FE
:1014D0006091DD017091DE01D42FD52316E0C8178D
:1014E000A9F190E061157105A9F1DF3F99F1189F0D
:1014F000F001199FF00D1124DF01A655BE4F119682
:101500002C911197251326C02C91241323C01296D9
:101510002C91129721111EC013962D913C91261BE0
:10152000370B283C3105B0F48091DF018F7080616A
:101530008093DF01E155FE4F80818F708061808351
:101540008AED91E00E9417080E94030ADF91CF9173
:101550001F91089501968770C2CFA1E1B0E0E3EB3F
:10156000FAE00C9445258C0185E0F801DE011D961A
:1015700001900D928A95E1F7F801F2808AEDA82E8C
:1015800081E0B82E4091DD015091DE0141155105F9
:1015900009F45AC19091DA012091DB01892F82234D
:1015A0008F3F09F451C1C080D18083809480E09046
:1015B000DC01B401641B750BEE2009F4F6C08091C8
:1015C000DF01382F307F683C710508F0AFC0311162
:1015D0007AC0EF2C2D1116C09C1114C0F11012C04E
:1015E0008F7080618093DF010E94240AC5010E94F0
:1015F00017088091DF01F80185838E2D6196ECE05C
:101600000C94612581149104C9F18C2D8D218F3F9B
:10161000A9F181E08F2580FF05C04F2D6D2D8C2D08
:101620000E94330A8114910459F18C2D8D218F3F32
:1016300039F181E08F25F82FF170BF2E80FF39C07E
:101640004F2D6D2D8C2D0E94330AA82E811131C093
:10165000CD86DE868D859E850E94D509292F22950F
:101660002F70243078F49F702230A8F09923B9F0BD
:10167000F8019581907F99F4EA2CBFCF80E0CBCF21
:1016800080E0D9CF2A5F2F70223068F0C8010E9415
:101690001708AB2CF1CF992311F0882369F3805EF2
:1016A000883050F3F3CF803F38F3815F833070F799
:1016B000E3CFFF2009F4A1CF8091DF018160809307
:1016C000DF01E12C9ACF2D1105C09C1103C0FF2032
:1016D00009F486C0C8010E947708882319F1FF2009
:1016E00009F18091DF01803270F02091DA013091B0
:1016F000DB0138872F8319869B868A868C87CE01EB
:1017000007960E94170886E0F801AAEDB1E0019063
:101710000D928A95E1F70E94530A0E94240AEE2452
:10172000E3946BCFC8010E941708F9CF311114C0A0
:10173000782D998A888AA6016F2D89890E948A0846
:101740008AED91E00E94170886E0F50111928A95D2
:10175000E9F70E94240AB5CF2D110EC09C110CC0D0
:10176000F1100AC08583C8010E94170886E0F501C0
:1017700011928A95E9F741CFC8010E947708882322
:1017800089F2FF2079F28091DF01803208F4BBCF2B
:101790002091DA013091DB013A8329831B829D82FB
:1017A0008C828E83CE010196ACCF683C710508F027
:1017B0003DC0EF2CFF2009F4B5CF2D1129C09C119D
:1017C00027C08091DF0180FD1AC0982F907FB9F06B
:1017D0008583903F31F0982F907F905F8F70892B99
:1017E0008583C8010E94170886E0F801AAEDB1E0E0
:1017F00001900D928A95E1F70E94240AFECE86E0C0
:10180000F801AAEDB1E001900D928A95E1F7F5CECD
:10181000C8010E947708811176CF8091DF01816035
:101820008093DF01C8010E941708E7CE782D998ABE
:10183000888AA6016F2D89890E948A0886E0F501B1
:1018400011928A95E9F7D8CFFF2009F46BCFC80130
:101850000E947708E82E882309F464CF86E0F80117
:10186000AAEDB1E001900D928A95E1F78AED91E041
:101870000E940E050E94530ABFCFACE0B0E0E3E443
:10188000FCE00C944E254F83588769877A878B87B5
:101890009C87CE0107960E94AD0A8823B1F08A8505
:1018A0009B85892B39F04F815885842F85238F3F65
:1018B00009F06CC016E08091A8019091A9018913EC
:1018C00043C02C96E3E00C946A2586E0FE0137962F
:1018D000DE01119601900D928A95E1F78A859B852C
:1018E000892B41F38F81988589238F3F19F32091AC
:1018F000A90130E0C9010196877099274091A8019C
:101900004817190671F40E9457081092A901109205
:10191000A80186E0EAEDF1E0DF011D928A95E9F782
:10192000C9CF96E0929FD001939FB00D1124A65588
:10193000BE4FFE01319601900D929A95E1F780938A
:10194000A9010E94030AB6CF819FC00111248655C8
:101950009E4F0E94AD0A882309F4B3CFE091A801FD
:101960001E9FF0011124E655FE4F40815181628196
:101970007381848195810E9494088091A80190E0F0
:101980000196877099278093A80195CF69857A85FC
:101990008B859C850E9494088DCF682F80910001D3
:1019A000909101010E94671C0895682F80910001A9
:1019B000909101010E94751C089580910001909101
:1019C00001010E94831C08958091000285958595F0
:1019D0008595089580910002877008959091000286
:1019E000977081E009F480E00895809123020895C2
:1019F00090912302892B80932302089580959091E2
:101A000023029823909323020895109223020895AD
:101A100090912202892B80932202089580959091C3
:101A20002202982390932202089510922202089590
:101A300080910102089508950E941B0D08959091D0
:101A4000A20292FF08C090910102981721F08093A2
:101A500001020E941C0D089580910102882329F043
:101A60001092010280E00E941C0D0895CF93DF9335
:101A7000E0910001F0910101809123028083E091C7
:101A80000001F0910101808190912202892B8083D5
:101A900090910102992381F0E0910001F091010100
:101AA0008081892B808380910001909101010E94A7
:101AB000B11B81110E942C0DC0910001D091010138
:101AC00040E250E060EE71E0CE010E948A25892B51
:101AD00059F080E2FE01A0EEB1E001900D928A95EE
:101AE000E1F7CE010E94061BDF91CF910895089582
:101AF0000E94770D08959091A20292FF11C098E084
:101B0000899F90011124622B609300020E94E608D5
:101B1000809100028595859585950E94780D0895A0
:101B20000E94E60808951092000280E00E94780D5D
:101B30000895909100028095892380930002282FB8
:101B4000277091F4282F082E000C330B92171306E0
:101B500059F09091A20292FF07C0859585958595D1
:101B60000E94F6080E94930D0895CF93C82F80918C
:101B7000A20282FB992790F99C17E9F0C0FB82F939
:101B80008093A2028091A1029091A2020E94100E65
:101B900082E00E94990D80912F0280FF0CC01F925D
:101BA000CF9389EE90E09F938F930E9469030F90EB
:101BB0000F900F900F90CF9108958091A20282FB19
:101BC000882780F991E089270E94B50D089581E06A
:101BD0000E94B50D089580E00E94B50D08956FEF45
:101BE0007FEF90E080E00E94CC25089590E080E0B7
:101BF0000E94A82521E0873E9E4F09F020E0822F19
:101C0000089582E090E00E94A025089583E090E08E
:101C10000E94A025089584E090E00E94A8250895E0
:101C2000BC0184E090E00E94CC250895AB01BC018A
:101C30008FE090E00E94C0250895AB01BC0183E1D4
:101C400090E00E94C025089560E070E0CB010E9402
:101C50001D0E089560E070E0CB010E94160E0E94F8
:101C6000240E089567EE7EEF90E080E00E94CC2580
:101C700060E082E090E00E94AE2560E083E090E0CA
:101C80000E94AE251092A7011092A60160E074E1B7
:101C900084E090E00E94CC2560E086E090E00E9425
:101CA000AE256FEF87E090E00E94AE2540E050E067
:101CB000BA0188E090E00E94C02560E08DE090E0ED
:101CC0000E94AE2540E050E0BA0188E190E00E9419
:101CD000C02560E087E190E00E94AE2540E050E042
:101CE000BA018CE190E00E94C02570E060E080E2E3
:101CF00090E00E94CC2540E050E0BA0188E190E0FD
:101D00000E94C0250E942A0E08950E94320E089556
:101D1000682F8EE090E00E94AE250895A5E0B0E027
:101D2000E4E9FEE00C944D250E943F1D8C0180915A
:101D300024029091250280179107A1F08FEF8983EB
:101D40008A831B820E943F1D8160782F9D838C8334
:101D500049815A816B818D810E94D904109325029B
:101D6000009324022596E4E00C9469250E944B1D03
:101D700060932B0270932C0280932D0290932E027D
:101D800060932702709328028093290290932A027D
:101D90000895089508950E94CA0E089508950E9416
:101DA000CE0E089581E0089581E79FE10E94EF1A29
:101DB0000E94C90E0E94CB0E08950E94D20E089573
:101DC0000E94DD0E0895089508950E94E30E0E947A
:101DD000E40E08950E9481110E948B0408950E94D0
:101DE000361D0E9442120E94EA0E0E94F8170E94BD
:101DF000CF0E0895A5E0B0E0E0E0FFE00C944A25A6
:101E00000E94D20E81110CC00E948E0E0E94D61428
:101E10000E94B0160E949E042596E7E00C94662569
:101E20000E944E121091260280E00E94A7111817FE
:101E300059F380912F0281FD0E94AD110E94E00EA6
:101E4000D82E80E00E94A711182F80912602181723
:101E500021F1E12EE82600E0FF24F3948E2D8F215E
:101E6000B1F0DD20A1F009831A8291E0812F8F214A
:101E700009F490E09B830E943F1D8160782F9D8331
:101E80008C8349815A816B818D810E94D9040F5FB7
:101E9000FF0C043019F7109326020E94B60EB6CF3D
:101EA0001F93CF93DF930E947F10EC01C11580E553
:101EB000D807F0F5C11580E4D80708F09CC0C03EF3
:101EC000D10520F5CD3CD10508F082C0C83AD10536
:101ED00078F4C53AD10508F073C0C130D10519F1C5
:101EE000209709F1C430D105F0F4D0E0C0E01BC068
:101EF000C33CD105D0F7C85AD0E0CC0FDD1FC45B7E
:101F0000DE4F0990D881C02DD4640DC0C11580E288
:101F1000D80708F0D1C0C11581E0D80708F05AC031
:101F2000C83ED10510F7CE01DF91CF911F910895E2
:101F3000C03682E5D80718F5C03482E5D80708F026
:101F40006BC0C03282E5D80708F05FC0C11582E5DA
:101F5000D80708F497C02C2F2695269580E2289F55
:101F6000900111248C2F8370C1E0D0E002C0CC0F0F
:101F7000DD1F8A95E2F7C22BD32BDD68D4CFC03AA0
:101F800082E5D80760F4C03882E5D80708F459C064
:101F9000CF71D0E0DC2FCC27C46FD06AC4CFC03C57
:101FA00082E5D80708F462C0C03E82E5D80708F091
:101FB0009CCFDC2FCC27CC27DF71C06FD06AB3CF8A
:101FC000C55AD0E0CE57DE4FC881D0E0D064ABCF49
:101FD000D065A9CF8D2F0E942111182FCE019927EE
:101FE0000E947F10C12FD0E0DC2FCC27CC27DF71DF
:101FF000C82BD92B98CFCE0199270E947F10CC27D0
:10200000DF70C82BD92BD06A8ECFCF71D0E0DC2FF8
:10201000CC27C16FD06A87CF2C2F269526952770A5
:1020200080E2289F900111248C2F8370C1E0D0E0C2
:1020300002C0CC0FDD1F8A95E2F7C22BD32BDC68E0
:1020400072CF2C2F26952695277080E2289F90012D
:1020500011248C2F8370C1E0D0E002C0CC0FDD1FB3
:102060008A95E2F7C22BD32BDA685DCF8C2F8F7164
:102070000E942111C82FD0E0DC2FCC27CC27DF71A4
:10208000D06251CF8C2F8F710E94211155E0D695CF
:10209000C7955A95E1F7CF70D0E0DC2FCC27282FD9
:1020A00030E084FF05C044E0220F331F4A95E1F77A
:1020B000C22BD32BD06937CF8D2F8F710E94211166
:1020C000182FCE0199270E947F10C12FD0E0DC2F5E
:1020D000CC27CC27DF71C82BD92BD2CF462F71113B
:1020E00006C0643020F460E00E948203089590E00E
:1020F00080E008950E946E100E94500F089582386B
:102100009105B9F1B0F48133910509F47DC048F42B
:102110008932910509F46DC08A32910509F47BC0BA
:1021200008958533910509F45FC08933910509F15C
:102130000895833E9105D9F138F4803E910529F147
:10214000823E910579F10895863E9105D9F1873E49
:10215000910509F43EC0843E910541F52091A2020B
:1021600021FF24C08091A10284FD19C087EE90E078
:1021700008952091A102237009F05AC02091A20273
:1021800023FF14C089E290E008952091A10220FD70
:1021900038C03091A20230FF09C024FF43C090E054
:1021A00080E008952091A10222FDF7CF08952091AB
:1021B000A10222FD3AC03091A20230FD39C024FFB5
:1021C000F5CFEDCF2091A10223FFF0CF24FDE7CF83
:1021D000CDCF2091A10223FD2EC03091A20231FF6C
:1021E000EECF84EE90E008952091A10225FFDECF8E
:1021F000C9CF2091A10225FD21C02091A20223FF79
:10220000D5CF89E390E0D2CF2091A10226FFCECF97
:102210008AE290E008952091A10226FFC7CF81E3D2
:1022200090E0089583EE90E0089582EE90E00895A6
:1022300080EE90E0089586EE90E0089585E390E0CA
:1022400008959091A10292FF06C0282F287128308E
:10225000F9F4877F846093FF06C0282F2871283106
:10226000F1F4877E84612091A20220FF06C0382FFE
:1022700038713830D9F4877F816021FF06C0282F5C
:1022800028712831D1F4877E816194FD877E08957D
:10229000282F24712430F9F68B7F8860DCCF282F1B
:1022A0002471243101F78B7E8861DDCF382F3171A5
:1022B000313019F78E7F8860E0CF282F21712131CE
:1022C00021F78E7E8861E1CF0E94EF0D08950E9474
:1022D0004E122FEF86E791E0215080409040E1F7C9
:1022E00000C000000E944E1280E00E94A71180FFF3
:1022F00004C00E9464110E948A1D08950E94671103
:1023000008950E94F60D811102C00E94850E0E9460
:10231000010E80932F020E940B0E9093A2028093D5
:10232000A1020E947E110E94060E90E00E94AA085F
:102330008091A4019091A5010E94CB080895089571
:102340000E949F11089508950E94A3110895E82FF7
:10235000F0E0EC55FD4F808108958DE091E00E9402
:10236000D0021F921F9288E091E09F938F930E946A
:10237000690385E091E00E94D0028091A4020E944E
:1023800060041F928F9380E091E09F938F930E944F
:1023900069038EEF90E00E94D0028DB79EB7089639
:1023A0000FB6F8949EBF0FBE8DBF089580EA8A9540
:1023B000F1F7089500C008950E94D6110895F89489
:1023C000E82FE295EF70F0E031A1282F2F7081E027
:1023D00090E001C0880F2A95EAF7982F90959323F3
:1023E00091A392A1892B82A37894089582E30E94FD
:1023F000DF1180EF0E94DF1181EF0E94DF1180E387
:102400000E94DF1181E30E94DF1108950F931F9353
:10241000CF93DF938C01C62FF894229A2A98789450
:102420000E94DA11E5E8F1E081E0D0E091919F3F70
:1024300079F0A92FA295AF70B0E090962C9130E082
:102440009F7002C0359527959A95E2F7982F20FD49
:1024500090E0D92B880F91E0E938F90739F782E34A
:102460000E94DF1161E0D11101C060E08C2F0E9459
:10247000DC11F801EC0FF11DD083DF91CF911F919A
:102480000F9108950E94F6111092A4021092A302D7
:1024900081E00E9473120E94A0110895A1E0B0E0B3
:1024A000E4E5F2E10C944E25198260E0CE0101963C
:1024B0000E9406129091A302898121E0981301C025
:1024C00020E098138093A30241E064EA72E083EA7B
:1024D00092E00E947412182F0E94A411812F21965D
:1024E000E3E00C946A250895CF92DF92EF92FF9279
:1024F0000F931F93CF936C017B01042F222349F08C
:1025000081E0809332020E943F1D909331028093BC
:102510003002C0913202C1110AC0C0E08C2FCF91AD
:102520001F910F91FF90EF90DF90CF9008958091D1
:102530003002909131020E94571D059770F310E010
:10254000A801B601C7010E948A25892B41F0A80184
:10255000B601C7010E94972510923202DFCFC0E07A
:10256000FBCF0E94ED1F0E94EF0E0E94FA1F0895FC
:102570000E94FF1F0E94FA0E0E941D2008950E94D3
:10258000D81C0E94D31F0E94D40E0E94B1120E9438
:10259000B8120E94E50EFBCF8091390280FF0DC07A
:1025A0006091070170E0660F771F6038710570F564
:1025B0006115710569F1862F089581FF07C060914B
:1025C000070184E0689FB0011124EFCF60910701FB
:1025D00082FD0AC0809138028823A9F0209106016B
:1025E00060910701821710F088E0ECCF869FC00150
:1025F000112433E0880F991F3A95E1F7622F70E0BC
:102600000E942525D2CF68E070E0D5CF8FE70895EE
:1026100081E008958091390280FF0CC06091030130
:1026200070E075956795759567956115710549F128
:10263000862F089581FF06C06091030170E07595B3
:102640006795F3CF6091030182FD0BC09091370233
:102650009923A1F06091020180910301961738F04F
:10266000682F70E06038710500F38FE70895899F47
:10267000C001112470E00E942525F4CF61E070E0D4
:10268000D7CF81E008958D3C31F40E94CC12819522
:1026900080933D0208958E3C19F40E94CC12F8CF2D
:1026A0008F3C31F40E94CC12819580933C020895B6
:1026B000803D19F40E94CC12F8CF893D29F40E9484
:1026C0000A1380933E0208958A3D21F40E940A1362
:1026D0008195F7CF8B3D31F40E940A138195809349
:1026E0003F0208958C3D19F40E940A13F8CF9FE22F
:1026F000980F983070F4815D990B21E030E001C0B3
:10270000220F8A95EAF780913B02822B80933B024D
:1027100008958D3D31F480913902816080933902B2
:1027200008958E3D21F4809139028260F7CF8F3D6C
:10273000B9F7809139028460F1CF40913C028D3C21
:1027400059F480913D0287FF0DC010923D02411166
:102750000BC01092380208C08E3C81F480913D027B
:1027600018169CF3442381F080913E0290913F0221
:10277000892B09F05AC01092370208958F3C49F412
:1027800047FFF0CF10923C0280913D028111ECCFC7
:10279000E0CF803D19F41416ACF3E4CF90913E02E3
:1027A000893D29F41916F4F610923E02DBCF8A3DDA
:1027B00019F497FFD7CFF8CF90913F028B3D29F4C2
:1027C00097FFD0CF10923F02CDCF8C3D19F4191650
:1027D000CCF3C8CF9FE2980F983090F4815D990BAD
:1027E00021E030E0B90102C0660F771F8A95E2F759
:1027F000CB01809590913B02892380933B02B2CF1D
:102800008D3D31F4809139028E7F80933902AACFB9
:102810008E3D21F4809139028D7FF7CF8F3D09F0F5
:10282000A1CF809139028B7FF0CF089580912F0244
:1028300083FF7EC083E491E00E94D00280913B023E
:102840001F928F938EE391E09F938F930E94690371
:102850008CE391E00E94D00280913C02282F082E48
:10286000000C330B3F938F9389E391E09F938F93F9
:102870000E94690387E391E00E94D00280913D02AB
:10288000282F082E000C330B3F938F9384E391E0A5
:102890009F938F930E94690382E391E00E94D0028C
:1028A00080913E02282F082E000C330B3F938F930C
:1028B0008FE291E09F938F930E9469038DE291E0F4
:1028C0000E94D00280913F02282F082E000C330B6B
:1028D0003F938F938AE291E09F938F930E946903C5
:1028E00087E291E00E94D002809138021F928F937C
:1028F00084E291E09F938F930E94690382E291E0CA
:102900000E94D002809139021F928F938FE191E053
:102910009F938F930E9469038CE191E00E94D00203
:102920008DB79EB74C960FB6F8949EBF0FBE8DBF65
:102930000E943F1D9C0190913C0280913D02982B8A
:1029400021F0309336022093350290913E0280911F
:102950003F02982B21F030933402209333028AE314
:1029600092E00E94591B089586E0EAE3F2E0DF015D
:102970001D928A95E9F71092380210923702109250
:1029800039020895FC01828181110EC08381811179
:102990000BC08481811108C091E08581811101C043
:1029A00090E0892F8170089581E0FCCFA6E0B0E02F
:1029B000ECEDF4E10C944E2586E0EAE3F2E0DE0172
:1029C000119601900D928A95E1F710923C021092B7
:1029D0003D0210923E0210923F028B819C81892B16
:1029E00089F080913502909136020E94571DAC010A
:1029F000909138029923C9F1809108018417150636
:102A000008F440C08D819E81892B91F08091330222
:102A1000909134020E94571DAC0190913702992386
:102A200009F471C0809104018417150608F479C077
:102A3000BE016F5F7F4F8AE392E00E94951C811177
:102A400005C08AE392E00E94C21481110E9416140C
:102A500086E0FE013196AAE3B2E001900D928A95DC
:102A6000E1F72696E3E00C946A25209109018AE0BB
:102A7000289F900111242417350720F69F5F90931B
:102A8000380202C09F3FD1F71B81112359F00E94E9
:102A9000CC129FEF11160CF491E0899F802D112428
:102AA00080933C021C81112359F00E94CC129FEFAD
:102AB00011160CF491E0899F802D112480933D0222
:102AC00030913C02332309F49DCF20913D02222313
:102AD00009F498CF45EB3403C0011124992359F030
:102AE00090933C0245EB240390011124332339F0E9
:102AF00030933D0287CF81E080933C02F3CF81E0A9
:102B000080933D027FCF209105018AE0289F9001AC
:102B100011242417350708F08BCF9F5F909337025D
:102B200002C09F3FD1F71D81112359F00E940A1363
:102B30009FEF11160CF491E0899F802D1124809352
:102B40003E021E81112359F00E940A139FEF1116B5
:102B50000CF491E0899F802D112480933F023091E5
:102B60003E02332309F464CF20913F02222309F46B
:102B70005FCF45EB3403C0011124992359F09093A2
:102B80003E0245EB240390011124332339F03093A6
:102B90003F024ECF81E080933E02F3CF81E08093ED
:102BA0003F0246CFCF93DF93EC01FB018281882364
:102BB00009F4D2C09E0130572332310508F0B2C06B
:102BC0000E940B0E9093A2028093A102FE01E1509D
:102BD000F047E232F10520F4E051FA4D0C9439252A
:102BE0008091A10281608093A10293C08091A20292
:102BF00088608093A2028DC08091A1028260F3CF91
:102C00008091A1028460EFCF8091A1028860EBCF18
:102C10008091A2028160EDCF8091A2028260E9CF13
:102C20008091A1028061DFCF8091A1028062DBCF21
:102C30008091A1028064D7CF0E9457088091A102A1
:102C40008068D1CF8091A1028C60CDCF8091A2020B
:102C50008360CFCF8091A1028E7FC5CF8091A202E9
:102C6000877FC7CF8091A1028D7FBDCF8091A102C8
:102C70008B7FB9CF8091A102877FB5CF8091A202CF
:102C80008E7FB7CF8091A2028D7FB3CF8091A102BA
:102C90008F7EA9CF8091A1028F7DA5CF8091A102C7
:102CA0008F7BA1CF0E9457088091A1028F779BCF85
:102CB0008091A102837F97CF8091A2028C7F99CFD0
:102CC0008091A10282FB992790F921E0922790FB45
:102CD00082F990FB83F987CF8091A202982F90957B
:102CE00091708E7F892B90FB81F983CF9091A10207
:102CF000892F8F7B96FF806476CF0E945708909132
:102D0000A102892F97FB87F980586DCF81E00E943F
:102D1000880E8091A1029091A2020E94100E0E9442
:102D2000570880E0DF91CF91089580E0F0CF909137
:102D3000A102892F8F7E94FF806155CF9091A102CF
:102D4000892F8E7F90FF81604ECF9091A202892FB4
:102D5000877F93FF88604DCF81E0E4CF0895089589
:102D60000E943219882309F489C00E943E19809379
:102D700045020E943E19809346020E943E198093AC
:102D800047022091450280919F02282B9091460294
:102D9000809147023091430232273770492F482BE8
:102DA00050914802452B342B09F45DC02093430217
:102DB000322F307424FF6BC0311103C0903809F0FA
:102DC00097FF91E825FF69C027FD03C0803809F00F
:102DD00087FF81E8322F37703093450291959093A9
:102DE00046028195809347028091420222FF5BC098
:102DF000811109C00E943F1D9093410280934002BF
:102E000081E0809342029091460280914702292FEF
:102E1000282B99F022E02093420287FD8F5F859551
:102E2000819580934802892F97FD8F5F85958093C8
:102E300049021092460210924702809145028B7F10
:102E4000809345028091460290914702892B909190
:102E50004802892B21F084E492E00E94AF1684E4BA
:102E600092E00E94591B1092460210924702109263
:102E700048021092490210924502089580912F0253
:102E800083FF7FCF83E392E00E94D0027ACF31119B
:102E900002C097FF97CF9FE795CF27FD02C087FF1E
:102EA00099CF8FE797CF813001F5809140029091C3
:102EB00041020E94571D8C329140B8F48091450226
:102EC00084608093450284E492E00E94591B8FEF56
:102ED00091EE24E0815090402040E1F700C00000D6
:102EE000809145028B7F8093450210924202A5CFCC
:102EF000CF9385EF0E945119C82F80912F0283FF35
:102F00001BC082E192E00E94D00280916D021F926C
:102F10008F931F92CF931F9285EF8F938CEE91E04A
:102F20009F938F930E9469038DB79EB708960FB643
:102F3000F8949EBF0FBE8DBFCF910895CF9384EFBD
:102F40000E945119C82F80912F0283FF1BC08CEC67
:102F500091E00E94D00280916D021F928F931F9288
:102F6000CF931F9284EF8F9386EA91E09F938F9384
:102F70000E9469038DB79EB708960FB6F8949EBF5E
:102F80000FBE8DBFCF910895CF9380914A028111DA
:102F900002C00E9478178AEE0E945119C82F8091B2
:102FA0002F0283FF1BC08CE891E00E94D002809129
:102FB0006D021F928F931F92CF931F928AEE8F9371
:102FC00086E691E09F938F930E9469038DB79EB729
:102FD00008960FB6F8949EBF0FBE8DBF80914A022F
:102FE000811102C00E949E1710924A02CF9108954B
:102FF000CF930E94C9182FEF83ED90E321508040BA
:103000009040E1F700C000008FEF0E945119C82FD7
:1030100080912F0283FF1BC084EE92E00E94D002B9
:1030200080916D021F928F931F92CF931F928FEF0B
:103030008F938EEB92E09F938F930E9469038DB7DD
:103040009EB708960FB6F8949EBF0FBE8DBF0E9424
:103050003E19C82F80912F0283FF16C085EA92E0A7
:103060000E94D00280916D021F928F931F92CF9386
:103070008CE892E09F938F930E9469030F900F90CA
:103080000F900F900F900F900E943E19C82F8091C3
:103090002F0283FF16C081E792E00E94D002809148
:1030A0006D021F928F931F92CF9388E592E09F93BA
:1030B0008F930E9469030F900F900F900F900F90C5
:1030C0000F900E949E170E94C4170E94AE16CF91C7
:1030D00008955D98559A089555985D9A0895559864
:1030E0005D9A85E08A95F1F7000089B185FB882714
:1030F00080F908955A98529A089552985A9A0895C4
:1031000052985A9A85E08A95F1F7000089B182FBBE
:10311000882780F908959FB7F89420914B028091F9
:103120004C02821769F030E0F901E35BFD4F8081CA
:103130002F5F3F4F2F71332720934B029FBF08957E
:1031400080E0FCCFCF93DF93EC010E946F188823BF
:1031500011F0209721F4CE01DF91CF91089585E001
:103160008A95F1F700002197F0CFCF93DF93C2E368
:10317000D0E00E946F18811102C0209721F4CE0187
:10318000DF91CF91089585E08A95F1F700002197AE
:10319000F0CF0E946C180E947D185D985A9886E7BF
:1031A0008093CA001092C8001092CD001092CC00FB
:1031B00080E98093C90008951F920F920FB60F9275
:1031C00011242F933F934F935F936F937F938F932C
:1031D0009F93AF93BF93CF93EF93FF938091C800DA
:1031E0008C714091CE0081112CC0CFB7F8948091A2
:1031F0004C0290E09C012F5F3F4F2F71332750917D
:103200004B025217C9F0835B9D4FFC014083209312
:103210004C02CFBFFF91EF91CF91BF91AF919F91A2
:103220008F917F916F915F914F913F912F910F906F
:103230000FBE0F901F90189582E093E00E94D0027D
:10324000E8CF1F924F931F928F938EE093E09F934E
:103250008F930E9469030F900F900F900F900F9023
:103260000F90D8CF9FB7F89481E030914C02209115
:103270004B02321301C080E09FBF0895CF93CAE193
:10328000C15021F40E948B18CF9108950E943219E9
:103290008111F8CF8FE99FE00197F1F700C000009E
:1032A000EFCFEF92FF920F931F93CF93DF93E82E10
:1032B00010926D021092CA008091C900877E80939F
:1032C000C9000E9469180E947D188FE891E001975B
:1032D000F1F700C000000E947A180E946C1880E18B
:1032E00097E20E94A218892BD9F48AE080936D029C
:1032F0000E946C180E947D185D985A9886E780930A
:10330000CA001092C8001092CD001092CC0080E943
:103310008093C90080E0CDB7DEB7E6E00C94672566
:10332000D0E0C0E011E0F12C01E090E59A95F1F7D2
:10333000C7010C2E02C0959587950A94E2F780FF8D
:1033400009C010270E947D180E94B518892B29F406
:1033500082E0CCCF0E947A18F7CF82E390E00E94FF
:10336000A218892B11F483E0C1CF2196C830D10572
:10337000E1F680E58A95F1F7112341F00E947D186E
:103380000E94B518892B29F484E0B0CF0E947A18E6
:10339000F7CF82E390E00E94A218892B11F485E018
:1033A000A5CF90E59A95F1F70E947D18C2E3D0E091
:1033B0000E948018882351F0209711F486E096CF60
:1033C00025E02A95F1F700002197F2CFCD2BB1F33C
:1033D00082E390E00E94A218892B11F487E086CF47
:1033E0000E94B518892B79F488E080CF85E08A9512
:1033F000F1F7000021970E948018811107C02097E3
:10340000A9F789E073CFC2E3D0E0F5CFCD2BC9F3A4
:103410000E946C180E947D185D985A9886E78093E8
:10342000CA001092C8001092CD001092CC0080E922
:103430008093C9000E943E196ECFCF93DF93EB01BA
:1034400086319C4711F50E94F50C9A81992399F0D9
:103450008A7A91E009F490E090936E02811109C09C
:1034600089E20E94CD0C0E94360D80E0DF91CF9161
:10347000089585E3F6CF80916E02811104C089E240
:103480000E94D50CF0CF85E3FBCF81E0EFCF0F9307
:103490001F93CF93DF93C42FD22FFC018281882307
:1034A000C9F0409371020E943F1D90937002809377
:1034B0006F0280E28C0F883040F4C77081E001C059
:1034C000880FCA95EAF70E94ED05DF91CF911F9111
:1034D0000F91089510917102141332C080916F0200
:1034E000909170020E94571D883C910548F5C0E2FA
:1034F000CD0F1D17B9F080E2810F883040F41770AE
:1035000081E001C0880F1A95EAF70E94F405C830DF
:1035100048F481E09D2F977001C0880F9A95EAF7D3
:103520000E94ED05802F0E94E405C83070F6D77028
:1035300081E001C0880FDA95EAF70E94F405C5CF53
:1035400080E28C0F883008F6C77081E001C0880FD8
:10355000CA95EAF7F2CF0F93DB0188519C47873079
:103560009105A0F5FC01EE5EF94D0C94392506E2BB
:1035700021EE41EE6AE17CE7CD010E94471A80E02E
:103580000F91089507E225EE45EE6BE17CE7F4CF5D
:1035900006E221EE40EE68E17CE7EECF07E225EEA1
:1035A00044EE69E17CE7E8CF06E221EE42EE6CE111
:1035B0007CE7E2CF07E225EE46EE6DE17CE7DCCF6B
:1035C00008E221E045EE6EE17CE7D6CF12968C91C1
:1035D000882319F010927102D3CF81E0D1CF90935C
:1035E00099018093980108959093770280937602D1
:1035F0000895E0917602F0917702309729F00190DA
:10360000F081E02D0995089580E00895EF92FF92F2
:103610000F931F93CF93DF93EC01E0917602F0912B
:103620007702309709F440C080911201882341F05D
:103630008091A10287FF04C08881898386E0888306
:103640000280F381E02DCE01099580912F0282FF47
:103650002BC080FF04C088E393E00E94D00210E0FA
:1036600000E082E3E82E83E0F82E80912F0280FFB5
:103670000EC0FE01E00FF11F80811F928F93FF9219
:10368000EF920E9469030F900F900F900F900F5FC1
:103690001F4F0830110549F780912F0280FF04C0A9
:1036A00080E393E00E94D002CDB7DEB7E6E00C9451
:1036B0006725E0917602F0917702309739F022E0A9
:1036C000DC012C930480F581E02D09950895A3E099
:1036D000B0E0EDE6FBE10C944F25209174023091AF
:1036E000750228173907A1F0909375028093740230
:1036F000E0917602F0917702309751F023E0298330
:103700009B838A830680F781E02DCE01019609957F
:103710002396E2E00C946B25A3E0B0E0E2E9FBE144
:103720000C944F25209172023091730228173907AB
:10373000A1F09093730280937202E0917602F0916F
:103740007702309751F024E029839B838A83068097
:10375000F781E02DCE01019609952396E2E00C94C5
:103760006B25FC01329680911201882321F0809113
:10377000A1029EE187FF96E080E0915008F4089551
:1037800021912223D1F38F5FF8CF662301F120919D
:1037900012012223F1F02091A10227FF1AC0462F27
:1037A0004695469546954E3190F4677021E030E09D
:1037B00002C0220F331F6A95E2F7840F911DFC01AE
:1037C000828190E02823392381E0232B69F480E073
:1037D0000895FC01329608962191261721F0E817EA
:1037E000F907D1F7F4CF81E008959C01FC013296EE
:1037F0009FEF80E04191461751F09F3F19F441112E
:1038000001C0982F8F5F8630A9F79F3F09F4089574
:10381000290F311D97FD3A95F90162830895FC0146
:10382000329608962191261303C0DF0111971C924E
:10383000E817F907B9F70895E62FE695E695E695B6
:10384000EE3170F4E80FF92FF11D677021E030E0E0
:1038500001C0220F6A95EAF78281822B8283089544
:1038600080912F0280FF0CC01F926F9388E693E037
:103870009F938F930E9469030F900F900F900F906A
:103880000895E62FE695E695E695EE3178F4E80F93
:10389000F92FF11D677021E030E001C0220F6A9519
:1038A000EAF72095828128232283089580912F02B0
:1038B00080FF0CC01F926F938AE493E09F938F93D5
:1038C0000E9469030F900F900F900F900895209120
:1038D0001201222339F02091A10227FF03C00E9488
:1038E0001C1C08950E94F51B0895209112012223AB
:1038F00039F02091A10227FF03C00E94411C0895C6
:103900000E940F1C0895FC013296809112018823B9
:1039100051F08091A10287FF06C08EE1DF011D9268
:103920008A95E9F7089586E0F9CF46E050E00E94D5
:103930008A2521E0892B09F420E0822F089508953B
:103940000E949F1C0895811106C081E08093780237
:103950000E94A01C089582E0F9CF83E08093780252
:103960000E94A01C08950E94A31C089581E08093EA
:1039700078020E94A01C08950E94B61C0895089524
:1039800008950E94C01C0895089508950E94BF1CC8
:1039900008950E94C41C0E944E120E94C51C80E023
:1039A0000E94A71191E0811101C090E0892F089534
:1039B00085B7806885BF85B7806885BF08951F92E9
:1039C0001FB61F9211248F939F93AF93BF93809143
:1039D0007902811113C08091A5029091A602A09155
:1039E000A702B091A8024196A11DB11D8093A50226
:1039F0009093A602A093A702B093A802BF91AF91A3
:103A00009F918F911F901FBE1F9018958091AD02BE
:103A1000843031F10E9456041092790288E190E0DE
:103A200020E40FB6F894A895809360000FBE209311
:103A3000600083B7817F846083BF83B7816083BF69
:103A40007894889583B78E7F83BF0FB6F894A89536
:103A500080916000886180936000109260000FBECA
:103A600008950E9457080E945B04089582E084BD77
:103A700093E095BD9AEF97BD80936E0008952FB7A0
:103A8000F8948091A5029091A602A091A702B0910E
:103A9000A8022FBF08952FB7F8946091A5027091E6
:103AA000A6028091A7029091A8022FBF08959C01C1
:103AB0004FB7F8948091A5029091A602A091A70219
:103AC000B091A8024FBF821B930B089578941F9268
:103AD0001FB61F9211248F939F93AF93BF93809132
:103AE000A5029091A602A091A702B091A80201960A
:103AF000A11DB11D8093A5029093A602A093A702D9
:103B0000B093A802BF91AF919F918F911F901FBE5C
:103B10001F901895F89481E08093E00080E28093F4
:103B2000D800E9ECF0E010828FE19EE40197F1F714
:103B300000C000001DBA109268001CBC10BE1FBA65
:103B400010927A0010926E0010926F001092710025
:103B5000109272001082ECEBF0E0108214B817B8EB
:103B60001AB81DB810BA108215B818B81BB81EB80C
:103B700011BA0C94003F089588E19AE00FB6F894CA
:103B8000A895809360000FBE90936000FFCF809156
:103B90009D0208959B01BA019091AD029430E9F421
:103BA0008F708093E9009FEF8091E800915085FD30
:103BB00006C085ED8A95F1F700009111F5CF80914F
:103BC000E80085FF0AC050E040E0C9010E94932050
:103BD0008091E8008E778093E800089543E050E0FC
:103BE000BC0182E00E94CA1D089546E050E0BC017D
:103BF00082E00E94CA1D0895CF93DF93EC0180916B
:103C00001201811111C048E050E0BE0181E00E9424
:103C1000CA1D80E2FE01ADE7B2E001900D928A95E7
:103C2000E1F7DF91CF9108958091A10287FF05C050
:103C300040E282E050E0BE01EACF48E081E0FACF06
:103C40008AE993E00E94D0028091AC02811109C000
:103C50000E9423220E9480228091E200846080934F
:103C6000E200089586E993E00E94D0021092AC022F
:103C7000089582E993E00E94D0020E94B61C089544
:103C80008EE893E00E94D0026091A90281E0611168
:103C900001C080E00E94AD1C08958AE893E00E9474
:103CA000D0029091AD0281E0943009F080E0609103
:103CB000A9020E94B31C089520917B022F5F822FDE
:103CC00062E30E941925992319F020937B0208953D
:103CD00010927B0280917C028823F1F08091AD02EA
:103CE0008430C1F49091E9009F702091EC00822F04
:103CF000817020FD80E8892B93E09093E9009091FA
:103D0000EB0090FF04C09091EE0097FD08C08F700B
:103D10008093E90010927C0208951092F100909136
:103D2000E80095FDFACF9091E80090FFF0CF9091D8
:103D3000E8009E779093E800EACF42E061EC81E0F2
:103D40000E949F2142E261EC82E00E949F2142E2B8
:103D500061EC83E00E949F219091AD0281E094305C
:103D600009F080E06091A9020E94A31C089580914F
:103D7000AF02833009F461C030F48130D1F1823078
:103D800009F49EC008958A3009F48AC08B3009F482
:103D90006FC0893009F050C08091AE02813209F0C5
:103DA0004BC08091B2029091B302029708F044C0D8
:103DB0008091E800877F8093E8008091E80082FF8F
:103DC00037C09091F3008091F200029731F4809116
:103DD000F100813011F0863021F48091F100809360
:103DE0009D028091E8008B778093E8000E94D321A8
:103DF00023C08091AE02813AF9F48091E800877F78
:103E00008093E8008091B2029091B302892B61F413
:103E100060E28DE792E070E00E94E2208091E8008D
:103E20008B778093E800089560E090E080E0F3CF26
:103E30008091AD028111C1CF08958091AE02813A87
:103E4000D9F78091B2029091B302892BA9F78091A2
:103E5000E800877F8093E8008091E80080FFFCCF36
:103E6000809112018093F1008091E8008E77BCCFA1
:103E70008091AE02813201F78091B2029091B3023B
:103E8000892BD1F68091E800877F8093E8000E941B
:103E9000D3218091B002809312010E9457080895A7
:103EA0008091AE02813241F68091E800877F809355
:103EB000E8000E94D3218091B10280939E02089570
:103EC0008091AE02813A09F0B7CF8091E800877FF8
:103ED0008093E8008091E80080FFFCCF80919E02F3
:103EE000C1CF9FB7F89410927C029FBF9091AD0212
:103EF000943009F048C02091E9002F703091EC0017
:103F0000932F917030FD90E8922B23E02093E900ED
:103F10002091EB0020FF34C02091EE0027FF30C03D
:103F200020917A02222321F02091E80025FF28C069
:103F300010927A0226E03091E80035FF14C0809399
:103F4000F1008091E80085FD27C08091E80080FFA6
:103F5000FCCF8091E8008E778093E8009F7090936B
:103F6000E90080E008953091AD02343049F4309199
:103F7000EB0035FD05C0215041F481E080937A02C9
:103F80009F709093E9008FEF0895EFE9FFE031977C
:103F9000F1F700C00000CFCF8FB7F89421E0209355
:103FA0007C028FBFDBCF84B7877F84BF0FB6F894C6
:103FB000A8958091600088618093600010926000F5
:103FC0000FBE80E890E00FB6F89480936100909364
:103FD00061000FBE0E94BC1C08950E9423220E9413
:103FE0008022E2EEF0E080818460808378940E94F9
:103FF000FE2408958AE091E00E94F41A08958091C9
:10400000AD02853051F486E893E00E94D0028091A1
:10401000AD02853019F00E94311D08950E94061DE1
:104020008091AB02882399F30E94C91C882379F3FD
:104030000E947D200E945708EACF08959A0140917E
:10404000B4025091B5020E9426200895492F5527A9
:104050004330510521F168F44130510509F443C062
:104060004230510509F444C090E080E050E040E067
:1040700026C04132510551F142325105A9F7633052
:10408000710590F7FB01EE0FFF1FE457FE4F4081D3
:10409000518167577E4FFB01808190E010C09927C6
:1040A0008130910581F0009729F00297E9F6EEE959
:1040B000F3E002C0E0ECF3E0849190E0AF01F9019D
:1040C000518340830895E4EBF3E0F6CF633071054C
:1040D00058F6660F771FFB01EE56FE4F4081518167
:1040E00089E090E0ECCF82E190E04FE154E0E7CF4F
:1040F0008BE590E044EC53E0E2CF80E189BD82E1C2
:1041000089BD09B400FEFDCF8091D8008F7D8093DA
:10411000D8008091E00082608093E0008091E00010
:1041200081FDFCCF0895AF92BF92CF92DF92FF92B4
:104130000F931F93CF93DF936C01EB018A010E94D1
:10414000F221F82E811123C00115110539F0F80173
:1041500080819181C81BD90BC80ED91EB12CA12C0E
:104160002097A9F08091E80085FD22C08091E800A9
:104170008E778093E80001151105A1F0F801808188
:104180009181A80EB91EB182A08285E0F82E8F2DF4
:10419000DF91CF911F910F91FF90DF90CF90BF9053
:1041A000AF9008950E94F2218823D1F2F82EEFCF2C
:1041B000F60181916F018093F1002197FFEFAF1A13
:1041C000BF0ACECFFC018091B4029091B502861750
:1041D0009707A0F06115710529F49091E8009E778A
:1041E0009093E80090E06115710551F4911108C0B9
:1041F0008091E80082FF34C080E00895BC01F2CFD6
:104200008091AD028823C1F18530C1F18091E80031
:1042100083FD30C08091E80082FDEACF8091E80004
:1042200080FFE1CF8091F3002091F200382F6115DB
:10423000710519F02830310558F091E0283031052A
:1042400009F090E02091E8002E772093E800CBCF92
:1042500081918093F100615071092F5F3F4FE7CF4B
:104260008091AD02882341F0853041F08091E800D3
:1042700083FFBECF81E0089582E0089583E0089532
:10428000FC018091B4029091B50286179707A0F0C7
:104290006115710529F48091E8008E778093E8001C
:1042A00090E06115710551F4911108C08091E8000A
:1042B00082FF35C080E00895BC01F2CF8091AD024D
:1042C0008823C9F18530C9F18091E80083FD31C0B0
:1042D0008091E80082FDEACF8091E80080FFE1CF85
:1042E0008091F3002091F200382F6115710519F0CB
:1042F0002830310558F091E02830310509F090E080
:104300008091E8008E778093E800CBCF84918093F2
:10431000F1003196615071092F5F3F4FE6CF8091D8
:10432000AD02882341F0853041F08091E80083FFA1
:10433000BDCF81E0089582E0089583E00895982F2D
:10434000973028F08F708093E90081E00895909372
:10435000E900242F762F50E0981731F07091EC008F
:104360002091ED005091F00021FD02C09F5FE8CF49
:104370003091EB003E7F3093EB003091ED003D7FBC
:104380003093ED003091EB0031603093EB0070938F
:10439000EC002093ED005093F0002091EE0027FDFB
:1043A000E5CF80E008958091AE0287FF13C0809131
:1043B000E80082FF06C08091E8008B778093E800D8
:1043C00004C08091AD028111F2CF08958091AD02B9
:1043D0008823D9F38091E80080FFF8CF8091E8002E
:1043E0008E77ECCF2091E4003091E50095E6A901AD
:1043F0002091EC00822F817020FF06C08091E800A0
:1044000080FF06C080E008952091E80022FD1AC0D8
:104410008091AD02882389F0853089F08091EB008E
:1044200085FD0FC02091E4003091E500421753074D
:10443000F9F29150E1F684E0089582E0089583E076
:10444000089581E008950E9492220E949A22E0EE4F
:10445000F0E0808181608083E8EDF0E080818F77FB
:10446000808319BCA7EDB0E08C918E7F8C93808106
:104470008F7E80831092AC0208950F931F93CF9389
:10448000DF930E9492220E949A22C8EDD0E0888198
:104490008F77888388818068888388818F7D8883EF
:1044A00019BC1092AD021092A9021092AB021092A8
:1044B000AA0200EE10E0F80180818B7F8083888162
:1044C0008160888342E060E080E00E949F21E1EE0D
:1044D000F0E080818E7F8083E2EEF0E08081816079
:1044E0008083808188608083F80180818E7F8083D3
:1044F000888180618883DF91CF911F910F9108950A
:10450000E8EDF0E080818F7E8083E7EDF0E0808150
:104510008160808384E082BF81E08093AC020E944E
:104520003D220895E8EDF0E080818E7F8083109237
:10453000E20008951092DA001092E10008951F92AF
:104540000F920FB60F9211242F933F934F935F93C7
:104550006F937F938F939F93AF93BF93EF93FF934B
:104560008091E10082FF0BC08091E20082FF07C0D2
:104570008091E1008B7F8093E1000E945C1E80911E
:10458000DA0080FF19C08091D80080FF15C08091AB
:10459000DA008E7F8093DA008091D90080FF96C088
:1045A00080E189BD82E189BD09B400FEFDCF81E0D3
:1045B0008093AD020E94201E8091E10080FF19C00F
:1045C0008091E20080FF15C08091E2008E7F809391
:1045D000E2008091E20080618093E2008091D80047
:1045E00080628093D80019BC85E08093AD020E9460
:1045F000401E8091E10084FF2BC08091E20084FF87
:1046000027C080E189BD82E189BD89B5982F91706D
:1046100080FFFBCF8091D8008F7D8093D800809160
:10462000E1008F7E8093E1008091E2008F7E809395
:10463000E2008091E20081608093E2008091A90213
:10464000882309F449C084E08093AD020E944D1E86
:104650008091E10083FF29C08091E20083FF25C0A3
:104660008091E100877F8093E10082E08093AD023A
:104670001092A9028091E1008E7F8093E1008091E9
:10468000E2008E7F8093E2008091E200806180935F
:10469000E20042E060E080E00E949F218091F00013
:1046A00088608093F0000E94391EFF91EF91BF91C6
:1046B000AF919F918F917F916F915F914F913F91BA
:1046C0002F910F900FBE0F901F90189519BC10924C
:1046D000AD020E94321E70CF8091E30087FD93E00F
:1046E0009093AD02B3CF1F920F920FB60F92112489
:1046F0002F933F934F935F936F937F938F939F93EA
:10470000AF93BF93CF93DF93EF93FF93D091E900E3
:10471000DF708091EC00C82FC17080FDC0E810925E
:10472000E9008091F000877F8093F00078940E94E8
:10473000B7231092E9008091F00088608093F00028
:10474000CD2BCF70C093E900FF91EF91DF91CF9116
:10475000BF91AF919F918F917F916F915F914F9199
:104760003F912F910F900FBE0F901F901895AAE2C6
:10477000B0E0EDEBF3E20C944E258EEA92E020914E
:10478000F100FC012193CF01F2E0863B9F07B9F7CE
:104790000E94B71E8091E80083FF1EC18091AE0287
:1047A0009091AF029A3008F017C1E92FF0E0E75E70
:1047B000F94D0C943925803899F0823809F00CC1F4
:1047C0008091B2028F70873008F006C18093E900B3
:1047D0008091EB0085FB882780F91092E90006C0E4
:1047E0008091AA029091AB02911182609091E800B1
:1047F000977F9093E8008093F1001092F1008091F0
:10480000E8008E77E5C0882309F4D3C0823009F030
:10481000E3C08091B0028111D6C08091B2028F7046
:104820002FEF280F263008F0D7C08093E9002091A1
:10483000EB0020FFC8C0933031F48091EB00806220
:104840008093EB00C0C09091EB0090619093EB00DF
:1048500021E030E001C0220F8A95EAF72093EA00B8
:104860001092EA008091EB008860EACF8111B4C019
:104870001091B0021F778091E3008078812B8093A4
:10488000E3008091E800877F8093E8000E94D321B5
:104890008091E80080FFFCCF8091E30080688093E6
:1048A000E30082E0111183E08093AD0295C080584F
:1048B000823008F091C08091B0029091B1028C3D9D
:1048C00023E09207A1F583E08A838AE289834FB7C8
:1048D000F894DE01139620E03EE051E2E32FF0E091
:1048E00050935700E49120FF03C0E295EF703F5FC3
:1048F000EF708E2F90E0EA30C0F0C7968D939D93B5
:104900002F5F243159F74FBF8091E800877F809354
:10491000E8006AE270E0CE0101960E94E2208091F8
:10492000E8008B778093E80057C0C096E7CF60918E
:10493000B2027091B302AE014F5F5F4F0E941E2022
:10494000BC01892B09F448C09091E800977F9093AF
:10495000E80089819A810E944021E1CF8038E1F509
:104960008091E800877F8093E8008091A90280937E
:10497000F10045CF811130C09091B002923060F5C6
:104980008091E800877F8093E8009093A9020E94BD
:10499000D3218091A902882311F084E005C0809181
:1049A000E30087FDFACF81E08093AD020E949D1E57
:1049B00013C08091B002813079F481E0933009F026
:1049C00080E08093AB021092E9008091E800877F3D
:1049D0008093E8000E94D3218091E80083FF0AC001
:1049E0008091E800877F8093E8008091EB008062EF
:1049F0008093EB00AA96E3E00C946A25CF93809114
:104A0000AD028823A1F0C091E900CF709091EC0035
:104A1000892F817090FD80E8C82B1092E900809169
:104A2000E80083FD0E94B723CF70C093E900CF91C7
:104A30000895991B79E004C0991F961708F0961BFA
:104A4000881F7A95C9F78095089597FB072E16F46D
:104A5000009407D077FD09D00E94762507FC05D089
:104A60003EF4909581959F4F0895709561957F4F85
:104A70000895EE0FFF1F0590F491E02D09942F92F9
:104A80003F924F925F926F927F928F929F92AF92DE
:104A9000BF92CF92DF92EF92FF920F931F93CF932B
:104AA000DF93CDB7DEB7CA1BDB0B0FB6F894DEBFC2
:104AB0000FBECDBF09942A88398848885F846E84E8
:104AC0007D848C849B84AA84B984C884DF80EE8032
:104AD000FD800C811B81AA81B981CE0FD11D0FB63B
:104AE000F894DEBF0FBECDBFED010895AA1BBB1B1E
:104AF00051E107C0AA1FBB1FA617B70710F0A61BDE
:104B0000B70B881F991F5A95A9F780959095BC01FE
:104B1000CD010895FB01DC0104C08D910190801945
:104B200021F441505040C8F7881B990B0895FB01B0
:104B3000DC0102C001900D9241505040D8F7089519
:104B4000F999FECF92BD81BDF89A992780B5089555
:104B5000A8E1B0E042E050E00C94D425262FF9996A
:104B6000FECF92BD81BDF89A019700B4021639F0CC
:104B70001FBA20BD0FB6F894FA9AF99A0FBE08959D
:104B80000396272F0E94AF250E94AE25252F0E9455
:104B9000AF25242F0C94AF250196272F0E94AF2517
:104BA0000C94AE25DC01CB01FC01F999FECF06C0C7
:104BB000F2BDE1BDF89A319600B40D9241505040DB
:104BC000B8F70895F894FFCF3A063A068B068B069D
:104BD000FE061A07690669061F0790079F079F07C9
:104BE0002A169E163216FC150016361604163A16AC
:104BF00046161016971614164A1618164E167616DE
:104C00001C1652167D1622165816601608163E16E9
:104C10000C16421626165C166C1686169516F61598
:104C20002E16A516C81ACE1AB71AC21AD41ADA1A2C
:104C3000E01ADB230324EC240324EC243624572439
:064C4000EC24AE24BA24AE
:104C46000202280850011E0A1401C71DFC1DF51D8D
:104C5600EE1D01E200E900EA00B500B600B700CD9E
:104C6600008301CC008A01920194012102230224CF
:104C7600022502260227022A02B300B4006F007042
:104C8600009F01CB019F02A002818283E200E9001E
:104C9600EA00B500B600B700CD008301CC008A015A
:104CA60092019401210223022402250226022702F0
:104CB6002A02B300B4006F0070009F01CB019F026F
:104CC600A002818283F0F1303140B62209055304F7
:084CD6003104D603EF030804CA
:00000001FF
