:100000000C94A5020C94C2020C94C2020C94C2027D
:100010000C94C2020C94C2020C94C2020C94C20250
:100020000C94C2020C94C2020C9412230C94E6238A
:100030000C94521D0C94C2020C94C2020C94C20285
:100040000C94C2020C94C2020C94C2020C94C20220
:100050000C94C2020C94D91D0C94C2020C94C202DE
:100060000C94C2020C944F190C94C2020C94C2025C
:100070000C94C2020C94C2020C94C2020C94C202F0
:100080000C94C2020C94C2020C94C2020C94C202E0
:100090000C94C2020C94C2020C94C2020C94C202D0
:1000A0000C94C2020C94C2020C94C202D100D30080
:1000B000D400D20044454255473A206469736162D6
:1000C0006C65642E0A0044454255473A20656E61CE
:1000D000626C65642E0A000A0025303258006C6597
:1000E000645F7461736B3A20004F6E6573686F7460
:1000F0003A206163746976653A2025640A000A0033
:1001000025303862003A200025303258000A722F1C
:10011000632030313233343536370A00290A00255E
:1001200075002F002575005D28002564002000253E
:100130006400200025640020002564007C00253038
:100140003258006D6F7573656B6579205B62746EF4
:100150007C782079207620685D287265702F616335
:100160006C293A205B0020636F6D6D616E643A20EC
:1001700025582C20726573756C743A2025582C20F4
:100180006572726F723A202558200A00707332200F
:100190006D6F757365207365742073747265616D1E
:1001A000206D6F64650020636F6D6D616E643A2031
:1001B00025582C20726573756C743A2025582C20B4
:1001C0006572726F723A202558200A0070733220CF
:1001D0006D6F75736520656E61626C652064617416
:1001E00061207265706F7274696E670020636F6D55
:1001F0006D616E643A2025582C20726573756C749D
:100200003A2025582C206572726F723A20255820AA
:100210000A00707332206D6F7573652064697361B5
:10022000626C652064617461207265706F727469BC
:100230006E67007073325F6D6F7573653A2066612B
:10024000696C20746F20676574206D6F757365200D
:100250007061636B65740A0020726573756C743A23
:100260002025582C206572726F723A202558200A7A
:10027000007073325F6D6F7573655F696E69743A94
:10028000207265616420446576494400207265737C
:10029000756C743A2025582C206572726F723A2062
:1002A0002558200A007073325F6D6F7573655F6942
:1002B0006E69743A20726561642042415400206383
:1002C0006F6D6D616E643A2025582C2072657375D0
:1002D0006C743A2025582C206572726F723A202572
:1002E00058200A007073325F6D6F7573655F696EB9
:1002F00069743A2073656E64696E67207265736510
:100300007400706275663A2066756C6C0A00505312
:1003100032205553415254206572726F723A202533
:1003200030325820646174613A20253032580A0016
:100330000A002530325820006B6579626F61726463
:100340005F7265706F72743A200064656C5F6B65F4
:10035000795F6269743A2063616E27742064656C0A
:100360003A20253032580A006164645F6B65795F1A
:100370006269743A2063616E2774206164643A2074
:10038000253032580A005B735D005B575D005B539C
:100390005D005B525D005B445D005B435D001403E8
:1003A00073006100750063006500620061006C000D
:1003B0006C0000000A037800690061003000000052
:1003C0000403090409025B00030100A0FA09040008
:1003D0000001030101000921110100012240000771
:1003E0000581030800010904010001030000000960
:1003F000211101000122B600070582032000010936
:100400000402000203000000092111010001222260
:1004100000070583032000010705030320000112E4
:1004200001000200000008001A7B5A0001010200CE
:10043000010631FF0974A1010975150026FF009519
:1004400020750881020976150026FF0095207508A1
:100450009102C005010902A10185020901A100055F
:100460000919012908150025019508750181020562
:1004700001093009311581257F950275088106092A
:10048000381581257F950175088106050C0A38020B
:100490001581257F950175088106C0C00501098079
:1004A000A101850319012AB700150126B70095019E
:1004B00075108100C0050C0901A101850419012AEC
:1004C000A002150126A002950175108100C005014A
:1004D0000906A1018506050719E029E71500250190
:1004E0009508750181020507190029EF15002501FE
:1004F00095F0750181020508190129059505750119
:100500009102950175039101C005010906A101053C
:100510000719E029E7150025019508750181029565
:1005200001750881010507190029FF150026FF0044
:1005300095067508810005081901290595057501BD
:100540009102950175039101C00011241FBECFEFE8
:10055000DAE0DEBFCDBF11E0A0E0B1E0ECE2FDE407
:1005600002C005900D92A03AB107D9F722E0A0EAA7
:10057000B1E001C01D92A73CB207E1F70E948C13C5
:100580000C9455260C940000FF93EF93E091A0018A
:10059000F091A101309709F00995EF91FF9108952D
:1005A000FC018591803011F0EFDFFBCF0895FF272C
:1005B000E0E230E247FF0CC0419597FF09C0EDE251
:1005C0006095709580959095611D711D811D911D9F
:1005D00027FF02C0219530E350E2AA27660F771F5C
:1005E000881F991FAA1FA41710F0A41B63955A9582
:1005F000A9F7AA3008F0A95FA05DAF93F395611544
:1006000071058105910541F7ED3211F4EF93F395F2
:10061000F21718F43F93F395FBCF8F91B5DFFA955E
:10062000E1F70895E991F9918591803021F08532C3
:1006300019F0AADFF9CF089520E0E89455915532DA
:10064000C1F3503311F4689455915A3348F4505320
:1006500090F3220F022E220F220F200D250FF4CF30
:100660000EF4219589919991533619F3533729F155
:10067000533559F1BC0188279927E8945C3621F459
:100680008991999168945591543639F446EF7EF0EA
:1006900077FF0DC08FEF9FEF0AC055374AE039F062
:1006A000583540E121F0523642E009F00895FF93B9
:1006B000EF937DDFEF91FF91B7CFFF93EF93FC01B5
:1006C00081918030B9F360DFFBCFFF93EF9368DF58
:1006D000F1CFDF93CF93CDB7DEB72596A3DFCF91D0
:1006E000DF910895CF93DF93EB01833D910579F579
:1006F0008A81882381F00E94B21D9093A702809383
:10070000A6028A8190E09093A3018093A20180E0E9
:10071000DF91CF9108958091A6029091A7020E9447
:10072000CA1D8C32914068F70E94811583ED0E94AA
:1007300010140E94E3148FE39CE90197F1F700C0C5
:10074000000083ED0E946A140E94E314DACF81E076
:10075000DFCFA8E0B0E0EFEAF3E00C94B525FC01B0
:100760008091A2019091A301019739F48281858340
:1007700083818195848312821382CF0102969A83AA
:10078000898301969C838B8302969E838D83349606
:10079000F887EF83CE0101967C01E8EAF2E083E17D
:1007A000C82E81E0D82E3E0199E0690E711C94E6B6
:1007B000892E912C24E6522ED7012D913D917D0159
:1007C0002115310509F451C0D601AD90BC90B4E6B5
:1007D000AB16B10409F449C080819181D9014C91D3
:1007E000042E000C550BBC01640F751F77FF03C06E
:1007F00071956195710997FF03C091958195910954
:100800006817790714F451834083D9014C91808192
:100810009181840F911D47FD9A95918380831C924D
:1008200000811181A09EC001A19E900DB09E900DEF
:100830001124AC0197FF04C044275527481B590BCE
:100840004436510594F0B4010E949825AB01569EA0
:10085000C001579E900D1124B5010E949825061BDA
:10086000170B11830083D9014C933296B2E0CB0E63
:10087000D11CE614F70409F09FCF2896EFE00C9402
:10088000D125862B59F4443048F4E42FF0E0EE0FE4
:10089000FF1FE455FF4F85919491089581E090E00A
:1008A00008950E944104089581E008950E94720312
:1008B000089508950E9459040895A5E0B0E0E3E684
:1008C000F4E00C94C12549835A833091A9018981B0
:1008D0009A81311119C0662399F0222389F00E9470
:1008E000700A182F682F89819A810E94550A6981A0
:1008F0007A81812F0E943B112596E3E00C94DD253F
:100900000E94620A182FF3CF0E94700A69817A81CF
:10091000F1CFFC01262F4081518162817381848156
:100920000E945D04089581E00895CF93DF93EC0168
:1009300060E00E948904BE010E945A04DF91CF91B9
:10094000089508950E9424090E94A1042FEF84E3D2
:100950009CE0215080409040E1F700C000000895E5
:100960000E94A2040E94FD1D08950E94A2040E94FC
:100970002F1E08950F931F93CF93DF938C0161E097
:100980000E948904EC01B8010E945604811106C03E
:1009900080E0DF91CF911F910F910895B801CE01B2
:1009A0000E941E1B8823A1F3B801CE010E949F164E
:1009B000882371F3B801CE010E94901A882341F375
:1009C000F8018281882369F0C330FCE7DF0781F1F9
:1009D00060F4C130ECE7DE0769F1C0F4C115DC4713
:1009E00091F0C8010E945404D4CFCB35ECE7DE0768
:1009F00039F1CC35FCE7DF0701F1CA35DC4789F76F
:100A00000E94B40EEECF0E94B004C2CF9091390282
:100A1000892F8E7F90FF81608093390280FF05C00F
:100A200086EC90E00E94D002B3CF84EB90E0FACF46
:100A30000E94BC0E0E94B504ABCF0E94AA0ED1CF7B
:100A40000E94B80ECECF0E94341D0E946205089508
:100A50000E9466050E94391D0895829590E09C01D0
:100A6000220F331F220F331F2C7C95958795959568
:100A700087958373282B30E0C901880F991F8A7AE4
:100A8000359527952575822B0895089581E0089561
:100A90000895CF93DF93D82F0E944605C82F88234F
:100AA00019F08D2F0E9448058C2FDF91CF9108956A
:100AB0000895CF93C82F0E9445058C2F0E944905A9
:100AC000CF91089580E00E94590508950E946C1B03
:100AD0000E9459050895CF930E946C1BC82F8091E6
:100AE000A4018C1789F1C093A4010E94BE1D6093DC
:100AF000A5017093A6018093A7019093A80180910E
:100B0000390282FF1EC080FF1CC08EED90E00E9463
:100B1000D0028091390280FF14C01F92CF9389EDDB
:100B200090E09F938F930E946903809139020F9008
:100B30000F900F900F9080FF04C087ED90E00E940F
:100B4000D0028C2F0E945905CF910895ABE0B0E000
:100B5000ECEAF5E00C94C2254F83588769877A87C1
:100B60008B8761110E94E20D1E821D8285E0FE01CD
:100B70003796DE01119601900D928A95E1F78C81EE
:100B80009D81892B61F449815A816B817C818D81A2
:100B90009E810E940A0D2B96E2E00C94DE2589814D
:100BA0009A8189238F3F79F3CE0101960E949304A5
:100BB0008111E9CFF0CFFC01808191810E94A20ACE
:100BC00008950F931F93CF93DF93C82FD62F6623DB
:100BD00041F10E9410140C2F10E0C801815D9109B1
:100BE000089710F00E94E314C15DC330A8F4015DC2
:100BF000110981E090E002C0880F991F0A95E2F781
:100C00002091B0023091B102DD2371F0822B932B41
:100C10009093B1028093B002DF91CF911F910F9119
:100C200008950E946A14D7CF8095909582239323CC
:100C3000EFCFCF93C82F8823B9F08CEF8C0F813A78
:100C4000A8F46C2F80910001909101010E94381C42
:100C5000882329F08C2F0E94A20D0E94030E8C2F56
:100C60000E949A0D0E94030ECF91089580E28C0F8E
:100C7000883048F4C77081E001C0880FCA95EAF750
:100C80000E94C50DEFCFEBE5EC0FE33040F4F0E050
:100C9000EF5AFE4F808190E00E94DA1BE5CFE8E535
:100CA000EC0FEB3150F4F0E0EE0FFF1FE55EFE4F6E
:100CB000808191810E94FF1BD7CF83E38C0F83310A
:100CC00098F661E08C2F0E94E105CECF882381F158
:100CD0009CEF980F913A28F40E94A20D0E94030EF7
:100CE000089590E2980F983050F4877091E001C019
:100CF000990F8A95EAF7892F0E94CB0DEFCF9BE5DC
:100D0000980F933028F490E080E00E94DA1B089559
:100D100098E5980F9B3128F490E080E00E94FF1B3B
:100D2000089593E3980F933118F460E00E94E10571
:100D300008951F93CF93DF93182FEB010E9419069C
:100D4000209739F4812F0E946606DF91CF911F9181
:100D500008958FE99FE00197F1F700C00000219707
:100D6000EFCF70E060E0893311F460E570E00E943D
:100D700099060895882321F00E94C50D0E94030E54
:100D80000895882321F00E94CB0D0E94030E089540
:100D9000B0E0A0E0EEECF6E00C94BB256C01D62FA1
:100DA000C72FFC011281058102950F700E94BB0DB7
:100DB000E82E8823E9F0E12E1123D1F08C2F807FDB
:100DC000803451F080E28D0F8830F8F0011104C0BA
:100DD0008C2F807E8032C9F08091B30282FF15C0D3
:100DE00082E00E94660E0E94BB0D91E0E82EE9268B
:100DF000BC2EB2949FE0B922FBE0FB15B8F1EB2DBD
:100E0000F0E0E95AF94D0C94AC25E12CF1CF0C2F10
:100E10000F70C07F11F00295007F112399F000231D
:100E200059F080E28D0F883010F0D11107C0802F6B
:100E30000E94C50D0E94030E8D2F63C0802F0E945B
:100E4000D50DF8CF8D2F0E946606002379F080E241
:100E50008D0F883010F0D11104C0802F0E94CB0D6F
:100E600003C0802F0E94DB0D0E94030E2B2D285003
:100E7000330B2430310520F40E946C1B0E9459056D
:100E8000EE2089F00E94B70D80FD0DC0F6011282A0
:100E90000E94B10D0E94B309C6010E94E4080E949D
:100EA000B10D0E94C309CDB7DEB7E9E00C94D72598
:100EB0002C2F2F70F22EC07FC03219F0F29480EFE9
:100EC000F822DD2381F0D13009F449C0112309F45F
:100ED00051C0002309F448C0F601858180FFACCFE2
:100EE0008F70858341C08091B30282FD15C01123AC
:100EF00059F0FF2029F08F2D0E94C50D0E94030E8E
:100F000080E00E941906B2CF80E00E946606FF20B2
:100F100009F4ACCF8F2DA2CF112381F0011106C0AF
:100F20000E94E50D8F290E94BA06A0CF0130C1F7BB
:100F30000E94E50D8F290E94EC0D98CF011106C08B
:100F40000E94F90D8F2D0E94C10690CF013009F447
:100F50008DCF8F2D0E94C1060E94F90D87CF1123DE
:100F600029F0063008F082CF8F2DDDCF053008F054
:100F70007DCFE8CF002331F3D93349F4FFEF27EEDB
:100F800033E0F15020403040E1F700C000008D2FE9
:100F90000E9466066BCF8C2F86958695837069F0CC
:100FA000813009F063CF8D2F9C2F9370111102C0F7
:100FB00080E090E00E94FF1B59CF8D2F9C2F9370F3
:100FC000111102C080E090E00E94DA1B4FCF612F28
:100FD0008D2F0E94E1054ACF8C2F8370A1F511114E
:100FE00045CF4D2F429546954770440F440F2D2F06
:100FF0002F7030E0042E02C0220F331F0A94E2F754
:1010000090E080E0D4FF09C08FE090E002C0880F3C
:10101000991F4A95E2F780959095C695C695C3703D
:10102000822B932BC23049F058F4C13019F00E9442
:1010300083091CCF0E947A0919CF0E948C0916CF10
:101040000E94770913CF8695112311F08C2F8170A0
:10105000882309F40BCF4D2F429546954770440FD6
:10106000440F2D2F2F7030E0042E02C0220F331FAB
:101070000A94E2F790E080E0D4FF09C08FE090E0AE
:1010800002C0880F991F4A95E2F780959095C69502
:10109000C695C370822B932BC23049F058F4C130EF
:1010A00019F00E94EE09E2CE0E94E509DFCE0E940F
:1010B000F709DCCE0E949B09D9CECF70112329F00D
:1010C0008C2F0E94B3098D2F2ECF8D2F0E94C10629
:1010D0008C2F0E94C309CACED23F41F160F4D03FA9
:1010E000B9F0D13F81F0112309F446C00111A4CE1B
:1010F0008C2F8F711FC0D33F01F1D43FA1F7809196
:10110000B30282FD24C08C2F8F71112311F312C002
:10111000112341F0053008F0A9CE8C2F8F710E9469
:10112000D509A4CE063008F0A1CEF7CF8C2F8F7151
:101130001111CFCF0E94B30999CE112329F08C2F22
:101140008F710E94A70992CE0E94A2098FCE11230F
:1011500049F0CF718C2F0E94B30963E08C2F0E945D
:10116000480E84CE81E00E94660E023008F47ECEE6
:1011700082E00E94660E7ACE002359F0D93309F03E
:1011800006CF8FEF97EEE3E081509040E040E1F72B
:10119000FCCE8C2F8F719DCF0F931F93CF93DF9336
:1011A000EC01688179818A810E94AD0A8C010E94DC
:1011B000000A0E947609B801CE010E94C806DF919C
:1011C000CF911F910F910895CF93DF93EC018B8105
:1011D0009C81892B29F08881998189238F3F51F443
:1011E000DF91CF910895CE010E94CC08CE010E94DC
:1011F0009504F6CFCE010E94BA048111F4CF0E946B
:10120000BB0D882369F38A81882351F38091B3024F
:1012100082FFE6CF82E00E94660EE2CF90E080E09F
:101220000E94DA1B90E080E00E94FF1B0E94E20D0A
:101230000E94030E0E9481150E94E31408950E94EB
:10124000AA0D0E940E0908950E94D20D0E941F0946
:10125000089592959F70963091F058F4925F9F7028
:10126000923058F4803F19F030F4883E30F481E039
:1012700008959A5FF4CF843FD1F380E00895883ECB
:10128000B0F3813FD1F7F3CFFC0183819481892BA7
:1012900029F08081918189238F3F11F480E00895A6
:1012A000808191810E94A20A0E9429090895A5E0E7
:1012B000B0E0EDE5F9E00C94C2252596E2E00C944F
:1012C000DE25A6E0B0E0E7E6F9E00C94C22526961C
:1012D000E2E00C94DE2508950E946B0908950E94B7
:1012E0006C099093B1018093B001089508950E9414
:1012F0006F0908952091B0013091B101822B932B99
:101300000E946F0908952091B0013091B1018223AC
:1013100093230E946F0908952091B0013091B1018B
:10132000822793270E946F0908950E946B090895F0
:101330000E94950908950E9498099093AF018093A7
:10134000AE01089590E080E00E949B09089521E09D
:1013500030E0A90102C0440F551F8A95E2F7CA0187
:101360000E949B09089521E030E002C0220F331F44
:101370008A95E2F78091AE019091AF01822B932B79
:101380000E949B09089521E030E002C0220F331F24
:101390008A95E2F7209530958091AE019091AF014A
:1013A000822393230E949B09089521E030E002C02C
:1013B000220F331F8A95E2F78091AE019091AF0121
:1013C000822793270E949B0908952091AE013091B6
:1013D000AF01822B932B0E949B0908952091AE01AF
:1013E0003091AF01822393230E949B09089520919D
:1013F000AE013091AF01822793270E949B09089587
:101400000895262F277091E001C0990F2A95EAF7D9
:1014100023E0769567952A95E1F7660F771F660FAB
:10142000771FFA01E60FF71F50E040E0682F70E0E9
:101430008191DF0111979B01042E02C036952795FB
:101440000A94E2F7217021952827292328272C9335
:101450004F5F5F4F4430510559F70895A82FA7708B
:1014600023E0969587952A95E1F7880F991F880FB5
:10147000991FFB01E80FF91F50E040E080E0219147
:1014800030E00A2E02C0369527950A94E2F72170C3
:101490003327042E01C0220F0A94EAF7822B4F5FF4
:1014A0005F4F4430510559F70895262F911109C017
:1014B000843038F4682F70E04AEA51E0822F0E94AD
:1014C000010A089591110AC0843030F46AEA71E08B
:1014D00090E00E942E0A982F892F089590E0FCCF6B
:1014E000B0E0A0E0E6E7FAE00C94BB257C010091B7
:1014F000AE011091AF018091B0019091B101082B24
:10150000192BCFE0D0E0CC24C394D12CBC2EC60143
:101510000C2E02C0880F991F0A94E2F780239123B2
:10152000892B49F4219790F7B12C8B2DCDB7DEB7DD
:10153000E9E00C94D725B7018C2F0E944711019741
:1015400089F3F3CFCF93DF93EC010E94700ABE01C1
:101550000E944711DF91CF9108951F93CF93DF939E
:10156000EB019091A901992339F0CB010E94A20AC5
:10157000DF91CF911F910895882369F0CB010E94DC
:10158000700A182F682FCE010E94550ABE01812FC4
:101590000E944711EDCFCB010E94620A182FF6CFAF
:1015A0001F93CF93DF93C091B20116E08091B301F6
:1015B0008C1304C0DF91CF911F910895D0E01C9F40
:1015C000F0011D9FF00D1124EC54FE4F408151811C
:1015D00062817381848195810E9461092196C7701F
:1015E000E5CF4091E4015091E5016091E6017091F1
:1015F000E7018091E8019091E9010E946109089555
:101600002091B2019091B30156E0291302C080E00D
:10161000089530E0529FF001539FF00D1124EC54D7
:10162000FE4F7181761306C07081781303C07281FA
:10163000741304C02F5F3F4F2770E7CF81E00895F8
:101640001F93CF93DF938091E901807F09F04BC016
:101650008091E601882309F446C08091B201C091CF
:10166000B3014091E4015091E5016091E70170916F
:10167000E801D42FD52316E0C817A9F190E0611531
:101680007105A9F1DF3F99F1189FF001199FF00D45
:101690001124DF01AC54BE4F11962C9111972513E4
:1016A00026C02C91241323C012962C91129721113D
:1016B0001EC013962D913C91261B370B283C3105FB
:1016C000B0F48091E9018F7080618093E901E75463
:1016D000FE4F80818F708061808384EE91E00E9454
:1016E000E4080E94D00ADF91CF911F9108950196DE
:1016F0008770C2CFA1E1B0E0E0E8FBE00C94B82530
:101700008C0185E0F801DE011D9601900D928A950D
:10171000E1F7F801F28084EEA82E81E0B82E409126
:10172000E7015091E8014115510509F45AC1909122
:10173000E4012091E501892F82238F3F09F451C1F3
:10174000C080D18083809480E090E601B401641B66
:10175000750BEE2009F4F6C08091E901382F307F37
:10176000683C710508F0AFC031117AC0EF2C2D1123
:1017700016C09C1114C0F11012C08F70806180934C
:10178000E9010E94F10AC5010E94E4088091E90183
:10179000F80185838E2D6196ECE00C94D42581149C
:1017A0009104C9F18C2D8D218F3FA9F181E08F2506
:1017B00080FF05C04F2D6D2D8C2D0E94000B8114D4
:1017C000910459F18C2D8D218F3F39F181E08F25C6
:1017D000F82FF170BF2E80FF39C04F2D6D2D8C2D4D
:1017E0000E94000BA82E811131C0CD86DE868D852A
:1017F0009E850E94A20A292F22952F70243078F40A
:101800009F702230A8F09923B9F0F8019581907F5C
:1018100099F4EA2CBFCF80E0CBCF80E0D9CF2A5F0C
:101820002F70223068F0C8010E94E408AB2CF1CF81
:10183000992311F0882369F3805E883050F3F3CF49
:10184000803F38F3815F833070F7E3CFFF2009F4E6
:10185000A1CF8091E90181608093E901E12C9ACFC9
:101860002D1105C09C1103C0FF2009F486C0C801DA
:101870000E944409882319F1FF2009F18091E901B0
:10188000803270F02091E4013091E50138872F8398
:1018900019869B868A868C87CE0107960E94E4086B
:1018A00086E0F801A4EEB1E001900D928A95E1F78F
:1018B0000E94200B0E94F10AEE24E3946BCFC80132
:1018C0000E94E408F9CF311114C0782D998A888AD2
:1018D000A6016F2D89890E94570984EE91E00E942C
:1018E000E40886E0F50111928A95E9F70E94F10A71
:1018F000B5CF2D110EC09C110CC0F1100AC085830C
:10190000C8010E94E40886E0F50111928A95E9F782
:1019100041CFC8010E944409882389F2FF2079F24F
:101920008091E901803208F4BBCF2091E40130912D
:10193000E5013A8329831B829D828C828E83CE01AE
:101940000196ACCF683C710508F03DC0EF2CFF203C
:1019500009F4B5CF2D1129C09C1127C08091E90150
:1019600080FD1AC0982F907FB9F08583903F31F0A9
:10197000982F907F905F8F70892B8583C8010E947C
:10198000E40886E0F801A4EEB1E001900D928A959A
:10199000E1F70E94F10AFECE86E0F801A4EEB1E084
:1019A00001900D928A95E1F7F5CEC8010E94440995
:1019B000811176CF8091E90181608093E901C801AE
:1019C0000E94E408E7CE782D998A888AA6016F2DB7
:1019D00089890E94570986E0F50111928A95E9F7F5
:1019E000D8CFFF2009F46BCFC8010E944409E82E2C
:1019F000882309F464CF86E0F801A4EEB1E00190F9
:101A00000D928A95E1F784EE91E00E94DB050E9439
:101A1000200BBFCFACE0B0E0E0E1FDE00C94C125CD
:101A20004F83588769877A878B879C87CE01079673
:101A30000E947A0B8823B1F08A859B85892B39F027
:101A40004F815885842F85238F3F09F06CC016E0A5
:101A50008091B2019091B301891343C02C96E3E0C9
:101A60000C94DD2586E0FE013796DE01119601908B
:101A70000D928A95E1F78A859B85892B41F38F81A9
:101A8000988589238F3F19F32091B30130E0C90174
:101A90000196877099274091B2014817190671F491
:101AA0000E9424091092B3011092B20186E0E4EE84
:101AB000F1E0DF011D928A95E9F7C9CF96E0929F88
:101AC000D001939FB00D1124AC54BE4FFE0131964E
:101AD00001900D929A95E1F78093B3010E94D00A8C
:101AE000B6CF819FC00111248C549E4F0E947A0B67
:101AF000882309F4B3CFE091B2011E9FF0011124B5
:101B0000EC54FE4F408151816281738184819581C3
:101B10000E9461098091B20190E001968770992737
:101B20008093B20195CF69857A858B859C850E94CB
:101B300061098DCF682F80910001909101010E9471
:101B4000DA1C0895682F80910001909101010E9494
:101B5000E81C089580910001909101010E94F61CFB
:101B6000089580910A0285958595859508958091BF
:101B70000A028770089590910A02977081E009F433
:101B800080E0089580912D02089590912D02892B77
:101B900080932D020895809590912D029823909323
:101BA0002D02089510922D02089590912C02892BF8
:101BB00080932C020895809590912C029823909305
:101BC0002C02089510922C02089580910B02089522
:101BD00008950E94E80D08959091B30292FF08C005
:101BE00090910B02981721F080930B020E94E90D4F
:101BF000089580910B02882329F010920B0280E057
:101C00000E94E90D0895CF93DF93E0910001F091D8
:101C1000010180912D028083E0910001F09101018A
:101C2000808190912C02892B808390910B029923C3
:101C300081F0E0910001F09101018081892B808386
:101C400080910001909101010E94241C81110E9449
:101C5000F90DC0910001D091010140E250E06AEE1F
:101C600071E0CE010E94FD25892B59F080E2FE0132
:101C7000AAEEB1E001900D928A95E1F7CE010E94A3
:101C8000791BDF91CF91089508950E94440E089525
:101C90009091B30292FF11C098E0899F90011124A6
:101CA000622B60930A020E94B30980910A02859513
:101CB000859585950E94450E08950E94B309089563
:101CC00010920A0280E00E94450E089590910A0247
:101CD0008095892380930A02282F277091F4282F5A
:101CE000082E000C330B9217130659F09091B30293
:101CF00092FF07C08595859585950E94C3090E942E
:101D0000600E0895CF93C82F8091B30282FB99276C
:101D100090F99C17E9F0C0FB82F98093B30280919F
:101D2000B2029091B3020E94DD0E82E00E94660E24
:101D30008091390280FF0CC01F92CF9389EE90E012
:101D40009F938F930E9469030F900F900F900F90B5
:101D5000CF9108958091B30282FB882780F991E0AA
:101D600089270E94820E089581E00E94820E0895C4
:101D700080E00E94820E08956FEF7FEF90E080E098
:101D80000E943F26089590E080E00E941B2621E0FB
:101D9000873E9E4F09F020E0822F089582E090E078
:101DA0000E941326089583E090E00E941326089570
:101DB00084E090E00E941B260895BC0184E090E03E
:101DC0000E943F260895AB01BC018FE090E00E9485
:101DD00033260895AB01BC0183E190E00E943326D5
:101DE000089560E070E0CB010E94EA0E089560E083
:101DF00070E0CB010E94E30E0E94F10E089567EEA1
:101E00007EEF90E080E00E943F2660E082E090E07C
:101E10000E94212660E083E090E00E94212610923B
:101E2000B1011092B00160E074E184E090E00E94A2
:101E30003F2660E086E090E00E9421266FEF87E079
:101E400090E00E94212640E050E0BA0188E090E056
:101E50000E94332660E08DE090E00E94212640E061
:101E600050E0BA0188E190E00E94332660E087E10B
:101E700090E00E94212640E050E0BA018CE190E021
:101E80000E94332670E060E080E290E00E943F26EE
:101E900040E050E0BA0188E190E00E9433260E94C1
:101EA000F70E08950E94FF0E0895682F8EE090E0CF
:101EB0000E9421260895A5E0B0E0E1E6FFE00C9441
:101EC000C0250E94B21D8C0180912E0290912F029C
:101ED00080179107A1F08FEF89838A831B820E946C
:101EE000B21D8160782F9D838C8349815A816B81DB
:101EF0008D810E94A60510932F0200932E02259635
:101F0000E4E00C94DC250E94BE1D609335027093C2
:101F100036028093370290933802609331027093B7
:101F20003202809333029093340208950895089505
:101F30000E94970F089508950E949B0F089581E0D5
:101F4000089584EE9FE10E94621B0E94960F0E94FA
:101F5000980F08950E949F0F08950E94AA0F089558
:101F6000089508950E94B00F0E94B10F08950E9435
:101F70004E120E94580508950E94A91D0E940F1339
:101F80000E94B70F0E946B180E949C0F0895A5E055
:101F9000B0E0EDECFFE00C94BD250E949F0F811195
:101FA0000CC00E945B0F0E94A3150E947C170E9428
:101FB0006B052596E7E00C94D9250E941B13109120
:101FC000300280E00E947412181759F38091390290
:101FD00081FD0E947A120E94AD0FD82E80E00E94EF
:101FE0007412182F80913002181721F1E12EE82683
:101FF00000E0FF24F3948E2D8F21B1F0DD20A1F0BD
:1020000009831A8291E0812F8F2109F490E09B834C
:102010000E94B21D8160782F9D838C8349815A81F3
:102020006B818D810E94A6050F5FFF0C043019F7AC
:10203000109330020E94830FB6CF1F93CF93DF938C
:102040000E944C11EC01C11580E5D807F0F5C115CF
:1020500080E4D80708F09CC0C03ED10520F5CD3CF7
:10206000D10508F082C0C83AD10578F4C53AD10547
:1020700008F073C0C130D10519F1209709F1C430BF
:10208000D105F0F4D0E0C0E01BC0C33CD105D0F7CF
:10209000C85AD0E0CC0FDD1FCC5ADE4F0990D88152
:1020A000C02DD4640DC0C11580E2D80708F0D1C09E
:1020B000C11581E0D80708F05AC0C83ED10510F715
:1020C000CE01DF91CF911F910895C03682E5D807E8
:1020D00018F5C03482E5D80708F06BC0C03282E53D
:1020E000D80708F05FC0C11582E5D80708F497C08B
:1020F0002C2F2695269580E2289F900111248C2F65
:102100008370C1E0D0E002C0CC0FDD1F8A95E2F7FA
:10211000C22BD32BDD68D4CFC03A82E5D80760F458
:10212000C03882E5D80708F459C0CF71D0E0DC2F61
:10213000CC27C46FD06AC4CFC03C82E5D80708F46E
:1021400062C0C03E82E5D80708F09CCFDC2FCC27C8
:10215000CC27DF71C06FD06AB3CFC55AD0E0C65765
:10216000DE4FC881D0E0D064ABCFD065A9CF8D2F32
:102170000E94EE11182FCE0199270E944C11C12FF9
:10218000D0E0DC2FCC27CC27DF71C82BD92B98CF00
:10219000CE0199270E944C11CC27DF70C82BD92B78
:1021A000D06A8ECFCF71D0E0DC2FCC27C16FD06A40
:1021B00087CF2C2F26952695277080E2289F9001A7
:1021C00011248C2F8370C1E0D0E002C0CC0FDD1F42
:1021D0008A95E2F7C22BD32BDC6872CF2C2F269581
:1021E0002695277080E2289F900111248C2F837000
:1021F000C1E0D0E002C0CC0FDD1F8A95E2F7C22B10
:10220000D32BDA685DCF8C2F8F710E94EE11C82F0F
:10221000D0E0DC2FCC27CC27DF71D06251CF8C2FC0
:102220008F710E94EE1155E0D695C7955A95E1F74A
:10223000CF70D0E0DC2FCC27282F30E084FF05C002
:1022400044E0220F331F4A95E1F7C22BD32BD0690C
:1022500037CF8D2F8F710E94EE11182FCE01992745
:102260000E944C11C12FD0E0DC2FCC27CC27DF718E
:10227000C82BD92BD2CF462F711106C0643020F461
:1022800060E00E945104089590E080E008950E946B
:102290003B110E941D10089582389105B9F1B0F4E8
:1022A0008133910509F47DC048F48932910509F420
:1022B0006DC08A32910509F47BC00895853391057C
:1022C00009F45FC08933910509F10895833E9105B2
:1022D000D9F138F4803E910529F1823E910579F1DA
:1022E0000895863E9105D9F1873E910509F43EC0D7
:1022F000843E910541F52091B30221FF24C08091D5
:10230000B20284FD19C087EE90E008952091B202D8
:10231000237009F05AC02091B30223FF14C089E250
:1023200090E008952091B20220FD38C03091B302B0
:1023300030FF09C024FF43C090E080E00895209161
:10234000B20222FDF7CF08952091B20222FD3AC0D9
:102350003091B30230FD39C024FFF5CFEDCF20918D
:10236000B20223FFF0CF24FDE7CFCDCF2091B20200
:1023700023FD2EC03091B30231FFEECF84EE90E00A
:1023800008952091B20225FFDECFC9CF2091B2027D
:1023900025FD21C02091B30223FFD5CF89E390E032
:1023A000D2CF2091B20226FFCECF8AE290E00895EC
:1023B0002091B20226FFC7CF81E390E0089583EE1B
:1023C00090E0089582EE90E0089580EE90E0089508
:1023D00086EE90E0089585E390E008959091B20232
:1023E00092FF06C0282F28712830F9F4877F846077
:1023F00093FF06C0282F28712831F1F4877E84616D
:102400002091B30220FF06C0382F38713830D9F43C
:10241000877F816021FF06C0282F28712831D1F4E1
:10242000877E816194FD877E0895282F2471243052
:10243000F9F68B7F8860DCCF282F2471243101F7D7
:102440008B7E8861DDCF382F3171313019F78E7F67
:102450008860E0CF282F2171213121F78E7E88619D
:10246000E1CF0E94BC0E08950E941B132FEF86E758
:1024700091E0215080409040E1F700C000000E94B0
:102480001B1380E00E94741280FF04C00E9431126E
:102490000E94FD1D08950E94341208950E94C30EEB
:1024A000811102C00E94520F0E94CE0E8093390209
:1024B0000E94D80E9093B3028093B2020E944B12F6
:1024C0000E94D30E90E00E9477098091AE01909116
:1024D000AF010E949809089508950E946C12089512
:1024E00008950E9470120895E82FF0E0EB54FD4F1C
:1024F000808108958DE091E00E94D0021F921F928A
:1025000088E091E09F938F930E94690385E091E0BA
:102510000E94D0028091B5020E942D051F928F93D8
:1025200080E091E09F938F930E9469038EEF90E08B
:102530000E94D0028DB79EB708960FB6F8949EBF42
:102540000FBE8DBF089580EA8A95F1F7089500C007
:1025500008950E94A3120895F894E82FE295EF7071
:10256000F0E031A1282F2F7081E090E001C0880FAA
:102570002A95EAF7982F9095932391A392A1892BFE
:1025800082A37894089582E30E94AC1280EF0E94A7
:10259000AC1281EF0E94AC1280E30E94AC1281E386
:1025A0000E94AC1208950F931F93CF93DF938C0179
:1025B000C62FF894229A2A9878940E94A712EDE8E0
:1025C000F1E081E0D0E091919F3F79F0A92FA295B1
:1025D000AF70B0E090962C9130E09F7002C03595BE
:1025E00027959A95E2F7982F20FD90E0D92B880F38
:1025F00091E0E139F90739F782E30E94AC1261E01A
:10260000D11101C060E08C2F0E94A912F801EC0FDB
:10261000F11DD083DF91CF911F910F9108950E94FA
:10262000C3121092B5021092B40281E00E944013CE
:102630000E946D120895A1E0B0E0E1E2F3E10C9494
:10264000C125198260E0CE0101960E94D3129091BB
:10265000B402898121E0981301C020E0981380938F
:10266000B40241E065EB72E084EB92E00E9441131A
:10267000182F0E947112812F2196E3E00C94DD2522
:102680000895CF92DF92EF92FF920F931F93CF9313
:102690006C017B01042F222349F081E080933C02EE
:1026A0000E94B21D90933B0280933A02C0913C027B
:1026B000C1110AC0C0E08C2FCF911F910F91FF90E4
:1026C000EF90DF90CF90089580913A0290913B0275
:1026D0000E94CA1D059770F310E0A801B601C7015A
:1026E0000E94FD25892B41F0A801B601C7010E9477
:1026F0000A2610923C02DFCFC0E0FBCF0E94602090
:102700000E94BC0F0E946D2008950E9472200E94BA
:10271000C70F0E94902008950E944B1D0E944620E2
:102720000E94A10F0E947E130E9485130E94B20F87
:10273000FBCF8091430280FF0DC06091070170E0E4
:10274000660F771F6038710570F56115710569F1C5
:10275000862F089581FF07C06091070184E0689F7C
:10276000B0011124EFCF6091070182FD0AC0809172
:1027700042028823A9F02091060160910701821787
:1027800010F088E0ECCF869FC001112433E0880F61
:10279000991F3A95E1F7622F70E00E949825D2CFF9
:1027A00068E070E0D5CF8FE7089581E008958091CB
:1027B000430280FF0CC06091030170E0759567953E
:1027C000759567956115710549F1862F089581FF0B
:1027D00006C06091030170E075956795F3CF609135
:1027E000030182FD0BC0909141029923A1F06091F9
:1027F000020180910301961738F0682F70E060386D
:10280000710500F38FE70895899FC001112470E0DE
:102810000E949825F4CF61E070E0D7CF81E0089561
:102820008D3C31F40E94991381958093470208955D
:102830008E3C19F40E949913F8CF8F3C31F40E941A
:1028400099138195809346020895803D19F40E9462
:102850009913F8CF893D29F40E94D7138093480239
:1028600008958A3D21F40E94D7138195F7CF8B3DBF
:1028700031F40E94D71381958093490208958C3DCD
:1028800019F40E94D713F8CF9FE2980F983070F494
:10289000815D990B21E030E001C0220F8A95EAF7B3
:1028A00080914502822B8093450208958D3D31F43D
:1028B0008091430281608093430208958E3D21F40C
:1028C000809143028260F7CF8F3DB9F78091430238
:1028D0008460F1CF409146028D3C59F480914702CB
:1028E00087FF0DC01092470241110BC010924202A7
:1028F00008C08E3C81F48091470218169CF3442353
:1029000081F08091480290914902892B09F05AC0C8
:102910001092410208958F3C49F447FFF0CF109286
:102920004602809147028111ECCFE0CF803D19F43F
:102930001416ACF3E4CF90914802893D29F419169E
:10294000F4F610924802DBCF8A3D19F497FFD7CFF7
:10295000F8CF909149028B3D29F497FFD0CF109288
:102960004902CDCF8C3D19F41916CCF3C8CF9FE2A4
:10297000980F983090F4815D990B21E030E0B90117
:1029800002C0660F771F8A95E2F7CB018095909180
:102990004502892380934502B2CF8D3D31F4809169
:1029A00043028E7F80934302AACF8E3D21F4809113
:1029B00043028D7FF7CF8F3D09F0A1CF8091430275
:1029C0008B7FF0CF08958091390283FF7EC083E42E
:1029D00091E00E94D002809145021F928F938EE376
:1029E00091E09F938F930E9469038CE391E00E9492
:1029F000D00280914602282F082E000C330B3F9303
:102A00008F9389E391E09F938F930E94690387E3FB
:102A100091E00E94D00280914702282F082E000CDE
:102A2000330B3F938F9384E391E09F938F930E94A6
:102A3000690382E391E00E94D00280914802282F2E
:102A4000082E000C330B3F938F938FE291E09F93FE
:102A50008F930E9469038DE291E00E94D0028091E1
:102A60004902282F082E000C330B3F938F938AE2E4
:102A700091E09F938F930E94690387E291E00E9407
:102A8000D002809142021F928F9384E291E09F9343
:102A90008F930E94690382E291E00E94D0028091AC
:102AA00043021F928F938FE191E09F938F930E9437
:102AB00069038CE191E00E94D0028DB79EB74C96DD
:102AC0000FB6F8949EBF0FBE8DBF0E94B21D9C0131
:102AD0009091460280914702982B21F0309340025A
:102AE00020933F029091480280914902982B21F057
:102AF00030933E0220933D0284E492E00E94CC1B7E
:102B0000089586E0E4E4F2E0DF011D928A95E9F79A
:102B10001092420210924102109243020895FC0169
:102B2000828181110EC0838181110BC0848181114A
:102B300008C091E08581811101C090E0892F8170EA
:102B4000089581E0FCCFA6E0B0E0E9EAF5E10C945D
:102B5000C12586E0E4E4F2E0DE01119601900D92D9
:102B60008A95E1F7109246021092470210924802AD
:102B7000109249028B819C81892B89F080913F02C0
:102B8000909140020E94CA1DAC019091420299238B
:102B9000C9F1809108018417150608F440C08D81A1
:102BA0009E81892B91F080913D0290913E020E947E
:102BB000CA1DAC0190914102992309F471C0809122
:102BC00004018417150608F479C0BE016F5F7F4FBA
:102BD00084E492E00E94081D811105C084E492E023
:102BE0000E948F1581110E94E31486E0FE01319648
:102BF000A4E4B2E001900D928A95E1F72696E3E015
:102C00000C94DD25209109018AE0289F9001112470
:102C10002417350720F69F5F9093420202C09F3F22
:102C2000D1F71B81112359F00E9499139FEF1116C0
:102C30000CF491E0899F802D1124809346021C8121
:102C4000112359F00E9499139FEF11160CF491E093
:102C5000899F802D112480934702309146023323AF
:102C600009F49DCF20914702222309F498CF45EB28
:102C70003403C0011124992359F09093460245EB87
:102C8000240390011124332339F03093470287CF76
:102C900081E080934602F3CF81E0809347027FCFAB
:102CA000209105018AE0289F9001112424173507FF
:102CB00008F08BCF9F5F9093410202C09F3FD1F7F6
:102CC0001D81112359F00E94D7139FEF11160CF4A8
:102CD00091E0899F802D1124809348021E81112349
:102CE00059F00E94D7139FEF11160CF491E0899FC1
:102CF000802D11248093490230914802332309F436
:102D000064CF20914902222309F45FCF45EB3403BD
:102D1000C0011124992359F09093480245EB2403F4
:102D200090011124332339F0309349024ECF81E0D2
:102D300080934802F3CF81E08093490246CFCF933E
:102D4000DF93EC01FB018281882309F4D2C09E014C
:102D500030572332310508F0B2C00E94D80E90934C
:102D6000B3028093B202FE01E150F047E232F10576
:102D700020F4ED59F94D0C94AC258091B20281609C
:102D80008093B20293C08091B30288608093B302B3
:102D90008DC08091B2028260F3CF8091B2028460D4
:102DA000EFCF8091B2028860EBCF8091B302816057
:102DB000EDCF8091B3028260E9CF8091B202806151
:102DC000DFCF8091B2028062DBCF8091B20280645B
:102DD000D7CF0E9424098091B2028068D1CF809120
:102DE000B2028C60CDCF8091B3028360CFCF80914F
:102DF000B2028E7FC5CF8091B302877FC7CF80910B
:102E0000B2028D7FBDCF8091B2028B7FB9CF80910E
:102E1000B202877FB5CF8091B3028E7FB7CF80910A
:102E2000B3028D7FB3CF8091B2028F7EA9CF809104
:102E3000B2028F7DA5CF8091B2028F7BA1CF0E947D
:102E400024098091B2028F779BCF8091B202837F59
:102E500097CF8091B3028C7F99CF8091B20282FB91
:102E6000992790F921E0922790FB82F990FB83F952
:102E700087CF8091B302982F909591708E7F892B88
:102E800090FB81F983CF9091B202892F8F7B96FFBF
:102E9000806476CF0E9424099091B202892F97FB1B
:102EA00087F980586DCF81E00E94550F8091B20262
:102EB0009091B3020E94DD0E0E94240980E0DF9110
:102EC000CF91089580E0F0CF9091B202892F8F7E4C
:102ED00094FF806155CF9091B202892F8E7F90FF31
:102EE00081604ECF9091B302892F877F93FF8860D6
:102EF0004DCF81E0E4CF08950E94A519882309F4FD
:102F000055C00E94B11980934C020E94B119809360
:102F10004D020E94B11980934E0280914C02909113
:102F2000B002892B20914D0290914E0240914F02A8
:102F300030914A0238273770522F592B542B352B9A
:102F400051F180934A02382F307484FF38C0311118
:102F500003C0203809F027FF21E885FF36C087FD30
:102F600003C0903809F097FF91E8877080934C0276
:102F7000822F819580934D02892F819580934E02F7
:102F8000242B922B21F08BE492E00E94A9038BE486
:102F900092E00E94CC1B10924D0210924E021092B1
:102FA0004F021092500210924C0208958091390203
:102FB00083FFB3CF83E392E00E94D002AECF311102
:102FC00002C027FFCACF2FE7C8CF87FD02C097FFF7
:102FD000CCCF9FE7CACFCF9385EF0E94C419C82FEB
:102FE0008091390283FF1BC082E192E00E94D002EF
:102FF000809174021F928F931F92CF931F9285EF3F
:103000008F938CEE91E09F938F930E9469038DB70D
:103010009EB708960FB6F8949EBF0FBE8DBFCF9196
:103020000895CF9384EF0E94C419C82F809139026C
:1030300083FF1BC08CEC91E00E94D002809174024F
:103040001F928F931F92CF931F9284EF8F9386EAE4
:1030500091E09F938F930E9469038DB79EB7089666
:103060000FB6F8949EBF0FBE8DBFCF910895CF933A
:1030700080915102811102C00E94EB178AEE0E94DA
:10308000C419C82F8091390283FF1BC08CE891E0DE
:103090000E94D002809174021F928F931F92CF934F
:1030A0001F928AEE8F9386E691E09F938F930E9402
:1030B00069038DB79EB708960FB6F8949EBF0FBEF2
:1030C0008DBF80915102811102C00E94111810928F
:1030D0005102CF910895CF930E943C192FEF83EDB9
:1030E00090E3215080409040E1F700C000008FEF56
:1030F0000E94C419C82F8091390283FF1BC084EE3F
:1031000092E00E94D002809174021F928F931F92CE
:10311000CF931F928FEF8F938EEB92E09F938F93BD
:103120000E9469038DB79EB708960FB6F8949EBFAC
:103130000FBE8DBF0E94B119C82F8091390283FF45
:1031400016C085EA92E00E94D002809174021F921C
:103150008F931F92CF938CE892E09F938F930E945E
:1031600069030F900F900F900F900F900F900E9497
:10317000B119C82F8091390283FF16C081E792E010
:103180000E94D002809174021F928F931F92CF935E
:1031900088E592E09F938F930E9469030F900F90B0
:1031A0000F900F900F900F900E9411180E943718E7
:1031B0000E947B17CF9108955D98559A0895559870
:1031C0005D9A089555985D9A85E08A95F1F700001B
:1031D00089B185FB882780F908955A98529A0895F5
:1031E00052985A9A089552985A9A85E08A95F1F71A
:1031F000000089B182FB882780F908959FB7F89471
:103200002091520280915302821769F030E0F90157
:10321000EC5AFD4F80812F5F3F4F2F713327209352
:1032200052029FBF089580E0FCCFCF93DF93EC0163
:103230000E94E218882311F0209721F4CE01DF913B
:10324000CF91089585E08A95F1F700002197F0CF9E
:10325000CF93DF93C2E3D0E00E94E218811102C055
:10326000209721F4CE01DF91CF91089585E08A95D2
:10327000F1F700002197F0CF0E94DF180E94F018AC
:103280005D985A9886E78093CA001092C800109201
:10329000CD001092CC0080E98093C90008951F9260
:1032A0000F920FB60F9211242F933F934F935F937A
:1032B0006F937F938F939F93AF93BF93CF93EF932E
:1032C000FF938091C8008C714091CE0081112CC079
:1032D000CFB7F8948091530290E09C012F5F3F4F4D
:1032E0002F713327509152025217C9F08C5A9D4FBB
:1032F000FC01408320935302CFBFFF91EF91CF9108
:10330000BF91AF919F918F917F916F915F914F91FD
:103310003F912F910F900FBE0F901F90189582E054
:1033200093E00E94D002E8CF1F924F931F928F9399
:103330008EE093E09F938F930E9469030F900F900C
:103340000F900F900F900F90D8CF9FB7F89481E017
:103350003091530220915202321301C080E09FBF8E
:103360000895CF93CAE1C15021F40E94FE18CF9175
:1033700008950E94A5198111F8CF8FE99FE0019768
:10338000F1F700C00000EFCFEF92FF920F931F9371
:10339000CF93DF93E82E109274021092CA008091AE
:1033A000C900877E8093C9000E94DC180E94F01833
:1033B0008FE891E00197F1F700C000000E94ED183E
:1033C0000E94DF1880E197E20E941519892BD9F439
:1033D0008AE0809374020E94DF180E94F0185D98C2
:1033E0005A9886E78093CA001092C8001092CD00C8
:1033F0001092CC0080E98093C90080E0CDB7DEB7A1
:10340000E6E00C94DA25D0E0C0E011E0F12C01E018
:1034100090E59A95F1F7C7010C2E02C09595879516
:103420000A94E2F780FF09C010270E94F0180E945A
:103430002819892B29F482E0CCCF0E94ED18F7CF10
:1034400082E390E00E941519892B11F483E0C1CF2B
:103450002196C830D105E1F680E58A95F1F7112370
:1034600041F00E94F0180E942819892B29F484E069
:10347000B0CF0E94ED18F7CF82E390E00E941519BB
:10348000892B11F485E0A5CF90E59A95F1F70E947C
:10349000F018C2E3D0E00E94F318882351F020977F
:1034A00011F486E096CF25E02A95F1F700002197E8
:1034B000F2CFCD2BB1F382E390E00E941519892B56
:1034C00011F487E086CF0E942819892B79F488E0CF
:1034D00080CF85E08A95F1F7000021970E94F318CC
:1034E000811107C02097A9F789E073CFC2E3D0E02C
:1034F000F5CFCD2BC9F30E94DF180E94F0185D981C
:103500005A9886E78093CA001092C8001092CD00A6
:103510001092CC0080E98093C9000E94B1196ECF4F
:10352000CF93DF93EB0186319C4711F50E94C20DCA
:103530009A81992399F08A7A91E009F490E0909326
:103540007502811109C089E20E949A0D0E94030E42
:1035500080E0DF91CF91089585E3F6CF80917502E9
:10356000811104C089E20E94A20DF0CF85E3FBCF58
:1035700081E0EFCF0F931F93CF93DF93C42FD22F10
:10358000FC0182818823C9F0409378020E94B21D19
:10359000909377028093760280E28C0F883040F41B
:1035A000C77081E001C0880FCA95EAF70E94BA0689
:1035B000DF91CF911F910F9108951091780214130C
:1035C00032C080917602909177020E94CA1D883C99
:1035D000910548F5C0E2CD0F1D17B9F080E2810FCB
:1035E000883040F4177081E001C0880F1A95EAF71F
:1035F0000E94C106C83048F481E09D2F977001C039
:10360000880F9A95EAF70E94BA06802F0E94B106A9
:10361000C83070F6D77081E001C0880FDA95EAF7FC
:103620000E94C106C5CF80E28C0F883008F6C770B3
:1036300081E001C0880FCA95EAF7F2CF0F93DB0152
:1036400088519C4787309105A0F5FC01EB57F94D57
:103650000C94AC2506E221EE41EE6AE17CE7CD0157
:103660000E94BA1A80E00F91089507E225EE45EE18
:103670006BE17CE7F4CF06E221EE40EE68E17CE707
:10368000EECF07E225EE44EE69E17CE7E8CF06E203
:1036900021EE42EE6CE17CE7E2CF07E225EE46EE5A
:1036A0006DE17CE7DCCF08E221E045EE6EE17CE7EE
:1036B000D6CF12968C91882319F010927802D3CF2E
:1036C00081E0D1CF9093A1018093A00108959093C0
:1036D0007E0280937D020895E0917D02F0917E024A
:1036E000309729F00190F081E02D0995089580E050
:1036F0000895EF92FF920F931F93CF93DF93EC0106
:10370000E0917D02F0917E02309709F440C08091F3
:103710001201882341F08091B20287FF04C08881A2
:10372000898386E088830280F381E02DCE010995AC
:103730008091390282FF2BC080FF04C088E393E0B0
:103740000E94D00210E000E082E3E82E83E0F82E31
:103750008091390280FF0EC0FE01E00FF11F8081D1
:103760001F928F93FF92EF920E9469030F900F9028
:103770000F900F900F5F1F4F0830110549F7809190
:10378000390280FF04C080E393E00E94D002CDB7ED
:10379000DEB7E6E00C94DA25E0917D02F0917E023E
:1037A000309739F022E0DC012C930480F581E02D84
:1037B00009950895A3E0B0E0E0EEFBE10C94C2258A
:1037C00020917B0230917C0228173907A1F0909359
:1037D0007C0280937B02E0917D02F0917E02309723
:1037E00051F023E029839B838A830680F781E02DB3
:1037F000CE01019609952396E2E00C94DE25A3E024
:10380000B0E0E5E0FCE10C94C22520917902309112
:103810007A0228173907A1F090937A0280937902EF
:10382000E0917D02F0917E02309751F024E02983EF
:103830009B838A830680F781E02DCE01019609954E
:103840002396E2E00C94DE25FC0132968091120171
:10385000882321F08091B2029EE187FF96E080E00C
:10386000915008F4089521912223D1F38F5FF8CF6E
:10387000662301F1209112012223F1F02091B2027E
:1038800027FF1AC0462F4695469546954E3190F42F
:10389000677021E030E002C0220F331F6A95E2F723
:1038A000840F911DFC01828190E02823392381E05F
:1038B000232B69F480E00895FC013296089621914B
:1038C000261721F0E817F907D1F7F4CF81E0089522
:1038D0009C01FC0132969FEF80E04191461751F028
:1038E0009F3F19F4411101C0982F8F5F8630A9F7CF
:1038F0009F3F09F40895290F311D97FD3A95F9016D
:1039000062830895FC01329608962191261303C024
:10391000DF0111971C92E817F907B9F70895E62F10
:10392000E695E695E695EE3170F4E80FF92FF11D76
:10393000677021E030E001C0220F6A95EAF78281CA
:10394000822B828308958091390280FF0CC01F92E0
:103950006F9388E693E09F938F930E9469030F9083
:103960000F900F900F900895E62FE695E695E69557
:10397000EE3178F4E80FF92FF11D677021E030E0A7
:1039800001C0220F6A95EAF72095828128232283BD
:1039900008958091390280FF0CC01F926F938AE4D2
:1039A00093E09F938F930E9469030F900F900F9065
:1039B0000F90089520911201222339F02091B20234
:1039C00027FF03C00E948F1C08950E94681C089561
:1039D00020911201222339F02091B20227FF03C067
:1039E0000E94B41C08950E94821C0895FC01329626
:1039F00080911201882351F08091B20287FF06C0A6
:103A00008EE1DF011D928A95E9F7089586E0F9CFEE
:103A100046E050E00E94FD2521E0892B09F420E0DA
:103A2000822F089508950E94121D0895811106C0E5
:103A300081E080937F020E94131D089582E0F9CFF8
:103A400083E080937F020E94131D08950E94161D3B
:103A5000089581E080937F020E94131D08950E94C3
:103A6000291D0895089508950E94331D089508950D
:103A700008950E94321D08950E94371D0E941B1355
:103A80000E94381D80E00E94741291E0811101C0F3
:103A900090E0892F089585B7806885BF85B78068D5
:103AA00085BF08951F921FB61F9211248F939F9375
:103AB000AF93BF9380918002811113C08091B602B1
:103AC0009091B702A091B802B091B9024196A11DA0
:103AD000B11D8093B6029093B702A093B802B09341
:103AE000B902BF91AF919F918F911F901FBE1F9000
:103AF00018958091BE02843031F10E942305109206
:103B0000800288E190E020E40FB6F894A8958093B5
:103B100060000FBE2093600083B7817F846083BF05
:103B200083B7816083BF7894889583B78E7F83BF86
:103B30000FB6F894A895809160008861809360002A
:103B4000109260000FBE08950E9424090E9428056B
:103B5000089582E084BD93E095BD9AEF97BD809370
:103B60006E0008952FB7F8948091B6029091B70235
:103B7000A091B802B091B9022FBF08952FB7F89461
:103B80006091B6027091B7028091B8029091B9022B
:103B90002FBF08959C014FB7F8948091B602909181
:103BA000B702A091B802B091B9024FBF821B930B2C
:103BB000089578941F921FB61F9211248F939F939C
:103BC000AF93BF938091B6029091B702A091B802D3
:103BD000B091B9020196A11DB11D8093B6029093D8
:103BE000B702A093B802B093B902BF91AF919F9171
:103BF0008F911F901FBE1F901895F89481E08093BD
:103C0000E00080E28093D800E9ECF0E010828FE1E0
:103C10009EE40197F1F700C000001DBA1092680001
:103C20001CBC10BE1FBA10927A0010926E00109247
:103C30006F0010927100109272001082ECEBF0E0B5
:103C4000108214B817B81AB81DB810BA108215B877
:103C500018B81BB81EB811BA0C94003F089588E13B
:103C60009AE00FB6F894A895809360000FBE9093E9
:103C70006000FFCF8091A40208959B01BA0190914A
:103C8000BE029430E9F48F708093E9009FEF809139
:103C9000E800915085FD06C085ED8A95F1F700009A
:103CA0009111F5CF8091E80085FF0AC050E040E017
:103CB000C9010E9406218091E8008E778093E80078
:103CC000089543E050E0BC0182E00E943D1E08954B
:103CD00046E050E0BC0182E00E943D1E0895CF9373
:103CE000DF93EC0180911201811111C048E050E096
:103CF000BE0181E00E943D1E80E2FE01A4E8B2E028
:103D000001900D928A95E1F7DF91CF91089580910E
:103D1000B20287FF05C040E282E050E0BE01EACF78
:103D200048E081E0FACF8AE993E00E94D0028091D6
:103D3000BD02811109C00E9496220E94F322809147
:103D4000E20084608093E200089586E993E00E9497
:103D5000D0021092BD02089582E993E00E94D00241
:103D60000E94291D08958EE893E00E94D002609180
:103D7000BA0281E0611101C080E00E94201D089517
:103D80008AE893E00E94D0029091BE0281E09430D4
:103D900009F080E06091BA020E94261D08952091EA
:103DA00082022F5F822F62E30E948C25992319F0F3
:103DB00020938202089510928202809183028823C8
:103DC000F1F08091BE028430C1F49091E9009F70BF
:103DD0002091EC00822F817020FD80E8892B93E0F8
:103DE0009093E9009091EB0090FF04C09091EE0059
:103DF00097FD08C08F708093E900109283020895A8
:103E00001092F1009091E80095FDFACF9091E800B2
:103E100090FFF0CF9091E8009E779093E800EACF72
:103E200042E061EC81E00E94122242E261EC82E019
:103E30000E94122242E261EC83E00E9412229091E1
:103E4000BE0281E0943009F080E06091BA020E94E5
:103E5000161D08958091C002833009F461C030F4CA
:103E60008130D1F1823009F49EC008958A3009F47E
:103E70008AC08B3009F46FC0893009F050C080913E
:103E8000BF02813209F04BC08091C3029091C402FD
:103E9000029708F044C08091E800877F8093E80093
:103EA0008091E80082FF37C09091F3008091F2008A
:103EB000029731F48091F100813011F0863021F4C5
:103EC0008091F1008093A4028091E8008B77809329
:103ED000E8000E94462223C08091BF02813AF9F493
:103EE0008091E800877F8093E8008091C3029091E1
:103EF000C402892B61F460E284E892E070E00E94E1
:103F000055218091E8008B778093E800089560E068
:103F100090E080E0F3CF8091BE028111C1CF08957F
:103F20008091BF02813AD9F78091C3029091C40277
:103F3000892BA9F78091E800877F8093E800809122
:103F4000E80080FFFCCF809112018093F100809106
:103F5000E8008E77BCCF8091BF02813201F780915B
:103F6000C3029091C402892BD1F68091E800877F2B
:103F70008093E8000E9446228091C1028093120142
:103F80000E94240908958091BF02813241F68091F8
:103F9000E800877F8093E8000E9446228091C20259
:103FA0008093A50208958091BF02813A09F0B7CFAE
:103FB0008091E800877F8093E8008091E80080FF8F
:103FC000FCCF8091A502C1CF9FB7F89410928302D5
:103FD0009FBF9091BE02943009F048C02091E90043
:103FE0002F703091EC00932F917030FD90E8922B60
:103FF00023E02093E9002091EB0020FF34C02091C2
:10400000EE0027FF30C020918102222321F0209171
:10401000E80025FF28C01092810226E03091E800D8
:1040200035FF14C08093F1008091E80085FD27C022
:104030008091E80080FFFCCF8091E8008E7780932C
:10404000E8009F709093E90080E008953091BE02EF
:10405000343049F43091EB0035FD05C0215041F476
:1040600081E0809381029F709093E9008FEF089523
:10407000EFE9FFE03197F1F700C00000CFCF8FB735
:10408000F89421E0209383028FBFDBCF84B7877F32
:1040900084BF0FB6F894A8958091600088618093E2
:1040A0006000109260000FBE80E890E00FB6F894B8
:1040B00080936100909361000FBE0E942F1D0895B0
:1040C0000E9496220E94F322E2EEF0E0808184605A
:1040D000808378940E94712508958AE091E00E947F
:1040E000671B08958091BE02853051F486E893E005
:1040F0000E94D0028091BE02853019F00E94A41D5A
:1041000008950E94791D8091BC02882399F30E9432
:104110003C1D882379F30E94F0200E942409EACFF5
:1041200008959A014091C5025091C6020E949920BB
:104130000895492F55274330510521F168F4413046
:10414000510509F443C04230510509F444C090E0E0
:1041500080E050E040E026C04132510551F142324A
:104160005105A9F76330710590F7FB01EE0FFF1FB2
:10417000EC56FE4F408151816F567E4FFB0180818E
:1041800090E010C099278130910581F0009729F0C7
:104190000297E9F6EEE9F3E002C0E0ECF3E0849187
:1041A00090E0AF01F901518340830895E4EBF3E01F
:1041B000F6CF6330710558F6660F771FFB01E656A0
:1041C000FE4F4081518189E090E0ECCF82E190E0A8
:1041D0004FE154E0E7CF8BE590E044EC53E0E2CFD1
:1041E00080E189BD82E189BD09B400FEFDCF8091E7
:1041F000D8008F7D8093D8008091E000826080930A
:10420000E0008091E00081FDFCCF0895AF92BF9265
:10421000CF92DF92FF920F931F93CF93DF936C01A6
:10422000EB018A010E946522F82E811123C001153D
:10423000110539F0F80180819181C81BD90BC80E96
:10424000D91EB12CA12C2097A9F08091E80085FD02
:1042500022C08091E8008E778093E8000115110557
:10426000A1F0F80180819181A80EB91EB182A082CF
:1042700085E0F82E8F2DDF91CF911F910F91FF9048
:10428000DF90CF90BF90AF9008950E946522882361
:10429000D1F2F82EEFCFF60181916F018093F100FA
:1042A0002197FFEFAF1ABF0ACECFFC018091C50264
:1042B0009091C60286179707A0F06115710529F441
:1042C0009091E8009E779093E80090E06115710569
:1042D00051F4911108C08091E80082FF34C080E061
:1042E0000895BC01F2CF8091BE028823C1F18530D0
:1042F000C1F18091E80083FD30C08091E80082FD2B
:10430000EACF8091E80080FFE1CF8091F300209117
:10431000F200382F6115710519F02830310558F079
:1043200091E02830310509F090E02091E8002E77E7
:104330002093E800CBCF81918093F1006150710907
:104340002F5F3F4FE7CF8091BE02882341F0853039
:1043500041F08091E80083FFBECF81E0089582E0C4
:10436000089583E00895FC018091C5029091C602F2
:1043700086179707A0F06115710529F48091E80070
:104380008E778093E80090E06115710551F49111EA
:1043900008C08091E80082FF35C080E00895BC012C
:1043A000F2CF8091BE028823C9F18530C9F1809196
:1043B000E80083FD31C08091E80082FDEACF809162
:1043C000E80080FFE1CF8091F3002091F200382FC8
:1043D0006115710519F02830310558F091E0283049
:1043E000310509F090E08091E8008E778093E80035
:1043F000CBCF84918093F1003196615071092F5F8A
:104400003F4FE6CF8091BE02882341F0853041F0D6
:104410008091E80083FFBDCF81E0089582E0089598
:1044200083E00895982F973028F08F708093E900EB
:1044300081E008959093E900242F762F50E098179B
:1044400031F07091EC002091ED005091F00021FDD1
:1044500002C09F5FE8CF3091EB003E7F3093EB00CE
:104460003091ED003D7F3093ED003091EB003160F5
:104470003093EB007093EC002093ED005093F0002C
:104480002091EE0027FDE5CF80E008958091BF02E6
:1044900087FF13C08091E80082FF06C08091E8008A
:1044A0008B778093E80004C08091BE028111F2CF27
:1044B00008958091BE028823D9F38091E80080FF9F
:1044C000F8CF8091E8008E77ECCF2091E400309116
:1044D000E50095E6A9012091EC00822F817020FF74
:1044E00006C08091E80080FF06C080E0089520911A
:1044F000E80022FD1AC08091BE02882389F0853031
:1045000089F08091EB0085FD0FC02091E40030918F
:10451000E50042175307F9F29150E1F684E008955F
:1045200082E0089583E0089581E008950E940523C4
:104530000E940D23E0EEF0E0808181608083E8ED51
:10454000F0E080818F77808319BCA7EDB0E08C917B
:104550008E7F8C9380818F7E80831092BD02089520
:104560000F931F93CF93DF930E9405230E940D2387
:10457000C8EDD0E088818F778883888180688883C0
:1045800088818F7D888319BC1092BE021092BA0276
:104590001092BC021092BB0200EE10E0F801808184
:1045A0008B7F808388818160888342E060E080E047
:1045B0000E941222E1EEF0E080818E7F8083E2EEA5
:1045C000F0E0808181608083808188608083F80151
:1045D00080818E7F8083888180618883DF91CF9105
:1045E0001F910F910895E8EDF0E080818F7E808328
:1045F000E7EDF0E080818160808384E082BF81E02C
:104600008093BD020E94B0220895E8EDF0E0808121
:104610008E7F80831092E20008951092DA0010924B
:10462000E10008951F920F920FB60F9211242F935D
:104630003F934F935F936F937F938F939F93AF932A
:10464000BF93EF93FF938091E10082FF0BC08091B5
:10465000E20082FF07C08091E1008B7F8093E10040
:104660000E94CF1E8091DA0080FF19C08091D8008F
:1046700080FF15C08091DA008E7F8093DA008091F0
:10468000D90080FF96C080E189BD82E189BD09B46F
:1046900000FEFDCF81E08093BE020E94931E8091B8
:1046A000E10080FF19C08091E20080FF15C0809179
:1046B000E2008E7F8093E2008091E200806180932F
:1046C000E2008091D80080628093D80019BC85E018
:1046D0008093BE020E94B31E8091E10084FF2BC034
:1046E0008091E20084FF27C080E189BD82E189BD1D
:1046F00089B5982F917080FFFBCF8091D8008F7D76
:104700008093D8008091E1008F7E8093E1008091BA
:10471000E2008F7E8093E2008091E20081608093CE
:10472000E2008091BA02882309F449C084E08093B2
:10473000BE020E94C01E8091E10083FF29C08091CB
:10474000E20083FF25C08091E100877F8093E10034
:1047500082E08093BE021092BA028091E1008E7FC7
:104760008093E1008091E2008E7F8093E20080914F
:10477000E20080618093E20042E060E080E00E941D
:1047800012228091F00088608093F0000E94AC1E9D
:10479000FF91EF91BF91AF919F918F917F916F9119
:1047A0005F914F913F912F910F900FBE0F901F90EF
:1047B000189519BC1092BE020E94A51E70CF809160
:1047C000E30087FD93E09093BE02B3CF1F920F9258
:1047D0000FB60F9211242F933F934F935F936F93D4
:1047E0007F938F939F93AF93BF93CF93DF93EF9379
:1047F000FF93D091E900DF708091EC00C82FC17069
:1048000080FDC0E81092E9008091F000877F8093DE
:10481000F00078940E942A241092E9008091F00020
:1048200088608093F000CD2BCF70C093E900FF919A
:10483000EF91DF91CF91BF91AF919F918F917F9138
:104840006F915F914F913F912F910F900FBE0F90FD
:104850001F901895AAE2B0E0E0E3F4E20C94C125C1
:104860008FEB92E02091F100FC012193CF01F2E067
:10487000873C9F07B9F70E942A1F8091E80083FFB9
:104880001EC18091BF029091C0029A3008F017C1FA
:10489000E92FF0E0E457F94D0C94AC25803899F0FD
:1048A000823809F00CC18091C3028F70873008F004
:1048B00006C18093E9008091EB0085FB882780F991
:1048C0001092E90006C08091BB029091BC02911148
:1048D00082609091E800977F9093E8008093F100C8
:1048E0001092F1008091E8008E77E5C0882309F4EA
:1048F000D3C0823009F0E3C08091C1028111D6C0DB
:104900008091C3028F702FEF280F263008F0D7C098
:104910008093E9002091EB0020FFC8C0933031F470
:104920008091EB0080628093EB00C0C09091EB001F
:1049300090619093EB0021E030E001C0220F8A9556
:10494000EAF72093EA001092EA008091EB00886079
:10495000EACF8111B4C01091C1021F778091E300AA
:104960008078812B8093E3008091E800877F80939B
:10497000E8000E9446228091E80080FFFCCF8091F1
:10498000E30080688093E30082E0111183E080936C
:10499000BE0295C08058823008F091C08091C1025B
:1049A0009091C2028C3D23E09207A1F583E08A83B7
:1049B0008AE289834FB7F894DE01139620E03EE047
:1049C00051E2E32FF0E050935700E49120FF03C041
:1049D000E295EF703F5FEF708E2F90E0EA30C0F00D
:1049E000C7968D939D932F5F243159F74FBF8091C8
:1049F000E800877F8093E8006AE270E0CE010196CC
:104A00000E9455218091E8008B778093E80057C081
:104A1000C096E7CF6091C3027091C402AE014F5FB0
:104A20005F4F0E949120BC01892B09F448C09091EE
:104A3000E800977F9093E80089819A810E94B321D2
:104A4000E1CF8038E1F58091E800877F8093E8002E
:104A50008091BA028093F10045CF811130C09091CE
:104A6000C102923060F58091E800877F8093E80072
:104A70009093BA020E9446228091BA02882311F0D4
:104A800084E005C08091E30087FDFACF81E0809348
:104A9000BE020E94101F13C08091C102813079F4C0
:104AA00081E0933009F080E08093BC021092E9002D
:104AB0008091E800877F8093E8000E9446228091E1
:104AC000E80083FF0AC08091E800877F8093E800B8
:104AD0008091EB0080628093EB00AA96E3E00C9457
:104AE000DD25CF938091BE028823A1F0C091E9001B
:104AF000CF709091EC00892F817090FD80E8C82BD9
:104B00001092E9008091E80083FD0E942A24CF7072
:104B1000C093E900CF910895991B79E004C0991FD3
:104B2000961708F0961B881F7A95C9F78095089507
:104B300097FB072E16F4009407D077FD09D00E944A
:104B4000E92507FC05D03EF4909581959F4F089587
:104B5000709561957F4F0895EE0FFF1F0590F491BA
:104B6000E02D09942F923F924F925F926F927F9225
:104B70008F929F92AF92BF92CF92DF92EF92FF926D
:104B80000F931F93CF93DF93CDB7DEB7CA1BDB0B19
:104B90000FB6F894DEBF0FBECDBF09942A883988BE
:104BA00048885F846E847D848C849B84AA84B984C5
:104BB000C884DF80EE80FD800C811B81AA81B981D1
:104BC000CE0FD11D0FB6F894DEBF0FBECDBFED01E5
:104BD0000895AA1BBB1B51E107C0AA1FBB1FA61744
:104BE000B70710F0A61BB70B881F991F5A95A9F796
:104BF00080959095BC01CD010895FB01DC0104C0B6
:104C00008D910190801921F441505040C8F7881BC4
:104C1000990B0895FB01DC0102C001900D924150F7
:104C20005040D8F70895F999FECF92BD81BDF89A0A
:104C3000992780B50895A8E1B0E042E050E00C94D7
:104C40004726262FF999FECF92BD81BDF89A01978C
:104C500000B4021639F01FBA20BD0FB6F894FA9AC4
:104C6000F99A0FBE08950396272F0E9422260E94CC
:104C70002126252F0E942226242F0C9422260196DD
:104C8000272F0E9422260C942126DC01CB01FC0157
:104C9000F999FECF06C0F2BDE1BDF89A319600B495
:104CA0000D9241505040B8F70895F894FFCF070790
:104CB000070758075807CB07E70736073607EC07FB
:104CC0005D086C086C08F7166B17FF16C916CD1631
:104CD0000317D11607171317DD166417E1161717F8
:104CE000E5161B174317E9161F174A17EF16251766
:104CF0002D17D5160B17D9160F17F31629173917B5
:104D000053176217C316FB1672173B1B411B2A1B56
:104D1000351B471B4D1B531B4E2476245F257624E1
:0C4D20005F25A924CA245F2521252D252C
:104D2C000C02280850011E0A14013A1E6F1E681E40
:104D3C00611E013200320003000300E200E900EAC8
:104D4C0000B500B600B700CD008301CC008A0192FB
:104D5C000194012102230224022502260227022AA1
:104D6C0002B300B4006F0070009F01CB019F02A042
:104D7C0002818283E200E900EA00B500B600B700C8
:104D8C00CD008301CC008A019201940121022302FF
:104D9C0024022502260227022A02B300B4006F0067
:104DAC0070009F01CB019F02A002818283F0F13041
:104DBC003140B622090553043104D603EF0308042D
:00000001FF
