:100000000C94A5020C94C2020C94C2020C94C2027D
:100010000C94C2020C94C2020C94C2020C94C20250
:100020000C94C2020C94C2020C9436230C940A2441
:100030000C94761D0C94C2020C94C2020C94C20261
:100040000C94C2020C94C2020C94C2020C94C20220
:100050000C94C2020C94FD1D0C94C2020C94C202BA
:100060000C94C2020C9473190C94C2020C94C20238
:100070000C94C2020C94C2020C94C2020C94C202F0
:100080000C94C2020C94C2020C94C2020C94C202E0
:100090000C94C2020C94C2020C94C2020C94C202D0
:1000A0000C94C2020C94C2020C94C202D100D30080
:1000B000D400D20044454255473A206469736162D6
:1000C0006C65642E0A0044454255473A20656E61CE
:1000D000626C65642E0A000A0025303258006C6597
:1000E000645F7461736B3A20004F6E6573686F7460
:1000F0003A206163746976653A2025640A000A0033
:1001000025303862003A200025303258000A722F1C
:10011000632030313233343536370A00290A00255E
:1001200075002F002575005D28002564002000253E
:100130006400200025640020002564007C00253038
:100140003258006D6F7573656B6579205B62746EF4
:100150007C782079207620685D287265702F616335
:100160006C293A205B0020636F6D6D616E643A20EC
:1001700025582C20726573756C743A2025582C20F4
:100180006572726F723A202558200A00707332200F
:100190006D6F757365207365742073747265616D1E
:1001A000206D6F64650020636F6D6D616E643A2031
:1001B00025582C20726573756C743A2025582C20B4
:1001C0006572726F723A202558200A0070733220CF
:1001D0006D6F75736520656E61626C652064617416
:1001E00061207265706F7274696E670020636F6D55
:1001F0006D616E643A2025582C20726573756C749D
:100200003A2025582C206572726F723A20255820AA
:100210000A00707332206D6F7573652064697361B5
:10022000626C652064617461207265706F727469BC
:100230006E67007073325F6D6F7573653A2066612B
:10024000696C20746F20676574206D6F757365200D
:100250007061636B65740A0020726573756C743A23
:100260002025582C206572726F723A202558200A7A
:10027000007073325F6D6F7573655F696E69743A94
:10028000207265616420446576494400207265737C
:10029000756C743A2025582C206572726F723A2062
:1002A0002558200A007073325F6D6F7573655F6942
:1002B0006E69743A20726561642042415400206383
:1002C0006F6D6D616E643A2025582C2072657375D0
:1002D0006C743A2025582C206572726F723A202572
:1002E00058200A007073325F6D6F7573655F696EB9
:1002F00069743A2073656E64696E67207265736510
:100300007400706275663A2066756C6C0A00505312
:1003100032205553415254206572726F723A202533
:1003200030325820646174613A20253032580A0016
:100330000A002530325820006B6579626F61726463
:100340005F7265706F72743A200064656C5F6B65F4
:10035000795F6269743A2063616E27742064656C0A
:100360003A20253032580A006164645F6B65795F1A
:100370006269743A2063616E2774206164643A2074
:10038000253032580A005B735D005B575D005B539C
:100390005D005B525D005B445D005B435D001403E8
:1003A00073006100750063006500620061006C000D
:1003B0006C0000000A037800690061003000000052
:1003C0000403090409025B00030100A0FA09040008
:1003D0000001030101000921110100012240000771
:1003E0000581030800010904010001030000000960
:1003F000211101000122B600070582032000010936
:100400000402000203000000092111010001222260
:1004100000070583032000010705030320000112E4
:1004200001000200000008001A7B5A0001010200CE
:10043000010631FF0974A1010975150026FF009519
:1004400020750881020976150026FF0095207508A1
:100450009102C005010902A10185020901A100055F
:100460000919012908150025019508750181020562
:1004700001093009311581257F950275088106092A
:10048000381581257F950175088106050C0A38020B
:100490001581257F950175088106C0C00501098079
:1004A000A101850319012AB700150126B70095019E
:1004B00075108100C0050C0901A101850419012AEC
:1004C000A002150126A002950175108100C005014A
:1004D0000906A1018506050719E029E71500250190
:1004E0009508750181020507190029EF15002501FE
:1004F00095F0750181020508190129059505750119
:100500009102950175039101C005010906A101053C
:100510000719E029E7150025019508750181029565
:1005200001750881010507190029FF150026FF0044
:1005300095067508810005081901290595057501BD
:100540009102950175039101C00011241FBECFEFE8
:10055000DAE0DEBFCDBF11E0A0E0B1E0E4E7FDE40A
:1005600002C005900D92A03AB107D9F722E0A0EAA7
:10057000B1E001C01D92AA3CB207E1F70E945713F7
:100580000C9479260C940000FF93EF93E091A00166
:10059000F091A101309709F00995EF91FF9108952D
:1005A000FC018591803011F0EFDFFBCF0895FF272C
:1005B000E0E230E247FF0CC0419597FF09C0EDE251
:1005C0006095709580959095611D711D811D911D9F
:1005D00027FF02C0219530E350E2AA27660F771F5C
:1005E000881F991FAA1FA41710F0A41B63955A9582
:1005F000A9F7AA3008F0A95FA05DAF93F395611544
:1006000071058105910541F7ED3211F4EF93F395F2
:10061000F21718F43F93F395FBCF8F91B5DFFA955E
:10062000E1F70895E991F9918591803021F08532C3
:1006300019F0AADFF9CF089520E0E89455915532DA
:10064000C1F3503311F4689455915A3348F4505320
:1006500090F3220F022E220F220F200D250FF4CF30
:100660000EF4219589919991533619F3533729F155
:10067000533559F1BC0188279927E8945C3621F459
:100680008991999168945591543639F446EF7EF0EA
:1006900077FF0DC08FEF9FEF0AC055374AE039F062
:1006A000583540E121F0523642E009F00895FF93B9
:1006B000EF937DDFEF91FF91B7CFFF93EF93FC01B5
:1006C00081918030B9F360DFFBCFFF93EF9368DF58
:1006D000F1CFDF93CF93CDB7DEB72596A3DFCF91D0
:1006E000DF91089581E00895A8E0B0E0EAE7F3E043
:1006F0000C94D925FC018091A2019091A30101974E
:1007000039F4828185838381819584831282138267
:10071000CF0102969A83898301969C838B830296EC
:100720009E838D833496F887EF83CE0101967C01FA
:10073000EBEAF2E083E1C82E81E0D82E3E0199E099
:10074000690E711C94E6892E912C24E6522ED70155
:100750002D913D917D012115310509F451C0D6013E
:10076000AD90BC90B4E6AB16B10409F449C08081E9
:100770009181D9014C91042E000C550BBC01640FE2
:10078000751F77FF03C071956195710997FF03C0CD
:100790009195819591096817790714F451834083E5
:1007A000D9014C9180819181840F911D47FD9A95CB
:1007B000918380831C9200811181A09EC001A19E23
:1007C000900DB09E900D1124AC0197FF04C04427FA
:1007D0005527481B590B4436510594F0B4010E942B
:1007E000BC25AB01569EC001579E900D1124B5014A
:1007F0000E94BC25061B170B11830083D9014C9363
:100800003296B2E0CB0ED11CE614F70409F09FCF6C
:100810002896EFE00C94F525862B59F4443048F4E3
:10082000E42FF0E0EE0FFF1FE455FF4F8591949108
:10083000089581E090E008950E940C04089581E0FD
:1008400008950E947203089508950E942404089553
:10085000A5E0B0E0EEE2F4E00C94E52549835A838C
:100860003091A90189819A81311119C0662399F0CB
:10087000222389F00E943B0A182F682F89819A81D0
:100880000E94200A69817A81812F0E940611259693
:10089000E3E00C9401260E942D0A182FF3CF0E944A
:1008A0003B0A69817A81F1CFFC01262F4081518179
:1008B0006281738184810E942804089581E00895F3
:1008C000CF93DF93EC0160E00E945404BE010E94CC
:1008D0002504DF91CF91089508950E94EF080E94AA
:1008E0006C042FEF84E39CE0215080409040E1F7BE
:1008F00000C0000008950E946D040E94211E08950A
:100900000E946D040E94531E08950F931F93CF936E
:10091000DF938C0161E00E945404EC01B8010E9455
:100920002104811106C080E0DF91CF911F910F91CA
:100930000895B801CE010E94421B8823A1F3B8019B
:10094000CE010E946A16882371F3B801CE010E947D
:10095000B41A882341F3F8018281882369F0C330F7
:10096000FCE7DF0781F160F4C130ECE7DE0769F1F5
:10097000C0F4C115DC4791F0C8010E941F04D4CF18
:10098000CB35ECE7DE0739F1CC35FCE7DF0701F1C9
:10099000CA35DC4789F70E947F0EEECF0E947B04A8
:1009A000C2CF90913902892F8E7F90FF8160809312
:1009B000390280FF05C086EC90E00E94D002B3CFE0
:1009C00084EB90E0FACF0E94870E0E948004ABCFA8
:1009D0000E94750ED1CF0E94830ECECF0E94581D6B
:1009E0000E942D0508950E9431050E945D1D089505
:1009F000829590E09C01220F331F220F331F2C7C25
:100A000095958795959587958373282B30E0C90137
:100A1000880F991F8A7A359527952575822B089519
:100A2000089581E008950895CF93DF93D82F0E9411
:100A30001105C82F882319F08D2F0E9413058C2FC4
:100A4000DF91CF9108950895CF93C82F0E9410058C
:100A50008C2F0E941405CF91089580E00E942405F8
:100A600008950E94901B0E9424050895CF930E9430
:100A7000901BC82F8091A4018C1789F1C093A40109
:100A80000E94E21D6093A5017093A6018093A701C7
:100A90009093A8018091390282FF1EC080FF1CC084
:100AA0008EED90E00E94D0028091390280FF14C048
:100AB0001F92CF9389ED90E09F938F930E946903DB
:100AC000809139020F900F900F900F9080FF04C01B
:100AD00087ED90E00E94D0028C2F0E942405CF91D8
:100AE0000895ABE0B0E0E7E7F5E00C94E6254F832E
:100AF000588769877A878B8761110E94AD0D1E82A6
:100B00001D8285E0FE013796DE01119601900D925F
:100B10008A95E1F78C819D81892B61F449815A8105
:100B20006B817C818D819E810E94D50C2B96E2E0A9
:100B30000C94022689819A8189238F3F79F3CE0113
:100B400001960E945E048111E9CFF0CFFC01808103
:100B500091810E946D0A08950F931F93CF93DF93A5
:100B6000C82FD62F662341F10E94DB130C2F10E013
:100B7000C801815D9109089710F00E94AE14C15D13
:100B8000C330A8F4015D110981E090E002C0880F34
:100B9000991F0A95E2F72091B3023091B402DD2348
:100BA00071F0822B932B9093B4028093B302DF9168
:100BB000CF911F910F9108950E943514D7CF809542
:100BC000909582239323EFCFCF93C82F8823B9F03A
:100BD0008CEF8C0F813AA8F46C2F809100019091DA
:100BE00001010E945C1C882329F08C2F0E946D0D4E
:100BF0000E94CE0D8C2F0E94650D0E94CE0DCF91CC
:100C0000089580E28C0F883048F4C77081E001C0FD
:100C1000880FCA95EAF70E94900DEFCFEBE5EC0F35
:100C2000E33040F4F0E0EF5AFE4F808190E00E9404
:100C3000FE1BE5CFE8E5EC0FEB3150F4F0E0EE0FF2
:100C4000FF1FE55EFE4F808191810E94231CD7CF5C
:100C500083E38C0F833198F661E08C2F0E94AC0502
:100C6000CECF882381F19CEF980F913A28F40E940F
:100C70006D0D0E94CE0D089590E2980F983050F4BB
:100C8000877091E001C0990F8A95EAF7892F0E9439
:100C9000960DEFCF9BE5980F933028F490E080E01D
:100CA0000E94FE1B089598E5980F9B3128F490E070
:100CB00080E00E94231C089593E3980F933118F469
:100CC00060E00E94AC0508951F93CF93DF93182F27
:100CD000EB010E94E405209739F4812F0E94310630
:100CE000DF91CF911F9108958FE99FE00197F1F770
:100CF00000C000002197EFCF70E060E0893311F46D
:100D000060E570E00E9464060895882321F00E9447
:100D1000900D0E94CE0D0895882321F00E94960D1B
:100D20000E94CE0D0895B0E0A0E0E9E9F6E00C9451
:100D3000DF256C01D62FC72FFC011281058102959A
:100D40000F700E94860DE82E8823E9F0E12E112312
:100D5000D1F08C2F807F803451F080E28D0F88306D
:100D6000F8F0011104C08C2F807E8032C9F0809190
:100D7000B60282FF15C082E00E94310E0E94860DED
:100D800091E0E82EE926BC2EB2949FE0B922FBE068
:100D9000FB15B8F1EB2DF0E0E558F94D0C94D0259A
:100DA000E12CF1CF0C2F0F70C07F11F00295007F66
:100DB000112399F0002359F080E28D0F883010F054
:100DC000D11107C0802F0E94900D0E94CE0D8D2F53
:100DD00063C0802F0E94A00DF8CF8D2F0E94310696
:100DE000002379F080E28D0F883010F0D11104C01B
:100DF000802F0E94960D03C0802F0E94A60D0E9496
:100E0000CE0D2B2D2850330B2430310520F40E94B9
:100E1000901B0E942405EE2089F00E94820D80FD27
:100E20000DC0F60112820E947C0D0E947E09C6014F
:100E30000E94AF080E947C0D0E948E09CDB7DEB7DC
:100E4000E9E00C94FB252C2F2F70F22EC07FC032CE
:100E500019F0F29480EFF822DD2381F0D13009F40B
:100E600049C0112309F451C0002309F448C0F60118
:100E7000858180FFACCF8F70858341C08091B602A1
:100E800082FD15C0112359F0FF2029F08F2D0E94FB
:100E9000900D0E94CE0D80E00E94E405B2CF80E06C
:100EA0000E943106FF2009F4ACCF8F2DA2CF112371
:100EB00081F0011106C00E94B00D8F290E948506A5
:100EC000A0CF0130C1F70E94B00D8F290E94B70D4D
:100ED00098CF011106C00E94C40D8F2D0E948C0670
:100EE00090CF013009F48DCF8F2D0E948C060E9487
:100EF000C40D87CF112329F0063008F082CF8F2D43
:100F0000DDCF053008F07DCFE8CF002331F3D933B2
:100F100049F4FFEF27EE33E0F15020403040E1F795
:100F200000C000008D2F0E9431066BCF8C2F86955C
:100F30008695837069F0813009F063CF8D2F9C2FE7
:100F40009370111102C080E090E00E94231C59CFE1
:100F50008D2F9C2F9370111102C080E090E00E94B1
:100F6000FE1B4FCF612F8D2F0E94AC054ACF8C2FD7
:100F70008370A1F5111145CF4D2F429546954770CD
:100F8000440F440F2D2F2F7030E0042E02C0220F8B
:100F9000331F0A94E2F790E080E0D4FF09C08FE0AD
:100FA00090E002C0880F991F4A95E2F780959095CE
:100FB000C695C695C370822B932BC23049F058F466
:100FC000C13019F00E944E091CCF0E94450919CF6B
:100FD0000E94570916CF0E94420913CF869511230C
:100FE00011F08C2F8170882309F40BCF4D2F42957F
:100FF00046954770440F440F2D2F2F7030E0042E7C
:1010000002C0220F331F0A94E2F790E080E0D4FF81
:1010100009C08FE090E002C0880F991F4A95E2F75F
:1010200080959095C695C695C370822B932BC23040
:1010300049F058F4C13019F00E94B909E2CE0E947B
:10104000B009DFCE0E94C209DCCE0E946609D9CE6B
:10105000CF70112329F08C2F0E947E098D2F2ECF67
:101060008D2F0E948C068C2F0E948E09CACED23FF3
:1010700041F160F4D03FB9F0D13F81F0112309F480
:1010800046C00111A4CE8C2F8F711FC0D33F01F138
:10109000D43FA1F78091B60282FD24C08C2F8F71BE
:1010A000112311F312C0112341F0053008F0A9CE2D
:1010B0008C2F8F710E94A009A4CE063008F0A1CE1B
:1010C000F7CF8C2F8F711111CFCF0E947E0999CE4F
:1010D000112329F08C2F8F710E94720992CE0E94E9
:1010E0006D098FCE112349F0CF718C2F0E947E099C
:1010F00063E08C2F0E94130E84CE81E00E94310E9B
:10110000023008F47ECE82E00E94310E7ACE0023B7
:1011100059F0D93309F006CF8FEF97EEE3E0815015
:101120009040E040E1F7FCCE8C2F8F719DCF0F9364
:101130001F93CF93DF93EC01688179818A810E94AC
:10114000780A8C010E94CB090E944109B801CE01A6
:101150000E949306DF91CF911F910F910895CF9335
:10116000DF93EC018B819C81892B29F08881998107
:1011700089238F3F51F4DF91CF910895CE010E94D2
:101180009708CE010E946004F6CFCE010E9485042C
:101190008111F4CF0E94860D882369F38A81882308
:1011A00051F38091B60282FFE6CF82E00E94310EB9
:1011B000E2CF90E080E00E94FE1B90E080E00E9481
:1011C000231C0E94AD0D0E94CE0D0E944C150E9462
:1011D000AE1408950E94750D0E94D90808950E94CA
:1011E0009D0D0E94EA08089592959F70963091F0A7
:1011F00058F4925F9F70923058F4803F19F030F4A9
:10120000883E30F481E008959A5FF4CF843FD1F3B3
:1012100080E00895883EB0F3813FD1F7F3CFFC0121
:1012200083819481892B29F08081918189238F3F4B
:1012300011F480E00895808191810E946D0A0E94DE
:10124000F4080895A5E0B0E0E8E2F9E00C94E625A2
:101250002596E2E00C940226A6E0B0E0E2E3F9E095
:101260000C94E6252696E2E00C94022608950E944E
:10127000360908950E9437099093B1018093B00117
:10128000089508950E943A0908952091B00130917F
:10129000B101822B932B0E943A0908952091B0014D
:1012A0003091B101822393230E943A09089520913D
:1012B000B0013091B101822793270E943A09089525
:1012C0000E94360908950E94600908950E946309EA
:1012D0009093AF018093AE01089590E080E00E946A
:1012E0006609089521E030E0A90102C0440F551FAE
:1012F0008A95E2F7CA010E946609089521E030E06C
:1013000002C0220F331F8A95E2F78091AE019091BF
:10131000AF01822B932B0E946609089521E030E0F3
:1013200002C0220F331F8A95E2F7209530958091F5
:10133000AE019091AF01822393230E946609089524
:1013400021E030E002C0220F331F8A95E2F780913E
:10135000AE019091AF01822793270E9466090895FC
:101360002091AE013091AF01822B932B0E94660930
:1013700008952091AE013091AF01822393230E9402
:10138000660908952091AE013091AF01822793271D
:101390000E94660908950895262F277091E001C0E4
:1013A000990F2A95EAF723E0769567952A95E1F754
:1013B000660F771F660F771FFA01E60FF71F50E0E1
:1013C00040E0682F70E08191DF0111979B01042EAE
:1013D00002C0369527950A94E2F7217021952827B7
:1013E000292328272C934F5F5F4F4430510559F72D
:1013F0000895A82FA77023E0969587952A95E1F781
:10140000880F991F880F991FFB01E80FF91F50E003
:1014100040E080E0219130E00A2E02C03695279509
:101420000A94E2F721703327042E01C0220F0A9498
:10143000EAF7822B4F5F5F4F4430510559F708950B
:10144000262F911109C0843038F4682F70E04AEAE1
:1014500051E0822F0E94CC09089591110AC0843076
:1014600030F46AEA71E090E00E94F909982F892F20
:10147000089590E0FCCFB0E0A0E0E1E4FAE00C9445
:10148000DF257C010091AE011091AF018091B00188
:101490009091B101082B192BCFE0D0E0CC24C3945C
:1014A000D12CBC2EC6010C2E02C0880F991F0A94A5
:1014B000E2F780239123892B49F4219790F7B12CEF
:1014C0008B2DCDB7DEB7E9E00C94FB25B7018C2F4F
:1014D0000E941211019789F3F3CFCF93DF93EC01B0
:1014E0000E943B0ABE010E941211DF91CF91089524
:1014F0001F93CF93DF93EB019091A901992339F0CA
:10150000CB010E946D0ADF91CF911F91089588232E
:1015100069F0CB010E943B0A182F682FCE010E9470
:10152000200ABE01812F0E941211EDCFCB010E9433
:101530002D0A182FF6CF1F93CF93DF93C091B201DE
:1015400016E08091B3018C1304C0DF91CF911F91FD
:101550000895D0E01C9FF0011D9FF00D1124EC5464
:10156000FE4F4081518162817381848195810E9407
:101570002C092196C770E5CF4091E4015091E50117
:101580006091E6017091E7018091E8019091E90195
:101590000E942C0908952091B2019091B30156E068
:1015A000291302C080E0089530E0529FF001539F5C
:1015B000F00D1124EC54FE4F7181761306C070813A
:1015C000781303C07281741304C02F5F3F4F2770DC
:1015D000E7CF81E008951F93CF93DF938091E901D6
:1015E000807F09F04BC08091E601882309F446C052
:1015F0008091B201C091B3014091E4015091E501A5
:101600006091E7017091E801D42FD52316E0C81747
:10161000A9F190E061157105A9F1DF3F99F1189FDB
:10162000F001199FF00D1124DF01AC54BE4F11964B
:101630002C911197251326C02C91241323C01296A8
:101640002C91129721111EC013962D913C91261BAF
:10165000370B283C3105B0F48091E9018F7080612F
:101660008093E901E754FE4F80818F708061808311
:1016700084EE91E00E94AF080E949B0ADF91CF9117
:101680001F91089501968770C2CFA1E1B0E0EBE40D
:10169000FBE00C94DC258C0185E0F801DE011D9651
:1016A00001900D928A95E1F7F801F28084EEA82E60
:1016B00081E0B82E4091E7015091E80141155105B4
:1016C00009F45AC19091E4012091E501892F822308
:1016D0008F3F09F451C1C080D18083809480E09015
:1016E000E601B401641B750BEE2009F4F6C080918D
:1016F000E901382F307F683C710508F0AFC0311127
:101700007AC0EF2C2D1116C09C1114C0F11012C01C
:101710008F7080618093E9010E94BC0AC5010E941C
:10172000AF088091E901F80185838E2D6196ECE088
:101730000C94F82581149104C9F18C2D8D218F3FD3
:10174000A9F181E08F2580FF05C04F2D6D2D8C2DD7
:101750000E94CB0A8114910459F18C2D8D218F3F69
:1017600039F181E08F25F82FF170BF2E80FF39C04D
:101770004F2D6D2D8C2D0E94CB0AA82E811131C0CA
:10178000CD86DE868D859E850E946D0A292F229545
:101790002F70243078F49F702230A8F09923B9F08C
:1017A000F8019581907F99F4EA2CBFCF80E0CBCFF0
:1017B00080E0D9CF2A5F2F70223068F0C8010E94E4
:1017C000AF08AB2CF1CF992311F0882369F3805E29
:1017D000883050F3F3CF803F38F3815F833070F768
:1017E000E3CFFF2009F4A1CF8091E90181608093CC
:1017F000E901E12C9ACF2D1105C09C1103C0FF20F7
:1018000009F486C0C8010E940F09882319F1FF203E
:1018100009F18091E901803270F02091E40130916A
:10182000E50138872F8319869B868A868C87CE01AF
:1018300007960E94AF0886E0F801A4EEB1E001909F
:101840000D928A95E1F70E94EB0A0E94BC0AEE24F1
:10185000E3946BCFC8010E94AF08F9CF311114C0D7
:10186000782D998A888AA6016F2D89890E9422097C
:1018700084EE91E00E94AF0886E0F50111928A950E
:10188000E9F70E94BC0AB5CF2D110EC09C110CC007
:10189000F1100AC08583C8010E94AF0886E0F501F7
:1018A00011928A95E9F741CFC8010E940F09882358
:1018B00089F2FF2079F28091E901803208F4BBCFF0
:1018C0002091E4013091E5013A8329831B829D82B6
:1018D0008C828E83CE010196ACCF683C710508F0F6
:1018E0003DC0EF2CFF2009F4B5CF2D1129C09C116C
:1018F00027C08091E90180FD1AC0982F907FB9F030
:101900008583903F31F0982F907F905F8F70892B67
:101910008583C8010E94AF0886E0F801A4EEB1E01B
:1019200001900D928A95E1F70E94BC0AFECE86E0F6
:10193000F801A4EEB1E001900D928A95E1F7F5CEA1
:10194000C8010E940F09811176CF8091E901816061
:101950008093E901C8010E94AF08E7CE782D998AEB
:10196000888AA6016F2D89890E94220986E0F501E7
:1019700011928A95E9F7D8CFFF2009F46BCFC801FF
:101980000E940F09E82E882309F464CF86E0F8014D
:10199000A4EEB1E001900D928A95E1F784EE91E01A
:1019A0000E94A6050E94EB0ABFCFACE0B0E0EBEDD1
:1019B000FCE00C94E5254F83588769877A878B87ED
:1019C0009C87CE0107960E94450B8823B1F08A853B
:1019D0009B85892B39F04F815885842F85238F3F34
:1019E00009F06CC016E08091B2019091B3018913A7
:1019F00043C02C96E3E00C94012686E0FE01379666
:101A0000DE01119601900D928A95E1F78A859B85FA
:101A1000892B41F38F81988589238F3F19F320917A
:101A2000B30130E0C9010196877099274091B20156
:101A30004817190671F40E94EF081092B301109232
:101A4000B20186E0E4EEF1E0DF011D928A95E9F74C
:101A5000C9CF96E0929FD001939FB00D1124AC5452
:101A6000BE4FFE01319601900D929A95E1F7809359
:101A7000B3010E949B0AB6CF819FC00111248C54F0
:101A80009E4F0E94450B882309F4B3CFE091B20129
:101A90001E9FF0011124EC54FE4F40815181628160
:101AA0007381848195810E942C098091B20190E01C
:101AB0000196877099278093B20195CF69857A85C1
:101AC0008B859C850E942C098DCF682F8091000109
:101AD000909101010E94FE1C0895682F80910001E1
:101AE000909101010E940C1D089580910001909138
:101AF00001010E941A1D089580910A02859585951D
:101B00008595089580910A028770089590910A0240
:101B1000977081E009F480E0089580912D02089586
:101B200090912D02892B80932D020895809590919C
:101B30002D02982390932D02089510922D0208955E
:101B400090912C02892B80932C020895809590917E
:101B50002C02982390932C02089510922C02089541
:101B600080910B02089508950E94B30D08959091FD
:101B7000B60292FF08C090910B02981721F0809353
:101B80000B020E94B40D089580910B02882329F066
:101B900010920B0280E00E94B40D0895CF93DF9362
:101BA000E0910001F091010180912D028083E0918C
:101BB0000001F0910101808190912C02892B80839A
:101BC00090910B02992381F0E0910001F0910101C5
:101BD0008081892B808380910001909101010E9476
:101BE000481C81110E94C40DC0910001D0910101D7
:101BF00040E250E06AEE71E0CE010E942126892B7E
:101C000059F080E2FE01AAEEB1E001900D928A95B2
:101C1000E1F7CE010E949D1BDF91CF9108950895B9
:101C20000E940F0E08959091B60292FF11C098E0A5
:101C3000899F90011124622B60930A020E947E0901
:101C400080910A028595859585950E94100E0895CC
:101C50000E947E09089510920A0280E00E94100EF0
:101C6000089590910A028095892380930A02282F73
:101C7000277091F4282F082E000C330B92171306AF
:101C800059F09091B60292FF07C08595859585958C
:101C90000E948E090E942B0E0895CF93C82F809129
:101CA000B60282FB992790F99C17E9F0C0FB82F9F4
:101CB0008093B6028091B5029091B6020E94A80E60
:101CC00082E00E94310E8091390280FF0CC01F9289
:101CD000CF9389EE90E09F938F930E9469030F90BA
:101CE0000F900F900F90CF9108958091B60282FBD4
:101CF000882780F991E089270E944D0E089581E0A0
:101D00000E944D0E089580E00E944D0E08956FEFE1
:101D10007FEF90E080E00E946326089590E080E0ED
:101D20000E943F2621E0873E9E4F09F020E0822F4F
:101D3000089582E090E00E943726089583E090E0C5
:101D40000E943726089584E090E00E943F2608957F
:101D5000BC0184E090E00E9463260895AB01BC01C1
:101D60008FE090E00E9457260895AB01BC0183E10B
:101D700090E00E945726089560E070E0CB010E9439
:101D8000B50E089560E070E0CB010E94AE0E0E9497
:101D9000BC0E089567EE7EEF90E080E00E9463261F
:101DA00060E082E090E00E94452660E083E090E001
:101DB0000E9445261092B1011092B00160E074E1DA
:101DC00084E090E00E94632660E086E090E00E945C
:101DD00045266FEF87E090E00E94452640E050E006
:101DE000BA0188E090E00E94572660E08DE090E024
:101DF0000E94452640E050E0BA0188E190E00E9450
:101E0000572660E087E190E00E94452640E050E0E0
:101E1000BA018CE190E00E94572670E060E080E219
:101E200090E00E94632640E050E0BA0188E190E033
:101E30000E9457260E94C20E08950E94CA0E08955D
:101E4000682F8EE090E00E9445260895A5E0B0E05E
:101E5000ECE2FFE00C94E4250E94D61D8C018091F9
:101E60002E0290912F0280179107A1F08FEF8983A6
:101E70008A831B820E94D61D8160782F9D838C836C
:101E800049815A816B818D810E94710510932F02C7
:101E900000932E022596E4E00C9400260E94E21D99
:101EA0006093350270933602809337029093380224
:101EB0006093310270933202809333029093340224
:101EC0000895089508950E94620F089508950E944C
:101ED000660F089581E0089588E090E20E94861BD5
:101EE0000E94610F0E94630F08950E946A0F089577
:101EF0000E94750F0895089508950E947B0F0E9417
:101F00007C0F08950E9419120E94230508950E94D3
:101F1000CD1D0E94DA120E94820F0E948F180E942B
:101F2000670F0895A5E0B0E0E8E9FFE00C94E12533
:101F30000E946A0F81110CC00E94260F0E946E152C
:101F40000E9447170E9436052596E7E00C94FD2570
:101F50000E94E6121091300280E00E943F12181792
:101F600059F38091390281FD0E9445120E94780F39
:101F7000D82E80E00E943F12182F8091300218174F
:101F800021F1E12EE82600E0FF24F3948E2D8F212D
:101F9000B1F0DD20A1F009831A8291E0812F8F2119
:101FA00009F490E09B830E94D61D8160782F9D8369
:101FB0008C8349815A816B818D810E9471050F5FED
:101FC000FF0C043019F7109330020E944E0FB6CF69
:101FD0001F93CF93DF930E941711EC01C11580E589
:101FE000D807F0F5C11580E4D80708F09CC0C03EC2
:101FF000D10520F5CD3CD10508F082C0C83AD10505
:1020000078F4C53AD10508F073C0C130D10519F193
:10201000209709F1C430D105F0F4D0E0C0E01BC036
:10202000C33CD105D0F7C85AD0E0CC0FDD1FCC5A45
:10203000DE4F0990D881C02DD4640DC0C11580E257
:10204000D80708F0D1C0C11581E0D80708F05AC000
:10205000C83ED10510F7CE01DF91CF911F910895B1
:10206000C03682E5D80718F5C03482E5D80708F0F5
:102070006BC0C03282E5D80708F05FC0C11582E5A9
:10208000D80708F497C02C2F2695269580E2289F24
:10209000900111248C2F8370C1E0D0E002C0CC0FDE
:1020A000DD1F8A95E2F7C22BD32BDD68D4CFC03A6F
:1020B00082E5D80760F4C03882E5D80708F459C033
:1020C000CF71D0E0DC2FCC27C46FD06AC4CFC03C26
:1020D00082E5D80708F462C0C03E82E5D80708F060
:1020E0009CCFDC2FCC27CC27DF71C06FD06AB3CF59
:1020F000C55AD0E0C657DE4FC881D0E0D064ABCF20
:10210000D065A9CF8D2F0E94B911182FCE01992724
:102110000E941711C12FD0E0DC2FCC27CC27DF7114
:10212000C82BD92B98CFCE0199270E941711CC2705
:10213000DF70C82BD92BD06A8ECFCF71D0E0DC2FC7
:10214000CC27C16FD06A87CF2C2F26952695277074
:1021500080E2289F900111248C2F8370C1E0D0E091
:1021600002C0CC0FDD1F8A95E2F7C22BD32BDC68AF
:1021700072CF2C2F26952695277080E2289F9001FC
:1021800011248C2F8370C1E0D0E002C0CC0FDD1F82
:102190008A95E2F7C22BD32BDA685DCF8C2F8F7133
:1021A0000E94B911C82FD0E0DC2FCC27CC27DF71DB
:1021B000D06251CF8C2F8F710E94B91155E0D69506
:1021C000C7955A95E1F7CF70D0E0DC2FCC27282FA8
:1021D00030E084FF05C044E0220F331F4A95E1F749
:1021E000C22BD32BD06937CF8D2F8F710E94B9119D
:1021F000182FCE0199270E941711C12FD0E0DC2F94
:10220000CC27CC27DF71C82BD92BD2CF462F711109
:1022100006C0643020F460E00E941C04089590E041
:1022200080E008950E9406110E94E80F0895823808
:102230009105B9F1B0F48133910509F47DC048F4FA
:102240008932910509F46DC08A32910509F47BC089
:1022500008958533910509F45FC08933910509F12B
:102260000895833E9105D9F138F4803E910529F116
:10227000823E910579F10895863E9105D9F1873E18
:10228000910509F43EC0843E910541F52091B602C6
:1022900021FF24C08091B50284FD19C087EE90E033
:1022A00008952091B502237009F05AC02091B6021A
:1022B00023FF14C089E290E008952091B50220FD2B
:1022C00038C03091B60230FF09C024FF43C090E00F
:1022D00080E008952091B50222FDF7CF0895209166
:1022E000B50222FD3AC03091B60230FD39C024FF5C
:1022F000F5CFEDCF2091B50223FFF0CF24FDE7CF3E
:10230000CDCF2091B50223FD2EC03091B60231FF12
:10231000EECF84EE90E008952091B50225FFDECF48
:10232000C9CF2091B50225FD21C02091B60223FF1F
:10233000D5CF89E390E0D2CF2091B50226FFCECF52
:102340008AE290E008952091B50226FFC7CF81E38D
:1023500090E0089583EE90E0089582EE90E0089575
:1023600080EE90E0089586EE90E0089585E390E099
:1023700008959091B50292FF06C0282F2871283049
:10238000F9F4877F846093FF06C0282F28712831D5
:10239000F1F4877E84612091B60220FF06C0382FB9
:1023A00038713830D9F4877F816021FF06C0282F2B
:1023B00028712831D1F4877E816194FD877E08954C
:1023C000282F24712430F9F68B7F8860DCCF282FEA
:1023D0002471243101F78B7E8861DDCF382F317174
:1023E000313019F78E7F8860E0CF282F217121319D
:1023F00021F78E7E8861E1CF0E94870E08950E94AA
:10240000E6122FEF86E791E0215080409040E1F7FF
:1024100000C000000E94E61280E00E943F1280FF90
:1024200004C00E94FC110E94211E08950E94FF1109
:1024300008950E948E0E811102C00E941D0F0E94FD
:10244000990E809339020E94A30E9093B602809356
:10245000B5020E9416120E949E0E90E00E94420950
:102460008091AE019091AF010E9463090895089593
:102470000E943712089508950E943B120895E82F94
:10248000F0E0E854FD4F808108958DE091E00E94D6
:10249000D0021F921F9288E091E09F938F930E9439
:1024A000690385E091E00E94D0028091B8020E9409
:1024B000F8041F928F9380E091E09F938F930E9486
:1024C00069038EEF90E00E94D0028DB79EB7089608
:1024D0000FB6F8949EBF0FBE8DBF089580EA8A950F
:1024E000F1F7089500C008950E946E120895F894BF
:1024F000E82FE295EF70F0E031A1282F2F7081E0F6
:1025000090E001C0880F2A95EAF7982F90959323C1
:1025100091A392A1892B82A37894089582E30E94CB
:10252000771280EF0E94771281EF0E94771280E38A
:102530000E94771281E30E94771208950F931F93F0
:10254000CF93DF938C01C62FF894229A2A9878941F
:102550000E947212EDE8F1E081E0D0E091919F3F9E
:1025600079F0A92FA295AF70B0E090962C9130E051
:102570009F7002C0359527959A95E2F7982F20FD18
:1025800090E0D92B880F91E0E139F90739F782E320
:102590000E94771261E0D11101C060E08C2F0E948F
:1025A0007412F801EC0FF11DD083DF91CF911F91D0
:1025B0000F9108950E948E121092B8021092B702E5
:1025C00081E00E940B130E9438120895A1E0B0E050
:1025D000ECEEF2E10C94E525198260E0CE01019663
:1025E0000E949E129091B702898121E0981301C048
:1025F00020E098138093B70241E068EB72E087EB2C
:1026000092E00E940C13182F0E943C12812F2196F9
:10261000E3E00C9401260895CF92DF92EF92FF92AF
:102620000F931F93CF936C017B01042F222349F05A
:1026300081E080933C020E94D61D90933B028093E0
:102640003A02C0913C02C1110AC0C0E08C2FCF9168
:102650001F910F91FF90EF90DF90CF9008958091A0
:102660003A0290913B020E94EE1D059770F310E034
:10267000A801B601C7010E942126892B41F0A801BB
:10268000B601C7010E942E2610923C02DFCFC0E0A7
:10269000FBCF0E9484200E94870F0E949120089502
:1026A0000E9496200E94920F0E94B42008950E94DA
:1026B0006F1D0E946A200E946C0F0E9449130E94A5
:1026C00050130E947D0FFBCF8091430280FF0DC00D
:1026D0006091070170E0660F771F6038710570F533
:1026E0006115710569F1862F089581FF07C060911A
:1026F000070184E0689FB0011124EFCF60910701CA
:1027000082FD0AC0809142028823A9F0209106012F
:1027100060910701821710F088E0ECCF869FC0011E
:10272000112433E0880F991F3A95E1F7622F70E08A
:102730000E94BC25D2CF68E070E0D5CF8FE7089526
:1027400081E008958091430280FF0CC060910301F5
:1027500070E075956795759567956115710549F1F7
:10276000862F089581FF06C06091030170E0759582
:102770006795F3CF6091030182FD0BC090914102F8
:102780009923A1F06091020180910301961738F01E
:10279000682F70E06038710500F38FE70895899F16
:1027A000C001112470E00E94BC25F4CF61E070E00C
:1027B000D7CF81E008958D3C31F40E946413819558
:1027C0008093470208958E3C19F40E946413F8CF59
:1027D0008F3C31F40E9464138195809346020895E2
:1027E000803D19F40E946413F8CF893D29F40E94BA
:1027F000A2138093480208958A3D21F40E94A213F7
:102800008195F7CF8B3D31F40E94A213819580937F
:10281000490208958C3D19F40E94A213F8CF9FE25B
:10282000980F983070F4815D990B21E030E001C081
:10283000220F8A95EAF780914502822B8093450208
:1028400008958D3D31F4809143028160809343026D
:1028500008958E3D21F4809143028260F7CF8F3D31
:10286000B9F7809143028460F1CF409146028D3CDC
:1028700059F48091470287FF0DC010924702411121
:102880000BC01092420208C08E3C81F48091470236
:1028900018169CF3442381F08091480290914902DC
:1028A000892B09F05AC01092410208958F3C49F4D7
:1028B00047FFF0CF10924602809147028111ECCF82
:1028C000E0CF803D19F41416ACF3E4CF90914802A8
:1028D000893D29F41916F4F610924802DBCF8A3D9F
:1028E00019F497FFD7CFF8CF909149028B3D29F487
:1028F00097FFD0CF10924902CDCF8C3D19F4191615
:10290000CCF3C8CF9FE2980F983090F4815D990B7B
:1029100021E030E0B90102C0660F771F8A95E2F727
:10292000CB01809590914502892380934502B2CFD7
:102930008D3D31F4809143028E7F80934302AACF74
:102940008E3D21F4809143028D7FF7CF8F3D09F0BA
:10295000A1CF809143028B7FF0CF089580913902FF
:1029600083FF7EC083E491E00E94D0028091450203
:102970001F928F938EE391E09F938F930E94690340
:102980008CE391E00E94D00280914602282F082E0D
:10299000000C330B3F938F9389E391E09F938F93C8
:1029A0000E94690387E391E00E94D0028091470270
:1029B000282F082E000C330B3F938F9384E391E074
:1029C0009F938F930E94690382E391E00E94D0025B
:1029D00080914802282F082E000C330B3F938F93D1
:1029E0008FE291E09F938F930E9469038DE291E0C3
:1029F0000E94D00280914902282F082E000C330B30
:102A00003F938F938AE291E09F938F930E94690393
:102A100087E291E00E94D002809142021F928F9340
:102A200084E291E09F938F930E94690382E291E098
:102A30000E94D002809143021F928F938FE191E018
:102A40009F938F930E9469038CE191E00E94D002D2
:102A50008DB79EB74C960FB6F8949EBF0FBE8DBF34
:102A60000E94D61D9C019091460280914702982BAE
:102A700021F03093400220933F02909148028091D0
:102A80004902982B21F030933E0220933D0284E4CA
:102A900092E00E94F01B089586E0E4E4F2E0DF019A
:102AA0001D928A95E9F7109242021092410210920B
:102AB00043020895FC01828181110EC0838181113E
:102AC0000BC08481811108C091E08581811101C012
:102AD00090E0892F8170089581E0FCCFA6E0B0E0FE
:102AE000E4E7F5E10C94E52586E0E4E4F2E0DE01BC
:102AF000119601900D928A95E1F71092460210927C
:102B0000470210924802109249028B819C81892BC6
:102B100089F080913F02909140020E94EE1DAC012D
:102B2000909142029923C9F18091080184171506FA
:102B300008F440C08D819E81892B91F080913D02E7
:102B400090913E020E94EE1DAC01909141029923AA
:102B500009F471C0809104018417150608F479C046
:102B6000BE016F5F7F4F84E492E00E942C1D8111B3
:102B700005C084E492E00E945A1581110E94AE14AF
:102B800086E0FE013196A4E4B2E001900D928A95B0
:102B9000E1F72696E3E00C940126209109018AE0F2
:102BA000289F900111242417350720F69F5F9093EA
:102BB000420202C09F3FD1F71B81112359F00E94AE
:102BC00064139FEF11160CF491E0899F802D11245E
:102BD000809346021C81112359F00E9464139FEFD9
:102BE00011160CF491E0899F802D112480934702E7
:102BF00030914602332309F49DCF209147022223CE
:102C000009F498CF45EB3403C0011124992359F0FE
:102C10009093460245EB240390011124332339F0AD
:102C20003093470287CF81E080934602F3CF81E063
:102C3000809347027FCF209105018AE0289F900171
:102C400011242417350708F08BCF9F5F9093410222
:102C500002C09F3FD1F71D81112359F00E94A2139A
:102C60009FEF11160CF491E0899F802D1124809321
:102C700048021E81112359F00E94A2139FEF1116E2
:102C80000CF491E0899F802D1124809349023091AA
:102C90004802332309F464CF20914902222309F426
:102CA0005FCF45EB3403C0011124992359F0909371
:102CB000480245EB240390011124332339F030936B
:102CC00049024ECF81E080934802F3CF81E08093A8
:102CD000490246CFCF93DF93EC01FB018281882329
:102CE00009F4D2C09E0130572332310508F0B2C03A
:102CF0000E94A30E9093B6028093B502FE01E150AC
:102D0000F047E232F10520F4E957F94D0C94D02553
:102D10008091B50281608093B50293C08091B60224
:102D200088608093B6028DC08091B5028260F3CF37
:102D30008091B5028460EFCF8091B5028860EBCFBF
:102D40008091B6028160EDCF8091B6028260E9CFBA
:102D50008091B5028061DFCF8091B5028062DBCFC8
:102D60008091B5028064D7CF0E94EF088091B502B0
:102D70008068D1CF8091B5028C60CDCF8091B602B2
:102D80008360CFCF8091B5028E7FC5CF8091B60290
:102D9000877FC7CF8091B5028D7FBDCF8091B5026F
:102DA0008B7FB9CF8091B502877FB5CF8091B60276
:102DB0008E7FB7CF8091B6028D7FB3CF8091B50261
:102DC0008F7EA9CF8091B5028F7DA5CF8091B5026E
:102DD0008F7BA1CF0E94EF088091B5028F779BCFA8
:102DE0008091B502837F97CF8091B6028C7F99CF77
:102DF0008091B50282FB992790F921E0922790FB00
:102E000082F990FB83F987CF8091B602982F909535
:102E100091708E7F892B90FB81F983CF9091B502C1
:102E2000892F8F7B96FF806476CF0E94EF08909168
:102E3000B502892F97FB87F980586DCF81E00E94FA
:102E4000200F8091B5029091B6020E94A80E0E94B8
:102E5000EF0880E0DF91CF91089580E0F0CF90916E
:102E6000B502892F8F7E94FF806155CF9091B50276
:102E7000892F8E7F90FF81604ECF9091B602892F6F
:102E8000877F93FF88604DCF81E0E4CF08950E9453
:102E9000C919882309F489C00E94D51980934F026B
:102EA0000E94D519809350020E94D5198093510237
:102EB00020914F028091B302282B90915002809173
:102EC000510230914D0232273770492F482B5091D3
:102ED0005202452B342B09F45DC020934D02322F52
:102EE000307424FF6BC0311103C0903809F097FF94
:102EF00091E825FF69C027FD03C0803809F087FFEE
:102F000081E8322F377030934F02919590935002A1
:102F100081958093510280914C0222FF5BC0811108
:102F200009C00E94D61D90934B0280934A0281E013
:102F300080934C029091500280915102292F282BAE
:102F400099F022E020934C0287FD8F5F8595819553
:102F500080935202892F97FD8F5F8595809353024E
:102F6000109250021092510280914F028B7F8093F9
:102F70004F028091500290915102892B9091520200
:102F8000892B21F08EE492E00E9474038EE492E09B
:102F90000E94F01B109250021092510210925202A5
:102FA0001092530210924F0208958091390283FFCC
:102FB0007FCF83E392E00E94D0027ACF311102C02A
:102FC00097FF97CF9FE795CF27FD02C087FF99CF47
:102FD0008FE797CF813001F580914A0290914B02A3
:102FE0000E94EE1D8C329140B8F480914F028460B3
:102FF00080934F028EE492E00E94F01B8FEF91EEDF
:1030000024E0815090402040E1F700C00000809112
:103010004F028B7F80934F0210924C02A5CFCF932B
:1030200085EF0E94E819C82F8091390283FF1BC0E9
:1030300082E192E00E94D002809177021F928F93EA
:103040001F92CF931F9285EF8F938CEE91E09F9309
:103050008F930E9469038DB79EB708960FB6F894B8
:103060009EBF0FBE8DBFCF910895CF9384EF0E9476
:10307000E819C82F8091390283FF1BC08CEC91E0C6
:103080000E94D002809177021F928F931F92CF935C
:103090001F9284EF8F9386EA91E09F938F930E9413
:1030A00069038DB79EB708960FB6F8949EBF0FBE02
:1030B0008DBFCF910895CF9380915402811102C0AA
:1030C0000E940F188AEE0E94E819C82F80913902D9
:1030D00083FF1BC08CE891E00E94D00280917702B0
:1030E0001F928F931F92CF931F928AEE8F9386E643
:1030F00091E09F938F930E9469038DB79EB70896C6
:103100000FB6F8949EBF0FBE8DBF809154028111FF
:1031100002C00E94351810925402CF910895CF93A7
:103120000E9460192FEF83ED90E321508040904082
:10313000E1F700C000008FEF0E94E819C82F8091CE
:10314000390283FF1BC084EE92E00E94D00280917E
:1031500077021F928F931F92CF931F928FEF8F93BF
:103160008EEB92E09F938F930E9469038DB79EB779
:1031700008960FB6F8949EBF0FBE8DBF0E94D5195A
:10318000C82F8091390283FF16C085EA92E00E9421
:10319000D002809177021F928F931F92CF938CE879
:1031A00092E09F938F930E9469030F900F900F906E
:1031B0000F900F900F900E94D519C82F809139025F
:1031C00083FF16C081E792E00E94D00280917702CF
:1031D0001F928F931F92CF9388E592E09F938F93D6
:1031E0000E9469030F900F900F900F900F900F9017
:1031F0000E9435180E945B180E944617CF910895CF
:103200005D98559A089555985D9A089555985D9AD8
:1032100085E08A95F1F7000089B185FB882780F960
:1032200008955A98529A089552985A9A0895529821
:103230005A9A85E08A95F1F7000089B182FB8827C8
:1032400080F908959FB7F894209155028091560215
:10325000821769F030E0F901E95AFD4F80812F5F54
:103260003F4F2F713327209355029FBF089580E071
:10327000FCCFCF93DF93EC010E940619882311F055
:10328000209721F4CE01DF91CF91089585E08A95B2
:10329000F1F700002197F0CFCF93DF93C2E3D0E0A6
:1032A0000E940619811102C0209721F4CE01DF91FE
:1032B000CF91089585E08A95F1F700002197F0CF2E
:1032C0000E9403190E9414195D985A9886E780930A
:1032D000CA001092C8001092CD001092CC0080E974
:1032E0008093C90008951F920F920FB60F92112478
:1032F0002F933F934F935F936F937F938F939F93FE
:10330000AF93BF93CF93EF93FF938091C8008C71DD
:103310004091CE0081112CC0CFB7F8948091560215
:1033200090E09C012F5F3F4F2F7133275091550242
:103330005217C9F0895A9D4FFC01408320935602D1
:10334000CFBFFF91EF91CF91BF91AF919F918F919F
:103350007F916F915F914F913F912F910F900FBE91
:103360000F901F90189582E093E00E94D002E8CF62
:103370001F924F931F928F938EE093E09F938F93B2
:103380000E9469030F900F900F900F900F900F9075
:10339000D8CF9FB7F89481E0309156022091550222
:1033A000321301C080E09FBF0895CF93CAE1C1509E
:1033B00021F40E942219CF9108950E94C919811108
:1033C000F8CF8FE99FE00197F1F700C00000EFCF41
:1033D000EF92FF920F931F93CF93DF93E82E1092FB
:1033E00077021092CA008091C900877E8093C9003D
:1033F0000E9400190E9414198FE891E00197F1F7DB
:1034000000C000000E9411190E94031980E197E298
:103410000E943919892BD9F48AE0809377020E949F
:1034200003190E9414195D985A9886E78093CA0080
:103430001092C8001092CD001092CC0080E98093C9
:10344000C90080E0CDB7DEB7E6E00C94FE25D0E001
:10345000C0E011E0F12C01E090E59A95F1F7C70189
:103460000C2E02C0959587950A94E2F780FF09C05B
:1034700010270E9414190E944C19892B29F482E00C
:10348000CCCF0E941119F7CF82E390E00E94391946
:10349000892B11F483E0C1CF2196C830D105E1F624
:1034A00080E58A95F1F7112341F00E9414190E94DA
:1034B0004C19892B29F484E0B0CF0E941119F7CF61
:1034C00082E390E00E943919892B11F485E0A5CFA1
:1034D00090E59A95F1F70E941419C2E3D0E00E949A
:1034E0001719882351F0209711F486E096CF25E034
:1034F0002A95F1F700002197F2CFCD2BB1F382E3AB
:1035000090E00E943919892B11F487E086CF0E9440
:103510004C19892B79F488E080CF85E08A95F1F702
:10352000000021970E941719811107C02097A9F761
:1035300089E073CFC2E3D0E0F5CFCD2BC9F30E9471
:1035400003190E9414195D985A9886E78093CA005F
:103550001092C8001092CD001092CC0080E98093A8
:10356000C9000E94D5196ECFCF93DF93EB0186314E
:103570009C4711F50E948D0D9A81992399F08A7AC2
:1035800091E009F490E090937802811109C089E2FA
:103590000E94650D0E94CE0D80E0DF91CF910895CD
:1035A00085E3F6CF80917802811104C089E20E9400
:1035B0006D0DF0CF85E3FBCF81E0EFCF0F931F932D
:1035C000CF93DF93C42FD22FFC0182818823C9F0CF
:1035D00040937B020E94D61D90937A0280937902D9
:1035E00080E28C0F883040F4C77081E001C0880F02
:1035F000CA95EAF70E948506DF91CF911F910F913E
:10360000089510917B02141332C080917902909139
:103610007A020E94EE1D883C910548F5C0E2CD0F6C
:103620001D17B9F080E2810F883040F4177081E0F7
:1036300001C0880F1A95EAF70E948C06C83048F43A
:1036400081E09D2F977001C0880F9A95EAF70E943C
:103650008506802F0E947C06C83070F6D77081E006
:1036600001C0880FDA95EAF70E948C06C5CF80E288
:103670008C0F883008F6C77081E001C0880FCA95AA
:10368000EAF7F2CF0F93DB0188519C478730910511
:10369000A0F5FC01E755F94D0C94D02506E221EE8A
:1036A00041EE6AE17CE7CD010E94DE1A80E00F91D5
:1036B000089507E225EE45EE6BE17CE7F4CF06E2E4
:1036C00021EE40EE68E17CE7EECF07E225EE44EE26
:1036D00069E17CE7E8CF06E221EE42EE6CE17CE7AF
:1036E000E2CF07E225EE46EE6DE17CE7DCCF08E2B3
:1036F00021E045EE6EE17CE7D6CF12968C918823CF
:1037000019F010927B02D3CF81E0D1CF9093A10129
:103710008093A00108959093810280938002089580
:10372000E0918002F0918102309729F00190F081C0
:10373000E02D0995089580E00895EF92FF920F9390
:103740001F93CF93DF93EC01E0918002F09181020F
:10375000309709F440C080911201882341F0809194
:10376000B50287FF04C08881898386E08883028050
:10377000F381E02DCE0109958091390282FF2BC0A3
:1037800080FF04C088E393E00E94D00210E000E0D4
:1037900082E3E82E83E0F82E8091390280FF0EC08C
:1037A000FE01E00FF11F80811F928F93FF92EF9235
:1037B0000E9469030F900F900F900F900F5F1F4FA3
:1037C0000830110549F78091390280FF04C080E379
:1037D00093E00E94D002CDB7DEB7E6E00C94FE2560
:1037E000E0918002F0918102309739F022E0DC0113
:1037F0002C930480F581E02D09950895A3E0B0E0B5
:10380000E4E0FCE10C94E62520917E0230917F02F9
:1038100028173907A1F090937F0280937E02E091F0
:103820008002F0918102309751F023E029839B833D
:103830008A830680F781E02DCE01019609952396B3
:10384000E2E00C940226A3E0B0E0E9E2FCE10C9493
:10385000E62520917C0230917D0228173907A1F0DE
:1038600090937D0280937C02E0918002F09181022E
:10387000309751F024E029839B838A830680F78167
:10388000E02DCE01019609952396E2E00C940226E4
:10389000FC01329680911201882321F08091B502BB
:1038A0009EE187FF96E080E0915008F40895219111
:1038B0002223D1F38F5FF8CF662301F1209112010B
:1038C0002223F1F02091B50227FF1AC0462F46951A
:1038D000469546954E3190F4677021E030E002C085
:1038E000220F331F6A95E2F7840F911DFC0182813C
:1038F00090E02823392381E0232B69F480E00895A8
:10390000FC01329608962191261721F0E817F90755
:10391000D1F7F4CF81E008959C01FC0132969FEF2E
:1039200080E04191461751F09F3F19F4411101C0C9
:10393000982F8F5F8630A9F79F3F09F40895290FCC
:10394000311D97FD3A95F90162830895FC01329685
:1039500008962191261303C0DF0111971C92E817E6
:10396000F907B9F70895E62FE695E695E695EE3165
:1039700070F4E80FF92FF11D677021E030E001C00D
:10398000220F6A95EAF78281822B828308958091C3
:10399000390280FF0CC01F926F9388E693E09F93DB
:1039A0008F930E9469030F900F900F900F900895CE
:1039B000E62FE695E695E695EE3178F4E80FF92FD7
:1039C000F11D677021E030E001C0220F6A95EAF72F
:1039D000209582812823228308958091390280FFD7
:1039E0000CC01F926F938AE493E09F938F930E9481
:1039F00069030F900F900F900F900895209112017E
:103A0000222339F02091B50227FF03C00E94B31C86
:103A100008950E948C1C089520911201222339F0F0
:103A20002091B50227FF03C00E94D81C08950E9470
:103A3000A61C0895FC01329680911201882351F052
:103A40008091B50287FF06C08EE1DF011D928A9545
:103A5000E9F7089586E0F9CF46E050E00E9421267C
:103A600021E0892B09F420E0822F089508950E9417
:103A7000361D0895811106C081E0809382020E9464
:103A8000371D089582E0F9CF83E0809382020E947F
:103A9000371D08950E943A1D089581E080938202A7
:103AA0000E94371D08950E944D1D089508950895A0
:103AB0000E94571D0895089508950E94561D089567
:103AC0000E945B1D0E94E6120E945C1D80E00E9425
:103AD0003F1291E0811101C090E0892F089585B7D0
:103AE000806885BF85B7806885BF08951F921FB61F
:103AF0001F9211248F939F93AF93BF938091830262
:103B0000811113C08091B9029091BA02A091BB02B9
:103B1000B091BC024196A11DB11D8093B902909352
:103B2000BA02A093BB02B093BC02BF91AF919F9128
:103B30008F911F901FBE1F9018958091C1028430F5
:103B400031F10E94EE041092830288E190E020E4BB
:103B50000FB6F894A895809360000FBE2093600084
:103B600083B7817F846083BF83B7816083BF78948C
:103B7000889583B78E7F83BF0FB6F894A895809100
:103B80006000886180936000109260000FBE08950D
:103B90000E94EF080E94F304089582E084BD93E040
:103BA00095BD9AEF97BD80936E0008952FB7F89456
:103BB0008091B9029091BA02A091BB02B091BC026F
:103BC0002FBF08952FB7F8946091B9027091BA028F
:103BD0008091BB029091BC022FBF08959C014FB70A
:103BE000F8948091B9029091BA02A091BB02B09171
:103BF000BC024FBF821B930B089578941F921FB68F
:103C00001F9211248F939F93AF93BF938091B9021A
:103C10009091BA02A091BB02B091BC020196A11D85
:103C2000B11D8093B9029093BA02A093BB02B093E6
:103C3000BC02BF91AF919F918F911F901FBE1F90AB
:103C40001895F89481E08093E00080E28093D8009A
:103C5000E9ECF0E010828FE19EE40197F1F700C0FB
:103C600000001DBA109268001CBC10BE1FBA109252
:103C70007A0010926E0010926F00109271001092F4
:103C800072001082ECEBF0E0108214B817B81AB88A
:103C90001DB810BA108215B818B81BB81EB811BAE2
:103CA0000C94003F089588E19AE00FB6F894A89527
:103CB000809360000FBE90936000FFCF8091A702B9
:103CC00008959B01BA019091C1029430E9F48F707C
:103CD0008093E9009FEF8091E800915085FD06C038
:103CE00085ED8A95F1F700009111F5CF8091E800FC
:103CF00085FF0AC050E040E0C9010E942A2180915E
:103D0000E8008E778093E800089543E050E0BC011E
:103D100082E00E94611E089546E050E0BC0182E00E
:103D20000E94611E0895CF93DF93EC0180911201F0
:103D3000811111C048E050E0BE0181E00E94611E87
:103D400080E2FE01A7E8B2E001900D928A95E1F7CA
:103D5000DF91CF9108958091B50287FF05C040E2C1
:103D600082E050E0BE01EACF48E081E0FACF8AE984
:103D700093E00E94D0028091C002811109C00E948C
:103D8000BA220E9417238091E20084608093E200AF
:103D9000089586E993E00E94D0021092C00208952F
:103DA00082E993E00E94D0020E944D1D08958EE8A2
:103DB00093E00E94D0026091BD0281E0611101C0D8
:103DC00080E00E94441D08958AE893E00E94D0029A
:103DD0009091C10281E0943009F080E06091BD02D1
:103DE0000E944A1D0895209185022F5F822F62E371
:103DF0000E94B025992319F020938502089510920E
:103E00008502809186028823F1F08091C10284307E
:103E1000C1F49091E9009F702091EC00822F817095
:103E200020FD80E8892B93E09093E9009091EB00CE
:103E300090FF04C09091EE0097FD08C08F708093B2
:103E4000E9001092860208951092F1009091E80026
:103E500095FDFACF9091E80090FFF0CF9091E800A7
:103E60009E779093E800EACF42E061EC81E00E9407
:103E7000362242E261EC82E00E94362242E261ECAC
:103E800083E00E9436229091C10281E0943009F0D3
:103E900080E06091BD020E943A1D08958091C302A6
:103EA000833009F461C030F48130D1F1823009F4FB
:103EB0009EC008958A3009F48AC08B3009F46FC01F
:103EC000893009F050C08091C202813209F04BC0A4
:103ED0008091C6029091C702029708F044C0809179
:103EE000E800877F8093E8008091E80082FF37C078
:103EF0009091F3008091F200029731F48091F100EB
:103F0000813011F0863021F48091F1008093A70276
:103F10008091E8008B778093E8000E946A2223C09A
:103F20008091C202813AF9F48091E800877F809302
:103F3000E8008091C6029091C702892B61F460E28B
:103F400087E892E070E00E9479218091E8008B7709
:103F50008093E800089560E090E080E0F3CF8091E6
:103F6000C1028111C1CF08958091C202813AD9F76F
:103F70008091C6029091C702892BA9F78091E80031
:103F8000877F8093E8008091E80080FFFCCF8091DC
:103F900012018093F1008091E8008E77BCCF809170
:103FA000C202813201F78091C6029091C702892B2B
:103FB000D1F68091E800877F8093E8000E946A2212
:103FC0008091C402809312010E94EF0808958091AD
:103FD000C202813241F68091E800877F8093E80039
:103FE0000E946A228091C5028093A8020895809160
:103FF000C202813A09F0B7CF8091E800877F8093B1
:10400000E8008091E80080FFFCCF8091A802C1CF3A
:104010009FB7F894109286029FBF9091C10294308E
:1040200009F048C02091E9002F703091EC00932FE7
:10403000917030FD90E8922B23E02093E9002091CD
:10404000EB0020FF34C02091EE0027FF30C020910C
:104050008402222321F02091E80025FF28C010923D
:10406000840226E03091E80035FF14C08093F1000F
:104070008091E80085FD27C08091E80080FFFCCF9B
:104080008091E8008E778093E8009F709093E9001C
:1040900080E008953091C102343049F43091EB0052
:1040A00035FD05C0215041F481E0809384029F706A
:1040B0009093E9008FEF0895EFE9FFE03197F1F772
:1040C00000C00000CFCF8FB7F89421E02093860284
:1040D0008FBFDBCF84B7877F84BF0FB6F894A895D6
:1040E00080916000886180936000109260000FBE34
:1040F00080E890E00FB6F89480936100909361009F
:104100000FBE0E94531D08950E94BA220E941723D9
:10411000E2EEF0E080818460808378940E949525AF
:1041200008958AE091E00E948B1B08958091C1025E
:10413000853051F486E893E00E94D0028091C1025C
:10414000853019F00E94C81D08950E949D1D809120
:10415000BF02882399F30E94601D882379F30E948F
:1041600014210E94EF08EACF08959A014091C802F5
:104170005091C9020E94BD200895492F5527433010
:10418000510521F168F44130510509F443C0423032
:10419000510509F444C090E080E050E040E026C0C2
:1041A0004132510551F142325105A9F76330710591
:1041B00090F7FB01EE0FFF1FEC56FE4F408151813F
:1041C0006F567E4FFB01808190E010C099278130AF
:1041D000910581F0009729F00297E9F6EEE9F3E006
:1041E00002C0E0ECF3E0849190E0AF01F90151836B
:1041F00040830895E4EBF3E0F6CF6330710558F6A1
:10420000660F771FFB01E656FE4F4081518189E022
:1042100090E0ECCF82E190E04FE154E0E7CF8BE516
:1042200090E044EC53E0E2CF80E189BD82E189BDBA
:1042300009B400FEFDCF8091D8008F7D8093D80017
:104240008091E00082608093E0008091E00081FD39
:10425000FCCF0895AF92BF92CF92DF92FF920F935F
:104260001F93CF93DF936C01EB018A010E94892297
:10427000F82E811123C00115110539F0F801808154
:104280009181C81BD90BC80ED91EB12CA12C209727
:10429000A9F08091E80085FD22C08091E8008E772A
:1042A0008093E80001151105A1F0F801808191814A
:1042B000A80EB91EB182A08285E0F82E8F2DDF9165
:1042C000CF911F910F91FF90DF90CF90BF90AF9053
:1042D00008950E9489228823D1F2F82EEFCFF601AB
:1042E00081916F018093F1002197FFEFAF1ABF0A10
:1042F000CECFFC018091C8029091C9028617970722
:10430000A0F06115710529F49091E8009E779093D3
:10431000E80090E06115710551F4911108C0809199
:10432000E80082FF34C080E00895BC01F2CF8091A4
:10433000C1028823C1F18530C1F18091E80083FD7D
:1043400030C08091E80082FDEACF8091E80080FFD4
:10435000E1CF8091F3002091F200382F61157105B3
:1043600019F02830310558F091E02830310509F076
:1043700090E02091E8002E772093E800CBCF819148
:104380008093F100615071092F5F3F4FE7CF80911B
:10439000C102882341F0853041F08091E80083FF1D
:1043A000BECF81E0089582E0089583E00895FC0186
:1043B0008091C8029091C90286179707A0F06115F5
:1043C000710529F48091E8008E778093E80090E0F1
:1043D0006115710551F4911108C08091E80082FFC8
:1043E00035C080E00895BC01F2CF8091C1028823DE
:1043F000C9F18530C9F18091E80083FD31C0809119
:10440000E80082FDEACF8091E80080FFE1CF809153
:10441000F3002091F200382F6115710519F0283052
:10442000310558F091E02830310509F090E0809195
:10443000E8008E778093E800CBCF84918093F100E1
:104440003196615071092F5F3F4FE6CF8091C102D5
:10445000882341F0853041F08091E80083FFBDCF93
:1044600081E0089582E0089583E00895982F9730C1
:1044700028F08F708093E90081E008959093E9001F
:10448000242F762F50E0981731F07091EC00209196
:10449000ED005091F00021FD02C09F5FE8CF309108
:1044A000EB003E7F3093EB003091ED003D7F309389
:1044B000ED003091EB0031603093EB007093EC0035
:1044C0002093ED005093F0002091EE0027FDE5CF02
:1044D00080E008958091C20287FF13C08091E800B8
:1044E00082FF06C08091E8008B778093E80004C0CB
:1044F0008091C1028111F2CF08958091C102882379
:10450000D9F38091E80080FFF8CF8091E8008E77A2
:10451000ECCF2091E4003091E50095E6A9012091CF
:10452000EC00822F817020FF06C08091E80080FFA0
:1045300006C080E008952091E80022FD1AC0809115
:10454000C102882389F0853089F08091EB0085FDD8
:104550000FC02091E4003091E50042175307F9F2B3
:104560009150E1F684E0089582E0089583E0089593
:1045700081E008950E9429230E943123E0EEF0E0BB
:10458000808181608083E8EDF0E080818F77808397
:1045900019BCA7EDB0E08C918E7F8C9380818F7ECB
:1045A00080831092C00208950F931F93CF93DF93DF
:1045B0000E9429230E943123C8EDD0E088818F77A3
:1045C000888388818068888388818F7D888319BCEF
:1045D0001092C1021092BD021092BF021092BE0250
:1045E00000EE10E0F80180818B7F808388818160FC
:1045F000888342E060E080E00E943622E1EEF0E055
:1046000080818E7F8083E2EEF0E080818160808314
:10461000808188608083F80180818E7F808388819B
:1046200080618883DF91CF911F910F910895E8ED0C
:10463000F0E080818F7E8083E7EDF0E08081816013
:10464000808384E082BF81E08093C0020E94D422F4
:104650000895E8EDF0E080818E7F80831092E20083
:1046600008951092DA001092E10008951F920F92BF
:104670000FB60F9211242F933F934F935F936F9335
:104680007F938F939F93AF93BF93EF93FF9380910B
:10469000E10082FF0BC08091E20082FF07C08091A1
:1046A000E1008B7F8093E1000E94F31E8091DA008D
:1046B00080FF19C08091D80080FF15C08091DA007A
:1046C0008E7F8093DA008091D90080FF96C080E1D0
:1046D00089BD82E189BD09B400FEFDCF81E08093F0
:1046E000C1020E94B71E8091E10080FF19C0809135
:1046F000E20080FF15C08091E2008E7F8093E2008F
:104700008091E20080618093E2008091D800806215
:104710008093D80019BC85E08093C1020E94D71E07
:104720008091E10084FF2BC08091E20084FF27C0CC
:1047300080E189BD82E189BD89B5982F917080FFA4
:10474000FBCF8091D8008F7D8093D8008091E100CD
:104750008F7E8093E1008091E2008F7E8093E20063
:104760008091E20081608093E2008091BD02882305
:1047700009F449C084E08093C1020E94E41E809144
:10478000E10083FF29C08091E20083FF25C0809172
:10479000E100877F8093E10082E08093C102109264
:1047A000BD028091E1008E7F8093E1008091E20064
:1047B0008E7F8093E2008091E20080618093E2002E
:1047C00042E060E080E00E9436228091F000886044
:1047D0008093F0000E94D01EFF91EF91BF91AF91A6
:1047E0009F918F917F916F915F914F913F912F9109
:1047F0000F900FBE0F901F90189519BC1092C10218
:104800000E94C91E70CF8091E30087FD93E09093D2
:10481000C102B3CF1F920F920FB60F9211242F93A4
:104820003F934F935F936F937F938F939F93AF9338
:10483000BF93CF93DF93EF93FF93D091E900DF70A5
:104840008091EC00C82FC17080FDC0E81092E90093
:104850008091F000877F8093F00078940E944E242E
:104860001092E9008091F00088608093F000CD2BD9
:10487000CF70C093E900FF91EF91DF91CF91BF918D
:10488000AF919F918F917F916F915F914F913F91E8
:104890002F910F900FBE0F901F901895AAE2B0E0D5
:1048A000E4E5F4E20C94E52582EC92E02091F1003D
:1048B000FC012193CF01F2E08A3C9F07B9F70E94E7
:1048C0004E1F8091E80083FF1EC18091C20290912B
:1048D000C3029A3008F017C1E92FF0E0E055F94D16
:1048E0000C94D025803899F0823809F00CC1809161
:1048F000C6028F70873008F006C18093E90080916E
:10490000EB0085FB882780F91092E90006C08091B2
:10491000BE029091BF02911182609091E800977F52
:104920009093E8008093F1001092F1008091E800EC
:104930008E77E5C0882309F4D3C0823009F0E3C044
:104940008091C4028111D6C08091C6028F702FEF72
:10495000280F263008F0D7C08093E9002091EB00A3
:1049600020FFC8C0933031F48091EB0080628093C7
:10497000EB00C0C09091EB0090619093EB0021E0C0
:1049800030E001C0220F8A95EAF72093EA001092E6
:10499000EA008091EB008860EACF8111B4C01091E9
:1049A000C4021F778091E3008078812B8093E3001D
:1049B0008091E800877F8093E8000E946A228091BE
:1049C000E80080FFFCCF8091E30080688093E300E3
:1049D00082E0111183E08093C10295C0805882303B
:1049E00008F091C08091C4029091C5028C3D23E0F3
:1049F0009207A1F583E08A838AE289834FB7F8940E
:104A0000DE01139620E03EE051E2E32FF0E0509308
:104A10005700E49120FF03C0E295EF703F5FEF7015
:104A20008E2F90E0EA30C0F0C7968D939D932F5F54
:104A3000243159F74FBF8091E800877F8093E800C9
:104A40006AE270E0CE0101960E9479218091E8002F
:104A50008B778093E80057C0C096E7CF6091C6027D
:104A60007091C702AE014F5F5F4F0E94B520BC013D
:104A7000892B09F448C09091E800977F9093E80053
:104A800089819A810E94D721E1CF8038E1F5809118
:104A9000E800877F8093E8008091BD028093F10059
:104AA00045CF811130C09091C402923060F5809161
:104AB000E800877F8093E8009093BD020E946A22FD
:104AC0008091BD02882311F084E005C08091E3004D
:104AD00087FDFACF81E08093C1020E94341F13C08A
:104AE0008091C402813079F481E0933009F080E054
:104AF0008093BF021092E9008091E800877F809345
:104B0000E8000E946A228091E80083FF0AC0809139
:104B1000E800877F8093E8008091EB0080628093BB
:104B2000EB00AA96E3E00C940126CF938091C1029A
:104B30008823A1F0C091E900CF709091EC00892FFB
:104B4000817090FD80E8C82B1092E9008091E80008
:104B500083FD0E944E24CF70C093E900CF91089549
:104B6000991B79E004C0991F961708F0961B881FBF
:104B70007A95C9F78095089597FB072E16F400944F
:104B800007D077FD09D00E940D2607FC05D03EF422
:104B9000909581959F4F0895709561957F4F0895E9
:104BA000EE0FFF1F0590F491E02D09942F923F9294
:104BB0004F925F926F927F928F929F92AF92BF922D
:104BC000CF92DF92EF92FF920F931F93CF93DF93D9
:104BD000CDB7DEB7CA1BDB0B0FB6F894DEBF0FBE36
:104BE000CDBF09942A88398848885F846E847D8483
:104BF0008C849B84AA84B984C884DF80EE80FD8085
:104C00000C811B81AA81B981CE0FD11D0FB6F894FA
:104C1000DEBF0FBECDBFED010895AA1BBB1B51E146
:104C200007C0AA1FBB1FA617B70710F0A61BB70B1C
:104C3000881F991F5A95A9F780959095BC01CD01C1
:104C40000895FB01DC0104C08D910190801921F4CD
:104C500041505040C8F7881B990B0895FB01DC01B7
:104C600002C001900D9241505040D8F70895F99933
:104C7000FECF92BD81BDF89A992780B50895A8E12D
:104C8000B0E042E050E00C946B26262FF999FECF5D
:104C900092BD81BDF89A019700B4021639F01FBA8F
:104CA00020BD0FB6F894FA9AF99A0FBE08950396AC
:104CB000272F0E9446260E944526252F0E94462621
:104CC000242F0C9446260196272F0E9446260C94EA
:104CD0004526DC01CB01FC01F999FECF06C0F2BDEF
:104CE000E1BDF89A319600B40D9241505040B8F7AA
:104CF0000895F894FFCFD206D2062307230796071C
:104D0000B20701070107B707280837083708C21696
:104D10003617CA1694169816CE169C16D216DE169C
:104D2000A8162F17AC16E216B016E6160E17B41614
:104D3000EA161517BA16F016F816A016D616A41607
:104D4000DA16BE16F41604171E172D178E16C61681
:104D50003D175F1B651B4E1B591B6B1B711B771B84
:104D600072249A2483259A248325CD24EE24832536
:044D7000452551255F
:104D74000C02280850011E0A14015E1E931E8C1E8C
:104D8400851E013200320003000300E200E900EA5C
:104D940000B500B600B700CD008301CC008A0192B3
:104DA4000194012102230224022502260227022A59
:104DB40002B300B4006F0070009F01CB019F02A0FA
:104DC40002818283E200E900EA00B500B600B70080
:104DD400CD008301CC008A019201940121022302B7
:104DE40024022502260227022A02B300B4006F001F
:104DF40070009F01CB019F02A002818283F0F130F9
:104E04003140B622090553043104D603EF030804E4
:00000001FF
