:100000000C94A5020C94DD020C94DD020C94DD022C
:100010000C94DD020C94DD020C94DD020C94DD02E4
:100020000C94DD020C94DD020C94BC220C94902301
:100030000C940F1D0C94DD020C94DD020C94DD0277
:100040000C94DD020C94DD020C94DD020C94DD02B4
:100050000C94DD020C94961D0C94DD020C94DD02D0
:100060000C94DD020C940C190C94DD020C94DD024E
:100070000C94DD020C94DD020C94DD020C94DD0284
:100080000C94DD020C94DD020C94DD020C94DD0274
:100090000C94DD020C94DD020C94DD020C94DD0264
:1000A0000C94DD020C94DD020C94DD02D100D3002F
:1000B000D400D20044454255473A206469736162D6
:1000C0006C65642E0A0044454255473A20656E61CE
:1000D000626C65642E0A000A0025303258006C6597
:1000E000645F7461736B3A20004F6E6573686F7460
:1000F0003A206163746976653A2025640A000A0033
:1001000025303862003A200025303258000A722F1C
:10011000632030313233343536370A00290A00255E
:1001200075002F002575005D28002564002000253E
:100130006400200025640020002564007C00253038
:100140003258006D6F7573656B6579205B62746EF4
:100150007C782079207620685D287265702F616335
:100160006C293A205B0020636F6D6D616E643A20EC
:1001700025582C20726573756C743A2025582C20F4
:100180006572726F723A202558200A00707332200F
:100190006D6F757365207365742073747265616D1E
:1001A000206D6F64650020636F6D6D616E643A2031
:1001B00025582C20726573756C743A2025582C20B4
:1001C0006572726F723A202558200A0070733220CF
:1001D0006D6F75736520656E61626C652064617416
:1001E00061207265706F7274696E670020636F6D55
:1001F0006D616E643A2025582C20726573756C749D
:100200003A2025582C206572726F723A20255820AA
:100210000A00707332206D6F7573652064697361B5
:10022000626C652064617461207265706F727469BC
:100230006E67007073325F6D6F7573653A2066612B
:10024000696C20746F20676574206D6F757365200D
:100250007061636B65740A0020726573756C743A23
:100260002025582C206572726F723A202558200A7A
:10027000007073325F6D6F7573655F696E69743A94
:10028000207265616420446576494400207265737C
:10029000756C743A2025582C206572726F723A2062
:1002A0002558200A007073325F6D6F7573655F6942
:1002B0006E69743A20726561642042415400206383
:1002C0006F6D6D616E643A2025582C2072657375D0
:1002D0006C743A2025582C206572726F723A202572
:1002E00058200A007073325F6D6F7573655F696EB9
:1002F00069743A2073656E64696E67207265736510
:100300007400706275663A2066756C6C0A00505312
:1003100032205553415254206572726F723A202533
:1003200030325820646174613A20253032580A0016
:100330000A002530325820006B6579626F61726463
:100340005F7265706F72743A200064656C5F6B65F4
:10035000795F6269743A2063616E27742064656C0A
:100360003A20253032580A006164645F6B65795F1A
:100370006269743A2063616E2774206164643A2074
:10038000253032580A005B735D005B575D005B539C
:100390005D005B525D005B445D005B435D001403E8
:1003A00073006100750063006500620061006C000D
:1003B0006C0000000A037800690061003000000052
:1003C0000403090409025B00030100A0FA09040008
:1003D0000001030101000921110100012240000771
:1003E0000581030800010904010001030000000960
:1003F000211101000122B600070582032000010936
:100400000402000203000000092111010001222260
:1004100000070583032000010705030320000112E4
:1004200001000200000008001A7B5A0001010200CE
:10043000010631FF0974A1010975150026FF009519
:1004400020750881020976150026FF0095207508A1
:100450009102C005010902A10185020901A100055F
:100460000919012908150025019508750181020562
:1004700001093009311581257F950275088106092A
:10048000381581257F950175088106050C0A38020B
:100490001581257F950175088106C0C00501098079
:1004A000A101850319012AB700150126B70095019E
:1004B00075108100C0050C0901A101850419012AEC
:1004C000A002150126A002950175108100C005014A
:1004D0000906A1018506050719E029E71500250190
:1004E0009508750181020507190029EF15002501FE
:1004F00095F0750181020508190129059505750119
:100500009102950175039101C005010906A101053C
:100510000719E029E7150025019508750181029565
:1005200001750881010507190029FF150026FF0044
:1005300095067508810005081901290595057501BD
:100540009102950175039101C00011241FBECFEFE8
:10055000DAE0DEBFCDBF04B603FE18C08091BE0254
:100560009091BF02A091C002B091C1028730904B20
:10057000A740B04B59F41092BE021092BF021092E5
:10058000C0021092C102E0E0F8E3099511E0A0E09A
:10059000B1E0E0E8FCE402C005900D92A839B10793
:1005A000D9F722E0A8E9B1E001C01D92AE3BB20745
:1005B000E1F70E94F0120C94FF250C940000FF93C9
:1005C000EF93E0919801F0919901309709F0099526
:1005D000EF91FF910895FC018591803011F0EFDFDC
:1005E000FBCF0895FF27E0E230E247FF0CC04195C2
:1005F00097FF09C0EDE26095709580959095611D1B
:10060000711D811D911D27FF02C0219530E350E22D
:10061000AA27660F771F881F991FAA1FA41710F01B
:10062000A41B63955A95A9F7AA3008F0A95FA05DAD
:10063000AF93F395611571058105910541F7ED3291
:1006400011F4EF93F395F21718F43F93F395FBCF62
:100650008F91B5DFFA95E1F70895E991F9918591C8
:10066000803021F0853219F0AADFF9CF089520E01B
:10067000E89455915532C1F3503311F46894559173
:100680005A3348F4505390F3220F022E220F220FB8
:10069000200D250FF4CF0EF42195899199915336B1
:1006A00019F3533729F1533559F1BC01882799279C
:1006B000E8945C3621F48991999168945591543667
:1006C00039F446EF7EF077FF0DC08FEF9FEF0AC041
:1006D00055374AE039F0583540E121F0523642E0D2
:1006E00009F00895FF93EF937DDFEF91FF91B7CF6E
:1006F000FF93EF93FC0181918030B9F360DFFBCF72
:10070000FF93EF9368DFF1CFDF93CF93CDB7DEB7E1
:100710002596A3DFCF91DF910895A8E0B0E0E3E94B
:10072000F3E00C945F259C012E5F3F4F3A832983B1
:100730002F5F3F4F3C832B832E5F3F4F3E832D83A4
:10074000049698878F83CE0101967C01EFE9F2E051
:1007500083E1C82E81E0D82E3E0199E0690E711C1C
:1007600094E6892E912C24E6522ED7012D913D91AD
:100770007D012115310509F451C0D601AD90BC9021
:10078000B4E6AB16B10409F449C080819181D90166
:100790004C91042E000C550BBC01640F751F77FFA4
:1007A00003C071956195710997FF03C0919581957B
:1007B00091096817790714F451834083D9014C914A
:1007C00080819181840F911D47FD9A95918380834B
:1007D0001C9200811181A09EC001A19E900DB09E2F
:1007E000900D1124AC0197FF04C044275527481BE6
:1007F000590B4436510594F0B4010E944225AB01D7
:10080000569EC001579E900D1124B5010E944225AD
:10081000061B170B11830083D9014C933296B2E06B
:10082000CB0ED11CE614F70409F09FCF2896EFE019
:100830000C947B25862B59F4443048F4E42FF0E0E7
:10084000EE0FFF1FE455FF4F85919491089580E0CE
:1008500090E008950E941A04089581E0089581E0CF
:1008600008950E942F04089508950E943404089565
:10087000A5E0B0E0EEE3F4E00C946B2549835A83E5
:1008800030919F0189819A81311119C0662399F0B5
:10089000222389F00E94470A182F682F89819A81A4
:1008A0000E942C0A69817A81812F0E949F102596CF
:1008B000E3E00C9487250E94390A182FF3CF0E9499
:1008C000470A69817A81F1CFFC01262F408151814D
:1008D0006281738184810E943804089581E00895C3
:1008E000CF93DF93EC0160E00E946404BE010E949C
:1008F0003504DF91CF9108950E94D11108950E948F
:10090000D511089508950E94FB080E9482042FEFDC
:1009100084E39CE0215080409040E1F700C000005B
:1009200008950E9483040E94BA1D08950E948304C2
:100930000E94DE1D08950F931F93CF93DF938C01C8
:1009400061E00E946404EC01B8010E94310481114D
:1009500006C080E0DF91CF911F910F910895B801FB
:10096000CE010E94DB1A8823A1F3B801CE010E94B8
:100970000316882371F3B801CE010E944D1A882313
:1009800041F3F8018281882369F0C330FCE7DF0777
:1009900081F160F4C130ECE7DE0769F1C0F4C11504
:1009A000DC4791F0C8010E942D04D4CFCB35ECE791
:1009B000DE0739F1CC35FCE7DF0701F1CA35DC474A
:1009C00089F70E945C0EEECF0E949104C2CF9091F5
:1009D0002F02892F8E7F90FF816080932F0280FFEE
:1009E00005C086EC90E00E94EB02B3CF84EB90E070
:1009F000FACF0E94640E0E949604ABCF0E94520E62
:100A0000D1CF0E94600ECECF0E94F11C0E944605FD
:100A100008950E944A050E94F61C0895829590E070
:100A20009C01220F331F220F331F2C7C9595879535
:100A3000959587958373282B30E0C901880F991FFE
:100A40008A7A359527952575822B089508950E94F9
:100A50002605089581E008950895CF93DF93D82F58
:100A60000E942A05C82F882319F08D2F0E942C057B
:100A70008C2FDF91CF9108950895CF93C82F0E94B6
:100A800027058C2F0E942D05CF91089580E00E94AC
:100A90003D0508950E94291B0E943D050895CF93AE
:100AA0000E94291BC82F80919A018C1789F1C0934D
:100AB0009A010E947B1D60939B0170939C0180931F
:100AC0009D0190939E0180912F0282FF1EC080FFA6
:100AD0001CC08EED90E00E94EB0280912F0280FFFF
:100AE00014C01F92CF9389ED90E09F938F930E9443
:100AF000840380912F020F900F900F900F9080FF32
:100B000004C087ED90E00E94EB028C2F0E943D050F
:100B1000CF910895ABE0B0E0E0E9F5E00C946C25EE
:100B20004F83588769877A878B8761110E948A0D66
:100B30001E821D8285E0FE013796DE01119601902E
:100B40000D928A95E1F78C819D81892B61F4498111
:100B50005A816B817C818D819E810E94B30C2B9682
:100B6000E2E00C94882589819A8189238F3F79F36B
:100B7000CE0101960E946E048111E9CFF0CFFC01F5
:100B8000808191810E94790A08950F931F93CF93DA
:100B9000DF93C82FD62F662341F10E9474130C2FC8
:100BA00010E0C801815D9109089710F00E94471478
:100BB000C15DC330A8F4015D110981E090E002C07D
:100BC000880F991F0A95E2F72091A7023091A80299
:100BD000DD2371F0822B932B9093A8028093A702C0
:100BE000DF91CF911F910F9108950E94CE13D7CF1F
:100BF0008095909582239323EFCFCF93C82F88239E
:100C0000B9F08CEF8C0F813AA8F46C2F8091000121
:100C1000909101010E94F51B882329F08C2F0E94DE
:100C20004A0D0E94AB0D8C2F0E94420D0E94AB0D0D
:100C3000CF91089580E28C0F883048F4C77081E02E
:100C400001C0880FCA95EAF70E946D0DEFCFEBE562
:100C5000EC0FE33040F4F0E0E35BFE4F808190E086
:100C60000E94971BE5CFE8E5EC0FE93150F4F0E086
:100C7000EE0FFF1FE55EFE4F808191810E94BC1B3D
:100C8000D7CF83E38C0F833198F661E08C2F0E94DD
:100C9000C505CECF882381F19CEF980F913A28F4B7
:100CA0000E944A0D0E94AB0D089590E2980F983073
:100CB00050F4877091E001C0990F8A95EAF7892F67
:100CC0000E94730DEFCF9BE5980F933028F490E0CE
:100CD00080E00E94971B089598E5980F993128F4B9
:100CE00090E080E00E94BC1B089593E3980F93313D
:100CF00018F460E00E94C50508951F93CF93DF9319
:100D0000182FEB010E94FD05209739F4812F0E94D6
:100D10004A06DF91CF911F9108958FE99FE00197D7
:100D2000F1F700C000002197EFCF70E060E0893359
:100D300011F460E570E00E947D060895882321F09B
:100D40000E946D0D0E94AB0D0895882321F00E9432
:100D5000730D0E94AB0D0895B0E0A0E0E2EBF6E069
:100D60000C9465256C01D62FC72FFC011281F580EC
:100D7000F2949FE0F9220E94630DE82E8823B9F0D7
:100D8000E12E1123A1F08C2F807F803421F080E2AE
:100D90008D0F8830D0F08091AA0282FF16C082E0C9
:100DA0000E940E0E0E94630D91E0E82EE926BC2EF3
:100DB000B2948FE0B822FBE0FB1508F468C0EB2D7D
:100DC000F0E0EF5FF94D0C945625E12CF0CF0C2F9D
:100DD0000F70C07F11F00295007F112399F000235E
:100DE00059F080E28D0F883010F0D11107C0802FAC
:100DF0000E946D0D0E94AB0D8D2F41C0802F0E946F
:100E00007D0DF8CF8D2F0E944A06002309F43FC0C4
:100E100080E28D0F883010F0D11104C0802F0E9425
:100E2000730D03C0802F0E94830D0E94AB0D2FC055
:100E30000C2F0F70C07FC03211F00295007FDD23B0
:100E400081F0D13009F468C0112309F472C0FF2089
:100E500009F468C0F601858180FFCECF8F7085834D
:100E600061C08091AA0282FD33C0112359F0002392
:100E700029F0802F0E946D0D0E94AB0D80E00E9432
:100E8000FD0505C080E00E944A060111C7CFEB2D89
:100E9000E850FF0B349720F40E94291B0E943D0567
:100EA000EE2089F00E945F0D80FD0DC0F6011282D8
:100EB0000E94590D0E948A09C6010E94BB080E9427
:100EC000590D0E949A09CDB7DEB7E9E00C9481254F
:100ED000112389F0F11006C00E948D0D802B0E9415
:100EE0009E06D5CF21E0F212F7CF0E948D0D802B08
:100EF0000E94940DCCCFF11006C00E94A10D802F4E
:100F00000E94A506C4CF31E0F31609F2802F0E949B
:100F1000A5060E94A10DBBCF112331F085E08F15EE
:100F200008F4B5CF802FDBCF94E09F1508F4AFCF46
:100F3000E6CFFF2021F3D93349F4FFEF27EE33E06A
:100F4000F15020403040E1F700C000008D2F0E949A
:100F50004A069DCF8C2F86958695837069F08130E7
:100F600009F095CF8D2F9C2F9370111102C080E056
:100F700090E00E94BC1B8BCF8D2F9C2F9370111182
:100F800002C080E090E00E94971B81CF612F8D2FDF
:100F90000E94C5057CCF8C2F8370A1F5111177CFEE
:100FA0004D2F429546954770440F440F2D2F2F70BB
:100FB00030E0042E02C0220F331F0A94E2F790E0C3
:100FC00080E0D4FF09C08FE090E002C0880F991F35
:100FD0004A95E2F780959095C695C695C370822B89
:100FE000932BC23049F058F4C13019F00E945A09CD
:100FF0004ECF0E9451094BCF0E94630948CF0E94F7
:101000004E0945CF8695112311F08C2F81708823CE
:1010100009F43DCF4D2F429546954770440F440F3C
:101020002D2F2F7030E0042E02C0220F331F0A94A0
:10103000E2F790E080E0D4FF09C08FE090E002C0CA
:10104000880F991F4A95E2F780959095C695C695A9
:10105000C370822B932BC23049F058F4C13019F081
:101060000E94C50914CF0E94BC0911CF0E94CE096D
:101070000ECF0E9472090BCFCF70112329F08C2F55
:101080000E948A098D2F2BCF8D2F0E94A5068C2FB1
:101090000E949A09FCCED23F51F160F4D03FB9F0E2
:1010A000D13F81F0112309F449C0F110A5CE8C2F56
:1010B0008F7121C0D33F11F1D43FA1F78091AA02D3
:1010C00082FD26C08C2F8F71112311F314C01123C0
:1010D00049F084E08F1508F4DACE8C2F8F710E94CE
:1010E000AC09D5CE95E09F1508F4D1CEF6CF8C2F64
:1010F0008F711111CDCF0E948A09C9CE112329F019
:101100008C2F8F710E947E09C2CE0E947909BFCEBA
:10111000112349F0CF718C2F0E948A0963E08C2F34
:101120000E94F00DB4CE81E00E940E0EE1E0EF15BA
:1011300008F0ADCE82E00E940E0EA9CEF110FBCEDB
:101140008C2F8F71A5CF0F931F93CF93DF93EC015B
:10115000688179818A810E94840A8C010E94D70962
:101160000E944D09B801CE010E94AC06DF91CF91DB
:101170001F910F910895CF93DF93EC018B819C8198
:10118000892B29F08881998189238F3F51F4DF9140
:10119000CF910895CE010E94A308CE010E94700451
:1011A000F6CFCE010E949B048111F4CF0E94630D03
:1011B000882369F38A81882351F38091AA0282FFF0
:1011C000E6CF82E00E940E0EE2CF90E080E00E9427
:1011D000971B90E080E00E94BC1B0E948A0D0E9439
:1011E000AB0D0E94E5140E94471408950E94520D11
:1011F0000E94E50808950E947A0D0E94F60808955D
:1012000092959F70963091F058F4925F9F70923053
:1012100058F4803F19F030F4883E30F481E00895AE
:101220009A5FF4CF843FD1F380E00895883EB0F315
:10123000813FD1F7F3CFFC0183819481892B29F081
:101240008081918189238F3F11F480E0089580810E
:1012500091810E94790A0E9400090895A5E0B0E0FA
:10126000E4E3F9E00C946C252596E2E00C948825E3
:10127000A6E0B0E0EEE3F9E00C946C252696E2E0FF
:101280000C94882508950E94420908950E944309FC
:101290009093A7018093A601089508950E9446099E
:1012A00008952091A6013091A701822B932B0E94D3
:1012B000460908952091A6013091A7018223932326
:1012C0000E94460908952091A6013091A701822726
:1012D00093270E94460908950E94420908950E949A
:1012E0006C0908950E946F099093A5018093A40151
:1012F000089590E080E00E947209089521E030E0B6
:10130000A90102C0440F551F8A95E2F7CA010E9445
:101310007209089521E030E002C0220F331F8A9540
:10132000E2F78091A4019091A501822B932B0E945A
:101330007209089521E030E002C0220F331F8A9520
:10134000E2F7209530958091A4019091A501822328
:1013500093230E947209089521E030E002C0220F19
:10136000331F8A95E2F78091A4019091A50182270D
:1013700093270E94720908952091A4013091A5013C
:10138000822B932B0E94720908952091A401309121
:10139000A501822393230E94720908952091A4013C
:1013A0003091A501822793270E947209089508951C
:1013B000262F277091E001C0990F2A95EAF723E0C4
:1013C000769567952A95E1F7660F771F660F771F69
:1013D000FA01E60FF71F50E040E0682F70E08191BE
:1013E000DF0111979B01042E02C0369527950A94C0
:1013F000E2F7217021952827292328272C934F5F76
:101400005F4F4430510559F70895A82FA77023E086
:10141000969587952A95E1F7880F991F880F991F50
:10142000FB01E80FF91F50E040E080E0219130E03F
:101430000A2E02C0369527950A94E2F721703327C9
:10144000042E01C0220F0A94EAF7822B4F5F5F4FF0
:101450004430510559F70895262F911109C0843061
:1014600038F4682F70E040EA51E0822F0E94D809DA
:10147000089591110AC0843030F460EA71E090E080
:101480000E94050A982F892F089590E0FCCFB0E0C4
:10149000A0E0EDE4FAE00C9465257C010091A40144
:1014A0001091A5018091A6019091A701082B192BFD
:1014B000CFE0D0E0CC24C394D12CBC2EC6010C2E9E
:1014C00002C0880F991F0A94E2F780239123892B89
:1014D00049F4219790F7B12C8B2DCDB7DEB7E9E019
:1014E0000C948125B7018C2F0E94AB10019789F3D2
:1014F000F3CFCF93DF93EC010E94470ABE010E9415
:10150000AB10DF91CF9108951F93CF93DF93EB0141
:1015100090919F01992339F0CB010E94790ADF91C4
:10152000CF911F910895882369F0CB010E94470A4B
:10153000182F682FCE010E942C0ABE01812F0E9415
:10154000AB10EDCFCB010E94390A182FF6CF1F93B5
:10155000CF93DF93C091A80116E08091A9018C136D
:1015600004C0DF91CF911F910895D0E01C9FF0013E
:101570001D9FF00D1124E655FE4F4081518162817F
:101580007381848195810E9438092196C770E5CFC7
:101590004091DA015091DB016091DC017091DD0135
:1015A0008091DE019091DF010E94380908951F9318
:1015B000CF93DF938091DF01807F09F049C0809154
:1015C000DC01882309F444C08091A801C091A901DD
:1015D0006091DA017091DB01A091DD01B091DE0133
:1015E000D62FD72316E0C81799F190E0109711F085
:1015F000DF3F19F401968770F6CF189F9001199F6D
:10160000300D1124F901E655FE4F41814713F2CF09
:1016100040814613EFCF42814111ECCF4381548189
:101620004A1B5B0B483C510528F78091DF018F7006
:1016300080618093DF01F901E155FE4F80818F7059
:10164000806180838AED91E00E94BB080E94A70A16
:10165000DF91CF911F910895A1E1B0E0E2E3FBE0BB
:101660000C9464258C0185E0F801DE011D96019043
:101670000D928A95E1F7F801E2808AEDC82E81E0AB
:10168000D82E6091DD017091DE016115710509F4BC
:101690004EC19091DA012091DB01892F82238F3F87
:1016A00009F445C140815181A380B480F090DC01F0
:1016B000F501E61BF70BFF2009F4EAC08091DF017A
:1016C000382F307FE83CF10508F0A3C031116DC020
:1016D000FE2C251316C0941314C0E11012C08F7095
:1016E00080618093DF010E94C80AC6010E94BB0886
:1016F0008091DF01F80185838F2D6196EAE00C94DB
:101700008025A114B10429F0842F85238F3F09F08F
:1017100027C180E0F82FF170DF2E80FF3CC0809160
:10172000A8012091A90136E0821315C04D875E877C
:101730008D859E850E94790A292F22952F7022304F
:10174000F0F0243018F59F70F1F0F8019581907F4A
:10175000D1F4D12C1EC090E0389FF001399FF00DDC
:101760001124E655FE4F6181651306C06081641344
:1017700003C06281E6120FC001968770D5CF9F70BB
:1017800011F0882331F3805E883018F3C8010E947D
:10179000BB08FD2CB1CFEE2009F4AECF8091DF0164
:1017A00081608093DF01F12CA7CF251306C094132D
:1017B00004C0F801EE2009F487C0C8010E941B098B
:1017C000882319F1EE2009F18091DF01803270F059
:1017D0002091DA013091DB0138872F831986BB868F
:1017E000AA868C87CE0107960E94BB0886E0F80186
:1017F000AAEDB1E001900D928A95E1F70E94D70A17
:101800000E94C80AFF24F39477CFC8010E94BB0846
:10181000F9CF311113C07A2DB98AA88A6E2D898922
:101820000E942E098AED91E00E94BB0886E0F60135
:1018300011928A95E9F70E94C80AB5CF25130FC007
:1018400094130DC0E1100BC0F8018583C8010E94FC
:10185000BB0886E0F60111928A95E9F74DCFC801E1
:101860000E941B09882389F2EE2079F28091DF0122
:10187000803208F4BBCF2091DA013091DB013A834A
:1018800029831B82BD82AC828E83CE010196ACCFB0
:10189000E83CF10508F03EC0FE2CEE2009F4B5CF7F
:1018A00025132AC0941328C08091DF0180FD1BC03E
:1018B000982F907FC1F0F8018583903F31F0982FE9
:1018C000907F905F8F70892B8583C8010E94BB0831
:1018D00086E0F801AAEDB1E001900D928A95E1F75A
:1018E0000E94C80A09CF86E0F801AAEDB1E0019094
:1018F0000D928A95E1F700CFC8010E941B09811162
:1019000075CF8091DF0181608093DF01C8010E9463
:10191000BB08F2CE7A2DB98AA88A6E2D89890E94D9
:101920002E0986E0F60111928A95E9F7D9CFEE20CB
:1019300009F46BCFC8010E941B09F82E882309F413
:1019400064CF86E0F801AAEDB1E001900D928A958E
:10195000E1F78AED91E00E94BF050E94D70AC0CF4F
:1019600081E08E25D7CEACE0B0E0E9EBFCE00C9452
:101970006B254F83588769877A878B879C87CE0131
:1019800007960E942C0B882369F08A859B85892BFA
:1019900039F04F815885842F85238F3F09F06BC024
:1019A00016E05FC086E0FE013796DE0111960190D9
:1019B0000D928A95E1F78A859B85892B89F38F8122
:1019C000988589238F3F61F32091A90130E0C901F7
:1019D0000196877099274091A8014817190671F45C
:1019E0000E94FB081092A9011092A80186E0EAED7E
:1019F000F1E0DF011D928A95E9F7D2CF96E0929F40
:101A0000D001939FB00D1124A655BE4FFE01319613
:101A100001900D929A95E1F78093A9010E94A70A7F
:101A2000BFCF819FC001112486559E4F0E942C0B71
:101A30008823E9F0E091A8011E9FF0011124E655EA
:101A4000FE4F4081518162817381848195810E9422
:101A500038098091A80190E00196877099278093BA
:101A6000A8018091A8019091A9018913DACF2C9641
:101A7000E3E00C94872569857A858B859C850E9497
:101A800038098ECF682F80910001909101010E944A
:101A9000971C0895682F80910001909101010E9488
:101AA000A51C089580910001909101010E94B31C32
:101AB000089580910002859585958595089580917A
:101AC00000028770089590910002977081E009F4F8
:101AD00080E0089580912302089590912302892B3C
:101AE00080932302089580959091230298239093E8
:101AF0002302089510922302089590912202892BC7
:101B000080932202089580959091220298239093C9
:101B100022020895109222020895809101020895F0
:101B200008950E94900D08959091AA0292FF08C016
:101B300090910102981721F0809301020E94910D6B
:101B4000089580910102882329F01092010280E01B
:101B50000E94910D0895CF93DF93E0910001F091E1
:101B60000101809123028083E0910001F091010145
:101B7000808190912202892B808390910102992388
:101B800081F0E0910001F09101018081892B808337
:101B900080910001909101010E94E11B81110E943E
:101BA000A10DC0910001D091010140E250E060EE32
:101BB00071E0CE010E94A725892B59F080E2FE0139
:101BC000A0EEB1E001900D928A95E1F7CE010E945E
:101BD000361BDF91CF91089508950E94EC0D089572
:101BE0009091AA0292FF11C098E0899F9001112460
:101BF000622B609300020E948A0980910002859501
:101C0000859585950E94ED0D08950E948A09089595
:101C10001092000280E00E94ED0D08959091000264
:101C20008095892380930002282F277091F4282F14
:101C3000082E000C330B9217130659F09091AA024C
:101C400092FF07C08595859585950E949A090E9407
:101C5000080E0895CF93C82F8091AA0282FB99277E
:101C600090F99C17E9F0C0FB82F98093AA02809159
:101C7000A9029091AA020E94850E82E00E940E0E97
:101C800080912F0280FF0CC01F92CF9389EE90E0CD
:101C90009F938F930E9484030F900F900F900F904B
:101CA000CF9108958091AA0282FB882780F991E064
:101CB00089270E942A0E089581E00E942A0E089525
:101CC00080E00E942A0E08956FEF7FEF90E080E0A1
:101CD0000E94E925089590E080E00E94C52521E05A
:101CE000873E9E4F09F020E0822F089582E090E029
:101CF0000E94BD25089583E090E00E94BD250895CF
:101D000084E090E00E94C5250895BC0184E090E045
:101D10000E94E9250895AB01BC018FE090E00E948C
:101D2000DD250895AB01BC0183E190E00E94DD2533
:101D3000089560E070E0CB010E94920E089560E08B
:101D400070E0CB010E948B0E0E94990E089567EE01
:101D50007EEF90E080E00E94E92560E082E090E084
:101D60000E94CB2560E083E090E00E94CB2510929A
:101D7000A7011092A60160E074E184E090E00E9467
:101D8000E92560E086E090E00E94CB256FEF87E0D8
:101D900090E00E94CB2540E050E0BA0188E090E05E
:101DA0000E94DD2560E08DE090E00E94CB2540E0C0
:101DB00050E0BA0188E190E00E94DD2560E087E113
:101DC00090E00E94CB2540E050E0BA018CE190E029
:101DD0000E94DD2570E060E080E290E00E94E9254D
:101DE00040E050E0BA0188E190E00E94DD250E94C9
:101DF0009F0E08950E94A70E0895682F8EE090E030
:101E00000E94CB2508950E947B1D60932B02709346
:101E10002C0280932D0290932E02609327027093E0
:101E200028028093290290932A0208950895089524
:101E30000E94170F089508950E941B0F089583E9CB
:101E40009FE10E941F1B0E94160F0E94180F089509
:101E500081E008950E94280F0895089508950E9432
:101E60002D0F0E942E0F08950E94B2110E943C0572
:101E700008950E94661D0E9473120E94340F0E94F2
:101E800028180E941C0F0895AAE0B0E0EAE4FFE0E1
:101E90000C9467250E947F121091260280E00E9418
:101EA000D811181328C00E946F1D8C018091240244
:101EB0009091250208171907A1F08FEF89838A8373
:101EC0001B820E946F1D8160782F9D838C834981C6
:101ED0005A816B818D810E948A051093250200939F
:101EE00024020E9407150E94E0160E944F052A96C0
:101EF000E7E00C94832580912F0281FD0E94DE1182
:101F00000E942A0FD82E80E00E94D811182F8091AD
:101F10002602181721F1E12EE82600E0FF24F394B1
:101F20008E2D8F21B1F0DD20A1F00E831F8291E074
:101F3000812F8F2109F490E098870E946F1D8160A6
:101F4000782F9A8789874E815F8168858A850E946C
:101F50008A050F5FFF0C043019F7109326020E94C8
:101F6000030FBFCFCF93DF930E94B010EC01811518
:101F700020E59207D0F5811530E4930708F086C07C
:101F8000803E910518F58D3C910508F07DC0883A9A
:101F9000910570F4853A910508F06EC08130910585
:101FA00001F10097F1F00497E0F4D0E0C0E019C02F
:101FB000813C9105D0F7C85AD0E0CC0FDD1FC05B43
:101FC000DE4F0990D881C02DD4640BC0811590429A
:101FD00008F0A8C0C11581E0D80718F4C83ED105A3
:101FE00020F7CE01DF91CF910895803622E5920748
:101FF00010F5803432E5930708F052C080329245E4
:1020000008F047C0C11582E5D80708F47DC02C2F21
:102010002695269540E2249F900111248C2F8370F1
:10202000C1E0D0E002C0CC0FDD1F8A95E2F7C22BE1
:10203000D32BDD68D6CF803A22E5920760F4803852
:1020400032E5930708F441C0CF71D0E0DC2FCC27F4
:10205000C46FD06AC6CF803C42E5940708F449C0FB
:10206000C03E82E5D80708F0A0CFDC2FCC27CC27D4
:10207000DF71C06FD06AB5CFC55AD0E0CE57DE4F02
:10208000C881D0E0D064ADCFD065ABCFDF70D06A6F
:10209000A8CFCF71D0E0DC2FCC27C16FD06AA1CF01
:1020A000282F26952695277080E2289F90011124DD
:1020B0008C2F8370C1E0D0E002C0CC0FDD1F8A9569
:1020C000E2F7C22BD32BDC688CCF282F26952695E0
:1020D000277040E2249F900111248370C1E0D0E07A
:1020E00002C0CC0FDD1F8A95E2F7C22BD32BDA6832
:1020F00078CF8F710E945211C82FD0E0DC2FCC27EF
:10210000CC27DF71D0626DCF8C2F8F710E9452115E
:1021100035E0D695C7953A95E1F7CF709C2FEC0145
:10212000D0695FCF8D2F8F710E94521190E0982F50
:10213000882788279F719C012C2BE901E3CF462F2C
:10214000711106C0643020F460E00E942A040895F2
:1021500090E080E008950E949F100E94B20F0895C1
:1021600082389105B9F1B0F48133910509F47DC04D
:1021700048F48932910509F46DC08A32910509F459
:102180007BC008958533910509F45FC089339105BB
:1021900009F10895833E9105D9F138F4803E910507
:1021A00029F1823E910579F10895863E9105D9F194
:1021B000873E910509F43EC0843E910541F520918A
:1021C000AA0221FF24C08091A90284FD19C087EED4
:1021D00090E008952091A902237009F05AC020913F
:1021E000AA0223FF14C089E290E008952091A90279
:1021F00020FD38C03091AA0230FF09C024FF43C03F
:1022000090E080E008952091A90222FDF7CF089583
:102210002091A90222FD3AC03091AA0230FD39C0B6
:1022200024FFF5CFEDCF2091A90223FFF0CF24FDAD
:10223000E7CFCDCF2091A90223FD2EC03091AA0275
:1022400031FFEECF84EE90E008952091A90225FFA2
:10225000DECFC9CF2091A90225FD21C02091AA027D
:1022600023FFD5CF89E390E0D2CF2091A90226FFAA
:10227000CECF8AE290E008952091A90226FFC7CF31
:1022800081E390E0089583EE90E0089582EE90E07F
:10229000089580EE90E0089586EE90E0089585E33D
:1022A00090E008959091A90292FF06C0282F28710E
:1022B0002830F9F4877F846093FF06C0282F2871A7
:1022C0002831F1F4877E84612091AA0220FF06C0A4
:1022D000382F38713830D9F4877F816021FF06C0EC
:1022E000282F28712831D1F4877E816194FD877E63
:1022F0000895282F24712430F9F68B7F8860DCCF75
:10230000282F2471243101F78B7E8861DDCF382F8F
:102310003171313019F78E7F8860E0CF282F21711D
:10232000213121F78E7E8861E1CF0E94640E0895ED
:102330000E947F122FEF86E791E02150804090406D
:10234000E1F700C000000E947F1280E00E94D811D7
:1023500080FF04C00E9495110E94BA1D08950E943A
:10236000981108950E946B0E811102C00E94FA0E0E
:102370000E94760E80932F020E94800E9093AA02F4
:102380008093A9020E94AF110E947B0E90E00E94F0
:102390004E098091A4019091A5010E946F090895B2
:1023A00008950E94D011089508950E94D4110895AF
:1023B000E82FF0E0E455FD4F808108958DE091E035
:1023C0000E94EB021F921F9288E091E09F938F93EF
:1023D0000E94840385E091E00E94EB028091AC02B0
:1023E0000E940E051F928F9380E091E09F938F9340
:1023F0000E9484038EEF90E00E94EB028DB79EB79F
:1024000008960FB6F8949EBF0FBE8DBF089580EA60
:102410008A95F1F7089500C008950E940712089563
:10242000F894E82FE295EF70F0E031A1282F2F709B
:1024300081E090E001C0880F2A95EAF7982F9095E7
:10244000932391A392A1892B82A37894089582E388
:102450000E94101280EF0E94101281EF0E94101251
:1024600080E30E94101281E30E94101208950F93DE
:102470001F93CF93DF938C01C62FF894229A2A984A
:1024800078940E940B12E5E8F1E081E0D0E09191B0
:102490009F3F79F0A92FA295AF70B0E090962C9154
:1024A00030E09F7002C0359527959A95E2F7982FF6
:1024B00020FD90E0D92B880F91E0E938F90739F732
:1024C00082E30E94101261E0D11101C060E08C2F04
:1024D0000E940D12F801EC0FF11DD083DF91CF9116
:1024E0001F910F9108950E9427121092AC02109232
:1024F000AB0281E00E94A4120E947C040895A1E036
:10250000B0E0E5E8F2E10C946B25198260E0CE01C1
:1025100001960E9437129091AB02898121E09813B5
:1025200001C020E098138093AB0241E06CEA72E0B6
:102530008BEA92E00E94A512182F0E947F04812F3F
:102540002196E3E00C9487250895CF92DF92EF92D5
:10255000FF920F931F93CF936C017B01042F2223D3
:1025600049F081E0809332020E946F1D9093310206
:1025700080933002C0913202C1110AC0C0E08C2F9A
:10258000CF911F910F91FF90EF90DF90CF90089522
:1025900080913002909131020E94871D059770F35F
:1025A00010E0A801B601C7010E94A725892B41F0C0
:1025B000A801B601C7010E94B42510923202DFCFF4
:1025C000C0E0FBCF0E940F200E94390F0E941C2008
:1025D00008950E9421200E94440F0E943F200895E8
:1025E0000E94081D0E94F51F0E941F0F0E94E21208
:1025F0000E94E9120E942F0FFBCF8091390280FFC9
:102600000DC06091070170E0660F771F603871059B
:1026100070F56115710569F1862F089581FF07C076
:102620006091070184E0689FB0011124EFCF6091B1
:10263000070182FD0AC0809138028823A9F0209109
:10264000060160910701821710F088E0ECCF869FA9
:10265000C001112433E0880F991F3A95E1F7622FEA
:1026600070E00E944225D2CF68E070E0D5CF8FE7BE
:10267000089581E008958091390280FF0CC0609137
:10268000030170E0759567957595679561157105FE
:1026900049F1862F089581FF06C06091030170E023
:1026A00075956795F3CF6091030182FD0BC0909102
:1026B00037029923A1F060910201809103019617DE
:1026C00038F0682F70E06038710500F38FE70895E7
:1026D000899FC001112470E00E944225F4CF61E07F
:1026E00070E0D7CF81E008958D3C31F40E94FD1257
:1026F000819580933D0208958E3C19F40E94FD124D
:10270000F8CF8F3C31F40E94FD12819580933C02FA
:102710000895803D19F40E94FD12F8CF893D29F4F7
:102720000E943B1380933E0208958A3D21F40E944B
:102730003B138195F7CF8B3D31F40E943B1381957C
:1027400080933F0208958C3D19F40E943B13F8CF0B
:102750009FE2980F983070F4815D990B21E030E092
:1027600001C0220F8A95EAF780913B02822B809369
:102770003B0208958D3D31F4809139028160809350
:10278000390208958E3D21F4809139028260F7CF9D
:102790008F3DB9F7809139028460F1CF40913C02BE
:1027A0008D3C59F480913D0287FF0DC010923D028F
:1027B00041110BC01092380208C08E3C81F4809108
:1027C0003D0218169CF3442381F080913E029091C3
:1027D0003F02892B09F05AC01092370208958F3CAE
:1027E00049F447FFF0CF10923C0280913D028111E5
:1027F000ECCFE0CF803D19F41416ACF3E4CF909108
:102800003E02893D29F41916F4F610923E02DBCF00
:102810008A3D19F497FFD7CFF8CF90913F028B3DB7
:1028200029F497FFD0CF10923F02CDCF8C3D19F401
:102830001916CCF3C8CF9FE2980F983090F4815DC1
:10284000990B21E030E0B90102C0660F771F8A952D
:10285000E2F7CB01809590913B02892380933B0264
:10286000B2CF8D3D31F4809139028E7F8093390251
:10287000AACF8E3D21F4809139028D7FF7CF8F3D15
:1028800009F0A1CF809139028B7FF0CF089580911C
:102890002F0283FF7EC083E491E00E94EB028091CF
:1028A0003B021F928F938EE391E09F938F930E9440
:1028B00084038CE391E00E94EB0280913C02282F7C
:1028C000082E000C330B3F938F9389E391E09F9385
:1028D0008F930E94840387E391E00E94EB02809132
:1028E0003D02282F082E000C330B3F938F9384E377
:1028F00091E09F938F930E94840382E391E00E9472
:10290000EB0280913E02282F082E000C330B3F93E0
:102910008F938FE291E09F938F930E9484038DE2C7
:1029200091E00E94EB0280913F02282F082E000CBC
:10293000330B3F938F938AE291E09F938F930E9492
:10294000840387E291E00E94EB02809138021F929B
:102950008F9384E291E09F938F930E94840382E29D
:1029600091E00E94EB02809139021F928F938FE1D8
:1029700091E09F938F930E9484038CE191E00E94E9
:10298000EB028DB79EB74C960FB6F8949EBF0FBE64
:102990008DBF0E946F1D9C0190913C0280913D0271
:1029A000982B21F0309336022093350290913E020D
:1029B00080913F02982B21F0309334022093330210
:1029C0008AE392E00E94891B089586E0EAE3F2E040
:1029D000DF011D928A95E9F71092380210923702B2
:1029E000109239020895FC01828181110EC0838109
:1029F00081110BC08481811108C091E08581811112
:102A000001C090E0892F8170089581E0FCCFA6E09D
:102A1000B0E0EDE0F5E10C946B2586E0EAE3F2E04E
:102A2000DE01119601900D928A95E1F710923C0219
:102A300010923D0210923E0210923F028B819C81C7
:102A4000892B89F080913502909136020E94871D72
:102A5000AC01909138029923C9F180910801841743
:102A6000150608F440C08D819E81892B91F08091DC
:102A70003302909134020E94871DAC01909137027D
:102A8000992309F471C0809104018417150608F494
:102A900079C0BE016F5F7F4F8AE392E00E94C51C40
:102AA000811105C08AE392E00E94F31481110E9413
:102AB000471486E0FE013196AAE3B2E001900D9240
:102AC0008A95E1F72696E3E00C9487252091090189
:102AD0008AE0289F900111242417350720F69F5F74
:102AE0009093380202C09F3FD1F71B81112359F008
:102AF0000E94FD129FEF11160CF491E0899F802D2A
:102B0000112480933C021C81112359F00E94FD1274
:102B10009FEF11160CF491E0899F802D1124809372
:102B20003D0230913C02332309F49DCF20913D02B8
:102B3000222309F498CF45EB3403C00111249923D3
:102B400059F090933C0245EB240390011124332368
:102B500039F030933D0287CF81E080933C02F3CF80
:102B600081E080933D027FCF209105018AE0289F7C
:102B7000900111242417350708F08BCF9F5F9093A5
:102B8000370202C09F3FD1F71D81112359F00E94E7
:102B90003B139FEF11160CF491E0899F802D1124B7
:102BA00080933E021E81112359F00E943B139FEF38
:102BB00011160CF491E0899F802D112480933F021F
:102BC00030913E02332309F464CF20913F02222347
:102BD00009F45FCF45EB3403C0011124992359F068
:102BE00090933E0245EB240390011124332339F0E6
:102BF00030933F024ECF81E080933E02F3CF81E0DD
:102C000080933F0246CFCF93DF93EC01FB0182819B
:102C1000882309F4D2C09E0130572332310508F0D1
:102C2000B2C00E94800E9093AA028093A902FE0176
:102C3000E150F047E232F10520F4E35FF94D0C94E6
:102C400056258091A90281608093A90293C080914A
:102C5000AA0288608093AA028DC08091A902826036
:102C6000F3CF8091A9028460EFCF8091A9028860A0
:102C7000EBCF8091AA028160EDCF8091AA028260A1
:102C8000E9CF8091A9028061DFCF8091A9028062A3
:102C9000DBCF8091A9028064D7CF0E94FB0880918E
:102CA000A9028068D1CF8091A9028C60CDCF80919C
:102CB000AA028360CFCF8091A9028E7FC5CF809179
:102CC000AA02877FC7CF8091A9028D7FBDCF809157
:102CD000A9028B7FB9CF8091A902877FB5CF809160
:102CE000AA028E7FB7CF8091AA028D7FB3CF809149
:102CF000A9028F7EA9CF8091A9028F7DA5CF809157
:102D0000A9028F7BA1CF0E94FB088091A9028F7737
:102D10009BCF8091A902837F97CF8091AA028C7F5D
:102D200099CF8091A90282FB992790F921E09227FF
:102D300090FB82F990FB83F987CF8091AA02982FAC
:102D4000909591708E7F892B90FB81F983CF909124
:102D5000A902892F8F7B96FF806476CF0E94FB08A3
:102D60009091A902892F97FB87F980586DCF81E058
:102D70000E94FD0E8091A9029091AA020E94850EE8
:102D80000E94FB0880E0DF91CF91089580E0F0CFB2
:102D90009091A902892F8F7E94FF806155CF9091E9
:102DA000A902892F8E7F90FF81604ECF9091AA0259
:102DB000892F877F93FF88604DCF81E0E4CF08950E
:102DC0000E946219882309F489C00E946E198093B9
:102DD00045020E946E19809346020E946E198093EC
:102DE0004702209145028091A702282B909146022C
:102DF000809147023091430232273770492F482B88
:102E000050914802452B342B09F45DC020934302B6
:102E1000322F307424FF6BC0311103C0903809F099
:102E200097FF91E825FF69C027FD03C0803809F0AE
:102E300087FF81E8322F3770309345029195909348
:102E400046028195809347028091420222FF5BC037
:102E5000811109C00E946F1D90934102809340022E
:102E600081E0809342029091460280914702292F8F
:102E7000282B99F022E02093420287FD8F5F8595F1
:102E8000819580934802892F97FD8F5F8595809368
:102E900049021092460210924702809145028B7FB0
:102EA000809345028091460290914702892B909130
:102EB0004802892B21F084E492E00E948D0384E48F
:102EC00092E00E94891B10924602109247021092D3
:102ED00048021092490210924502089580912F02F3
:102EE00083FF7FCF83E392E00E94EB027ACF311120
:102EF00002C097FF97CF9FE795CF27FD02C087FFBE
:102F000099CF8FE797CF813001F580914002909162
:102F100041020E94871D8C329140B8F48091450295
:102F200084608093450284E492E00E94891B8FEFC5
:102F300091EE24E0815090402040E1F700C0000075
:102F4000809145028B7F8093450210924202A5CF6B
:102F5000CF9385EF0E948119C82F80912F0283FFA4
:102F60001BC082E192E00E94EB0280916D021F92F1
:102F70008F931F92CF931F9285EF8F938CEE91E0EA
:102F80009F938F930E9484038DB79EB708960FB6C8
:102F9000F8949EBF0FBE8DBFCF910895CF9384EF5D
:102FA0000E948119C82F80912F0283FF1BC08CECD7
:102FB00091E00E94EB0280916D021F928F931F920D
:102FC000CF931F9284EF8F9386EA91E09F938F9324
:102FD0000E9484038DB79EB708960FB6F8949EBFE3
:102FE0000FBE8DBFCF910895CF9380914A0281117A
:102FF00002C00E94A8178AEE0E948119C82F8091F2
:103000002F0283FF1BC08CE891E00E94EB028091AD
:103010006D021F928F931F92CF931F928AEE8F9310
:1030200086E691E09F938F930E9484038DB79EB7AD
:1030300008960FB6F8949EBF0FBE8DBF80914A02CE
:10304000811102C00E94CE1710924A02CF910895BA
:10305000CF930E94F9182FEF83ED90E32150804029
:103060009040E1F700C000008FEF0E948119C82F47
:1030700080912F0283FF1BC084EE92E00E94EB023E
:1030800080916D021F928F931F92CF931F928FEFAB
:103090008F938EEB92E09F938F930E9484038DB762
:1030A0009EB708960FB6F8949EBF0FBE8DBF0E94C4
:1030B0006E19C82F80912F0283FF16C085EA92E017
:1030C0000E94EB0280916D021F928F931F92CF930B
:1030D0008CE892E09F938F930E9484030F900F904F
:1030E0000F900F900F900F900E946E19C82F809133
:1030F0002F0283FF16C081E792E00E94EB028091CD
:103100006D021F928F931F92CF9388E592E09F9359
:103110008F930E9484030F900F900F900F900F9049
:103120000F900E94CE170E94F4170E94DF16CF91D5
:1031300008955D98559A089555985D9A0895559803
:103140005D9A85E08A95F1F7000089B185FB8827B3
:1031500080F908955A98529A089552985A9A089563
:1031600052985A9A85E08A95F1F7000089B182FB5E
:10317000882780F908959FB7F89420914B02809199
:103180004C02821769F030E0F901E35BFD4F80816A
:103190002F5F3F4F2F71332720934B029FBF08951E
:1031A00080E0FCCFCF93DF93EC010E949F1888232F
:1031B00011F0209721F4CE01DF91CF91089585E0A1
:1031C0008A95F1F700002197F0CFCF93DF93C2E308
:1031D000D0E00E949F18811102C0209721F4CE01F7
:1031E000DF91CF91089585E08A95F1F7000021974E
:1031F000F0CF0E949C180E94AD185D985A9886E7FF
:103200008093CA001092C8001092CD001092CC009A
:1032100080E98093C90008951F920F920FB60F9214
:1032200011242F933F934F935F936F937F938F93CB
:103230009F93AF93BF93CF93EF93FF938091C80079
:103240008C714091CE0081112CC0CFB7F894809141
:103250004C0290E09C012F5F3F4F2F71332750911C
:103260004B025217C9F0835B9D4FFC0140832093B2
:103270004C02CFBFFF91EF91CF91BF91AF919F9142
:103280008F917F916F915F914F913F912F910F900F
:103290000FBE0F901F90189582E093E00E94EB0202
:1032A000E8CF1F924F931F928F938EE093E09F93EE
:1032B0008F930E9484030F900F900F900F900F90A8
:1032C0000F90D8CF9FB7F89481E030914C022091B5
:1032D0004B02321301C080E09FBF0895CF93CAE133
:1032E000C15021F40E94BB18CF9108950E94621929
:1032F0008111F8CF8FE99FE00197F1F700C000003E
:10330000EFCFEF92FF920F931F93CF93DF93E82EAF
:1033100010926D021092CA008091C900877E80933E
:10332000C9000E9499180E94AD188FE891E001979A
:10333000F1F700C000000E94AA180E949C1880E1CA
:1033400097E20E94D218892BD9F48AE080936D020B
:103350000E949C180E94AD185D985A9886E7809349
:10336000CA001092C8001092CD001092CC0080E9E3
:103370008093C90080E0CDB7DEB7E6E00C948425E9
:10338000D0E0C0E011E0F12C01E090E59A95F1F772
:10339000C7010C2E02C0959587950A94E2F780FF2D
:1033A00009C010270E94AD180E94E518892B29F446
:1033B00082E0CCCF0E94AA18F7CF82E390E00E946F
:1033C000D218892B11F483E0C1CF2196C830D105E2
:1033D000E1F680E58A95F1F7112341F00E94AD18DE
:1033E0000E94E518892B29F484E0B0CF0E94AA1826
:1033F000F7CF82E390E00E94D218892B11F485E088
:10340000A5CF90E59A95F1F70E94AD18C2E3D0E000
:103410000E94B018882351F0209711F486E096CFCF
:1034200025E02A95F1F700002197F2CFCD2BB1F3DB
:1034300082E390E00E94D218892B11F487E086CFB6
:103440000E94E518892B79F488E080CF85E08A9581
:10345000F1F7000021970E94B018811107C0209752
:10346000A9F789E073CFC2E3D0E0F5CFCD2BC9F344
:103470000E949C180E94AD185D985A9886E7809328
:10348000CA001092C8001092CD001092CC0080E9C2
:103490008093C9000E946E196ECFCF93DF93EB012A
:1034A00086319C4711F50E946A0D9A81992399F003
:1034B0008A7A91E009F490E090936E02811109C03C
:1034C00089E20E94420D0E94AB0D80E0DF91CF9116
:1034D000089585E3F6CF80916E02811104C089E2E0
:1034E0000E944A0DF0CF85E3FBCF81E0EFCF0F9331
:1034F0001F93CF93DF93C42FD22FFC0182818823A7
:10350000C9F0409371020E946F1D909370028093E6
:103510006F0280E28C0F883040F4C77081E001C0F8
:10352000880FCA95EAF70E949E06DF91CF911F91FE
:103530000F91089510917102141332C080916F029F
:10354000909170020E94871D883C910548F5C0E269
:10355000CD0F1D17B9F080E2810F883040F417704D
:1035600081E001C0880F1A95EAF70E94A506C830CD
:1035700048F481E09D2F977001C0880F9A95EAF773
:103580000E949E06802F0E949506C83070F6D77064
:1035900081E001C0880FDA95EAF70E94A506C5CF41
:1035A00080E28C0F883008F6C77081E001C0880F78
:1035B000CA95EAF7F2CF0F93DB0188519C47873019
:1035C0009105A0F5FC01E15DF94D0C94562506E24C
:1035D00021EE41EE6AE17CE7CD010E94771A80E09E
:1035E0000F91089507E225EE45EE6BE17CE7F4CFFD
:1035F00006E221EE40EE68E17CE7EECF07E225EE41
:1036000044EE69E17CE7E8CF06E221EE42EE6CE1B0
:103610007CE7E2CF07E225EE46EE6DE17CE7DCCF0A
:1036200008E221E045EE6EE17CE7D6CF12968C9160
:10363000882319F010927102D3CF81E0D1CF9093FB
:103640009901809398010895909377028093760270
:103650000895E0917602F0917702309729F0019079
:10366000F081E02D0995089580E00895EF92FF9292
:103670000F931F93CF93DF93EC01E0917602F091CB
:103680007702309709F440C080911201882341F0FD
:103690008091A90287FF04C08881898386E088839E
:1036A0000280F381E02DCE01099580912F0282FFE7
:1036B0002BC080FF04C088E393E00E94EB0210E07F
:1036C00000E082E3E82E83E0F82E80912F0280FF55
:1036D0000EC0FE01E00FF11F80811F928F93FF92B9
:1036E000EF920E9484030F900F900F900F900F5F46
:1036F0001F4F0830110549F780912F0280FF04C049
:1037000080E393E00E94EB02CDB7DEB7E6E00C94D5
:103710008425E0917602F0917702309739F022E02B
:10372000DC012C930480F581E02D09950895A3E038
:10373000B0E0EDE9FBE10C946C252091740230912E
:10374000750228173907A1F09093750280937402CF
:10375000E0917602F0917702309751F023E02983CF
:103760009B838A830680F781E02DCE01019609951F
:103770002396E2E00C948825A3E0B0E0E2ECFBE1C4
:103780000C946C252091720230917302281739072E
:10379000A1F09093730280937202E0917602F0910F
:1037A0007702309751F024E029839B838A83068037
:1037B000F781E02DCE01019609952396E2E00C9465
:1037C0008825FC01329680911201882321F0809196
:1037D000A9029EE187FF96E080E0915008F40895E9
:1037E00021912223D1F38F5FF8CF662301F120913D
:1037F00012012223F1F02091A90227FF1AC0462FBF
:103800004695469546954E3190F4677021E030E03C
:1038100002C0220F331F6A95E2F7840F911DFC014D
:10382000828190E02823392381E0232B69F480E012
:103830000895FC01329608962191261721F0E81789
:10384000F907D1F7F4CF81E008959C01FC0132968D
:103850009FEF80E04191461751F09F3F19F44111CD
:1038600001C0982F8F5F8630A9F79F3F09F4089514
:10387000290F311D97FD3A95F90162830895FC01E6
:10388000329608962191261303C0DF0111971C92EE
:10389000E817F907B9F70895E62FE695E695E69556
:1038A000EE3170F4E80FF92FF11D677021E030E080
:1038B00001C0220F6A95EAF78281822B82830895E4
:1038C00080912F0280FF0CC01F926F9388E693E0D7
:1038D0009F938F930E9484030F900F900F900F90EF
:1038E0000895E62FE695E695E695EE3178F4E80F33
:1038F000F92FF11D677021E030E001C0220F6A95B9
:10390000EAF72095828128232283089580912F024F
:1039100080FF0CC01F926F938AE493E09F938F9374
:103920000E9484030F900F900F900F9008952091A4
:103930001201222339F02091A90227FF03C00E941F
:103940004C1C08950E94251C0895209112012223E9
:1039500039F02091A90227FF03C00E94711C08952D
:103960000E943F1C0895FC01329680911201882329
:1039700051F08091A90287FF06C08EE1DF011D9200
:103980008A95E9F7089586E0F9CF46E050E00E9475
:10399000A72521E0892B09F420E0822F08950895BE
:1039A0000E94CF1C0895811106C081E080937802A7
:1039B0000E94D01C089582E0F9CF83E080937802C2
:1039C0000E94D01C08950E94D31C089581E080932A
:1039D00078020E94D01C08950E94E61C0895089564
:1039E00008950E94F01C0895089508950E94EF1C08
:1039F00008950E94F41C0E947F120E94F51C80E032
:103A00000E94D81191E0811101C090E0892F0895A2
:103A100085B7806885BF85B7806885BF08951F9288
:103A20001FB61F9211248F939F93AF93BF938091E2
:103A30007902811113C08091AD029091AE02A091E4
:103A4000AF02B091B0024196A11DB11D8093AD02AD
:103A50009093AE02A093AF02B093B002BF91AF912A
:103A60009F918F911F901FBE1F9018958091B50256
:103A7000843031F10E9404051092790288E190E0CF
:103A800020E40FB6F894A895809360000FBE2093B1
:103A9000600083B7817F846083BF83B7816083BF09
:103AA0007894889583B78E7F83BF0FB6F894A895D6
:103AB00080916000886180936000109260000FBE6A
:103AC00008950E94FB080E940905089582E084BDC4
:103AD00093E095BD9AEF97BD80936E0008952FB740
:103AE000F8948091AD029091AE02A091AF02B09196
:103AF000B0022FBF08952FB7F8946091AD02709176
:103B0000AE028091AF029091B0022FBF08959C0148
:103B10004FB7F8948091AD029091AE02A091AF02A0
:103B2000B091B0024FBF821B930B089578941F92FF
:103B30001FB61F9211248F939F93AF93BF938091D1
:103B4000AD029091AE02A091AF02B091B002019689
:103B5000A11DB11D8093AD029093AE02A093AF0260
:103B6000B093B002BF91AF919F918F911F901FBEF4
:103B70001F90189581E08093E00080E28093D80048
:103B80001092C9008FE19EE40197F1F700C0000098
:103B900087E090EBDC018093BE029093BF02A0937C
:103BA000C002B093C10288E19CE00FB6F894A895DA
:103BB000809360000FBE90936000FFCF88E19CE08F
:103BC0000FB6F894A895809360000FBE90936000A4
:103BD000FFCF80919D0208959B01BA019091B5029B
:103BE0009430E9F48F708093E9009FEF8091E800B2
:103BF000915085FD06C085ED8A95F1F70000911181
:103C0000F5CF8091E80085FF0AC050E040E0C9018F
:103C10000E94B0208091E8008E778093E80008959C
:103C200043E050E0BC0182E00E94EC1D089546E0B4
:103C300050E0BC0182E00E94EC1D0895CF93DF9319
:103C4000EC0180911201811111C048E050E0BE01E9
:103C500081E00E94EC1D80E2FE01ADE7B2E0019040
:103C60000D928A95E1F7DF91CF9108958091A90295
:103C700087FF05C040E282E050E0BE01EACF48E0A5
:103C800081E0FACF8AE993E00E94EB028091B402CE
:103C9000811109C00E9440220E949D228091E20071
:103CA00084608093E200089586E993E00E94EB022D
:103CB0001092B402089582E993E00E94EB020E9400
:103CC000E61C08958EE893E00E94EB026091B10239
:103CD00081E0611101C080E00E94DD1C08958AE846
:103CE00093E00E94EB029091B50281E0943009F0DC
:103CF00080E06091B1020E94E31C089520917B0254
:103D00002F5F822F62E30E943625992319F02093BA
:103D10007B02089510927B0280917C028823F1F04F
:103D20008091B5028430C1F49091E9009F70209198
:103D3000EC00822F817020FD80E8892B93E0909326
:103D4000E9009091EB0090FF04C09091EE0097FD88
:103D500008C08F708093E90010927C020895109241
:103D6000F1009091E80095FDFACF9091E80090FF66
:103D7000F0CF9091E8009E779093E800EACF42E080
:103D800061EC81E00E94BC2142E261EC82E00E9491
:103D9000BC2142E261EC83E00E94BC219091B5021B
:103DA00081E0943009F080E06091B1020E94D31C60
:103DB00008958091B702833009F461C030F48130F6
:103DC000D1F1823009F49EC008958A3009F48AC086
:103DD0008B3009F46FC0893009F050C08091B60271
:103DE000813209F04BC08091BA029091BB020297D8
:103DF00008F044C08091E800877F8093E8008091BC
:103E0000E80082FF37C09091F3008091F2000297A2
:103E100031F48091F100813011F0863021F48091ED
:103E2000F10080939D028091E8008B778093E800F9
:103E30000E94F02123C08091B602813AF9F480916A
:103E4000E800877F8093E8008091BA029091BB02DE
:103E5000892B61F460E28DE792E070E00E94FF2020
:103E60008091E8008B778093E800089560E090E00F
:103E700080E0F3CF8091B5028111C1CF0895809188
:103E8000B602813AD9F78091BA029091BB02892B90
:103E9000A9F78091E800877F8093E8008091E8008F
:103EA00080FFFCCF809112018093F1008091E800A7
:103EB0008E77BCCF8091B602813201F78091BA0231
:103EC0009091BB02892BD1F68091E800877F809387
:103ED000E8000E94F0218091B802809312010E94B4
:103EE000FB0808958091B602813241F68091E80086
:103EF000877F8093E8000E94F0218091B90280932F
:103F00009E0208958091B602813A09F0B7CF809160
:103F1000E800877F8093E8008091E80080FFFCCF75
:103F200080919E02C1CF9FB7F89410927C029FBFF0
:103F30009091B502943009F048C02091E9002F70AB
:103F40003091EC00932F917030FD90E8922B23E09C
:103F50002093E9002091EB0020FF34C02091EE0077
:103F600027FF30C020917A02222321F02091E8001F
:103F700025FF28C010927A0226E03091E80035FF34
:103F800014C08093F1008091E80085FD27C08091E6
:103F9000E80080FFFCCF8091E8008E778093E800F6
:103FA0009F709093E90080E008953091B50234301D
:103FB00049F43091EB0035FD05C0215041F481E01A
:103FC00080937A029F709093E9008FEF0895EFE954
:103FD000FFE03197F1F700C00000CFCF8FB7F89422
:103FE00021E020937C028FBFDBCF84B7877F84BF23
:103FF0000FB6F894A8958091600088618093600066
:10400000109260000FBE80E890E00FB6F8948093A5
:104010006100909361000FBE0E94EC1C08950E9405
:1040200040220E949D22E2EEF0E080818460808345
:1040300078940E941B2508958AE091E00E94241B39
:1040400008958091B502853051F486E893E00E948E
:10405000EB028091B502853019F00E94611D089530
:104060000E94361D8091B302882399F30E94F91CA7
:10407000882379F30E949A200E94FB08EACF0895D2
:104080000E9443200895292F33272330310521F141
:1040900068F42130310509F443C02230310509F4B8
:1040A00044C090E080E030E020E026C021323105BD
:1040B00051F122323105A9F76330710590F7FB0108
:1040C000EE0FFF1FE457FE4F2081318167577E4F6F
:1040D000FB01808190E010C099278130910581F02B
:1040E000009729F00297E9F6EEE9F3E002C0E0EC70
:1040F000F3E0849190E09F01FA01318320830895D9
:10410000E4EBF3E0F6CF6330710558F6660F771FE6
:10411000FB01EE56FE4F2081318189E090E0ECCF2B
:1041200082E190E02FE134E0E7CF8BE590E024ECF2
:1041300033E0E2CF80E189BD82E189BD09B400FEB0
:10414000FDCF8091D8008F7D8093D8008091E000D2
:1041500082608093E0008091E00081FDFCCF0895B3
:10416000AF92BF92CF92DF92FF920F931F93CF93A4
:10417000DF936C01EB018A010E940F22F82E81115E
:1041800023C00115110539F0F80180819181C81B08
:10419000D90BC80ED91EB12CA12C2097A9F0809163
:1041A000E80085FD22C08091E8008E778093E800CA
:1041B00001151105A1F0F80180819181A80EB91EA9
:1041C000B182A08285E0F82E8F2DDF91CF911F91D3
:1041D0000F91FF90DF90CF90BF90AF9008950E9415
:1041E0000F228823D1F2F82EEFCFF60181916F01D3
:1041F0008093F1002197FFEFAF1ABF0ACECFFC01E9
:104200008091BC029091BD0286179707A0F06115BE
:10421000710529F49091E8009E779093E80090E072
:104220006115710551F4911108C08091E80082FF79
:1042300034C080E00895BC01F2CF8091B50288239C
:10424000C1F18530C1F18091E80083FD30C08091DB
:10425000E80082FDEACF8091E80080FFE1CF809105
:10426000F3002091F200382F6115710519F0283004
:10427000310558F091E02830310509F090E02091A7
:10428000E8002E772093E800CBCF81918093F10056
:10429000615071092F5F3F4FE7CF8091B5028823AE
:1042A00041F0853041F08091E80083FFBECF81E08E
:1042B000089582E0089583E00895FC018091BC0296
:1042C0009091BD0286179707A0F06115710529F43A
:1042D0008091E8008E778093E80090E06115710589
:1042E00051F4911108C08091E80082FF35C080E050
:1042F0000895BC01F2CF8091B5028823C9F18530C1
:10430000C9F18091E80083FD31C08091E80082FD11
:10431000EACF8091E80080FFE1CF8091F300209107
:10432000F200382F6115710519F02830310558F069
:1043300091E02830310509F090E08091E8008E7717
:104340008093E800CBCF84918093F1003196615047
:1043500071092F5F3F4FE6CF8091B502882341F06E
:10436000853041F08091E80083FFBDCF81E0089562
:1043700082E0089583E00895982F973028F08F7099
:104380008093E90081E008959093E900242F762F2F
:1043900050E0981731F07091EC002091ED005091B1
:1043A000F00021FD02C09F5FE8CF3091EB003E7F1F
:1043B0003093EB003091ED003D7F3093ED00309174
:1043C000EB0031603093EB007093EC002093ED0034
:1043D0005093F0002091EE0027FDE5CF80E0089596
:1043E0008091B60287FF13C08091E80082FF06C06B
:1043F0008091E8008B778093E80004C08091B5023B
:104400008111F2CF08958091B5028823D9F380916C
:10441000E80080FFF8CF8091E8008E77ECCF209104
:10442000E4003091E50095E6A9012091EC00822F8F
:10443000817020FF06C08091E80080FF06C080E008
:1044400008952091E80022FD1AC08091B5028823CA
:1044500089F0853089F08091EB0085FD0FC02091B7
:10446000E4003091E50042175307F9F29150E1F66C
:1044700084E0089582E0089583E0089581E008953E
:104480000E94AF220E94B722E0EEF0E080818160BE
:104490008083E8EDF0E080818F77808319BCA7ED01
:1044A000B0E08C918E7F8C9380818F7E8083109280
:1044B000B40208950F931F93CF93DF930E94AF220E
:1044C0000E94B722C8EDD0E088818F7788838881E9
:1044D0008068888388818F7D888319BC1092B5029B
:1044E0001092B1021092B3021092B20200EE10E0EC
:1044F000F80180818B7F808388818160888342E09E
:1045000060E080E00E94BC21E1EEF0E080818E7FDF
:104510008083E2EEF0E0808181608083808188602A
:104520008083F80180818E7F808388818061888389
:10453000DF91CF911F910F910895E8EDF0E0808118
:104540008F7E8083E7EDF0E080818160808384E06E
:1045500082BF81E08093B4020E945A220895E8ED60
:10456000F0E080818E7F80831092E20008951092A7
:10457000DA001092E10008951F920F920FB60F9289
:1045800011242F933F934F935F936F937F938F9358
:104590009F93AF93BF93EF93FF938091E10082FFCE
:1045A0000BC08091E20082FF07C08091E1008B7F09
:1045B0008093E1000E947E1E8091DA0080FF19C086
:1045C0008091D80080FF15C08091DA008E7F8093A3
:1045D000DA008091D90080FF96C080E189BD82E138
:1045E00089BD09B400FEFDCF81E08093B5020E9431
:1045F000421E8091E10080FF19C08091E20080FF9F
:1046000015C08091E2008E7F8093E2008091E200ED
:1046100080618093E2008091D80080628093D8000E
:1046200019BC85E08093B5020E94621E8091E10072
:1046300084FF2BC08091E20084FF27C080E189BD08
:1046400082E189BD89B5982F917080FFFBCF809161
:10465000D8008F7D8093D8008091E1008F7E809379
:10466000E1008091E2008F7E8093E2008091E20081
:1046700081608093E2008091B102882309F449C0EF
:1046800084E08093B5020E946F1E8091E10083FF59
:1046900029C08091E20083FF25C08091E100877FDF
:1046A0008093E10082E08093B5021092B102809184
:1046B000E1008E7F8093E1008091E2008E7F809305
:1046C000E2008091E20080618093E20042E060E0DD
:1046D00080E00E94BC218091F00088608093F0000F
:1046E0000E945B1EFF91EF91BF91AF919F918F91BF
:1046F0007F916F915F914F913F912F910F900FBEDE
:104700000F901F90189519BC1092B5020E94541E6C
:1047100070CF8091E30087FD93E09093B502B3CF13
:104720001F920F920FB60F9211242F933F934F9326
:104730005F936F937F938F939F93AF93BF93CF9329
:10474000DF93EF93FF93D091E900DF708091EC004D
:10475000C82FC17080FDC0E81092E9008091F00080
:10476000877F8093F00078940E94D4231092E90010
:104770008091F00088608093F000CD2BCF70C093C3
:10478000E900FF91EF91DF91CF91BF91AF919F91A0
:104790008F917F916F915F914F913F912F910F90EA
:1047A0000FBE0F901F901895AAE2B0E0EAEDF3E279
:1047B0000C946B2586EB92E02091F100FC01219393
:1047C000CF01F2E08E3B9F07B9F70E94D91E80917E
:1047D000E80083FF1EC18091B6029091B7029A3023
:1047E00008F017C1E92FF0E0EA5CF94D0C9456256A
:1047F000803899F0823809F00CC18091BA028F702C
:10480000873008F006C18093E9008091EB0085FBBA
:10481000882780F91092E90006C08091B202909139
:10482000B302911182609091E800977F9093E80025
:104830008093F1001092F1008091E8008E77E5C03E
:10484000882309F4D3C0823009F0E3C08091B80214
:104850008111D6C08091BA028F702FEF280F2630B9
:1048600008F0D7C08093E9002091EB0020FFC8C07A
:10487000933031F48091EB0080628093EB00C0C0F4
:104880009091EB0090619093EB0021E030E001C04B
:10489000220F8A95EAF72093EA001092EA008091AD
:1048A000EB008860EACF8111B4C01091B8021F7785
:1048B0008091E3008078812B8093E3008091E80071
:1048C000877F8093E8000E94F0218091E80080FFBC
:1048D000FCCF8091E30080688093E30082E01111B7
:1048E00083E08093B50295C08058823008F091C073
:1048F0008091B8029091B9028C3D23E09207A1F516
:1049000083E08A838AE289834FB7F894DE011396A5
:1049100020E03EE051E2E32FF0E050935700E491B5
:1049200020FF03C0E295EF703F5FEF708E2F90E0A5
:10493000EA30C0F0C7968D939D932F5F243159F7CD
:104940004FBF8091E800877F8093E8006AE270E0C3
:10495000CE0101960E94FF208091E8008B77809322
:10496000E80057C0C096E7CF6091BA027091BB02D1
:10497000AE014F5F5F4F0E944020BC01892B09F4BC
:1049800048C09091E800977F9093E80089819A81D0
:104990000E945D21E1CF8038E1F58091E800877FBA
:1049A0008093E8008091B1028093F10045CF81119E
:1049B00030C09091B802923060F58091E800877F16
:1049C0008093E8009093B1020E94F0218091B1029F
:1049D000882311F084E005C08091E30087FDFACFC1
:1049E00081E08093B5020E94BF1E13C08091B8027F
:1049F000813079F481E0933009F080E08093B30254
:104A00001092E9008091E800877F8093E8000E947F
:104A1000F0218091E80083FF0AC08091E800877F41
:104A20008093E8008091EB0080628093EB00AA966F
:104A3000E3E00C948725CF938091B5028823A1F001
:104A4000C091E900CF709091EC00892F817090FDAA
:104A500080E8C82B1092E9008091E80083FD0E9455
:104A6000D423CF70C093E900CF910895991B79E0CA
:104A700004C0991F961708F0961B881F7A95C9F7EE
:104A80008095089597FB072E16F4009407D077FDC4
:104A900009D00E94932507FC05D03EF4909581959E
:104AA0009F4F0895709561957F4F0895EE0FFF1FFA
:104AB0000590F491E02D09942F923F924F925F92CE
:104AC0006F927F928F929F92AF92BF92CF92DF921E
:104AD000EF92FF920F931F93CF93DF93CDB7DEB783
:104AE000CA1BDB0B0FB6F894DEBF0FBECDBF099417
:104AF0002A88398848885F846E847D848C849B846E
:104B0000AA84B984C884DF80EE80FD800C811B817B
:104B1000AA81B981CE0FD11D0FB6F894DEBF0FBEAA
:104B2000CDBFED010895AA1BBB1B51E107C0AA1F11
:104B3000BB1FA617B70710F0A61BB70B881F991F3E
:104B40005A95A9F780959095BC01CD010895FB0178
:104B5000DC0104C08D910190801921F44150504036
:104B6000C8F7881B990B0895FB01DC0102C0019076
:104B70000D9241505040D8F70895F999FECF92BD5B
:104B800081BDF89A992780B50895A8E1B0E042E088
:104B900050E00C94F125262FF999FECF92BD81BDEE
:104BA000F89A019700B4021639F01FBA20BD0FB66B
:104BB000F894FA9AF99A0FBE08950396272F0E9447
:104BC000CC250E94CB25252F0E94CC25242F0C9488
:104BD000CC250196272F0E94CC250C94CB25DC01F7
:104BE000CB01FC01F999FECF06C0F2BDE1BDF89AF8
:104BF000319600B40D9241505040B8F70895F894A2
:104C0000FFCFE706E70618071807AA07C6074707F2
:104C10004707CB073C084B084B085B16CF166316BB
:104C20002D163116671635166B1677164116C816EF
:104C300045167B1649167F16A7164D168316AE1617
:104C400053168916911639166F163D167316571698
:104C50008D169D16B716C61627165F16D616F81AA5
:104C6000FE1AE71AF21A041B0A1B101BF823202451
:104C7000092520240925532474240925CB24D7246D
:104C80000202280850011E0A1401E91D1E1E171EEB
:104C9000101E012800280003000300E200E900EADA
:104CA00000B500B600B700CD008301CC008A0192A8
:104CB0000194012102230224022502260227022A4E
:104CC00002B300B4006F0070009F01CB01818283AA
:104CD000E200E900EA00B500B600B700CD008301AC
:104CE000CC008A01920194012102230224022502B0
:104CF000260227022A02B300B4006F0070009F0151
:104D0000CB01818283F0F1303140B6220905530492
:084D10003104D603EF0308048F
:00000001FF
